{
  "_format": "hh3-artifact-1",
  "contractName": "HeroArenaBattle",
  "sourceName": "contracts/HeroArenaBattle.sol",
  "abi": [
    {
      "inputs": [
        {
          "internalType": "contract HeroArenaProfileInterface",
          "name": "_HeroArenaProfileSC",
          "type": "address"
        }
      ],
      "stateMutability": "nonpayable",
      "type": "constructor"
    },
    {
      "inputs": [],
      "name": "AccessControlBadConfirmation",
      "type": "error"
    },
    {
      "inputs": [
        {
          "internalType": "address",
          "name": "account",
          "type": "address"
        },
        {
          "internalType": "bytes32",
          "name": "neededRole",
          "type": "bytes32"
        }
      ],
      "name": "AccessControlUnauthorizedAccount",
      "type": "error"
    },
    {
      "inputs": [
        {
          "internalType": "address",
          "name": "owner",
          "type": "address"
        }
      ],
      "name": "OwnableInvalidOwner",
      "type": "error"
    },
    {
      "inputs": [
        {
          "internalType": "address",
          "name": "account",
          "type": "address"
        }
      ],
      "name": "OwnableUnauthorizedAccount",
      "type": "error"
    },
    {
      "inputs": [],
      "name": "ReentrancyGuardReentrantCall",
      "type": "error"
    },
    {
      "inputs": [
        {
          "internalType": "address",
          "name": "token",
          "type": "address"
        }
      ],
      "name": "SafeERC20FailedOperation",
      "type": "error"
    },
    {
      "anonymous": false,
      "inputs": [
        {
          "indexed": true,
          "internalType": "address",
          "name": "owner",
          "type": "address"
        },
        {
          "indexed": true,
          "internalType": "address",
          "name": "token",
          "type": "address"
        },
        {
          "indexed": false,
          "internalType": "bool",
          "name": "allowed",
          "type": "bool"
        }
      ],
      "name": "AllowedBetTokenUpdated",
      "type": "event"
    },
    {
      "anonymous": false,
      "inputs": [
        {
          "indexed": true,
          "internalType": "address",
          "name": "owner",
          "type": "address"
        },
        {
          "indexed": false,
          "internalType": "bool",
          "name": "isAvail",
          "type": "bool"
        }
      ],
      "name": "AvailableCreateBattleUpdated",
      "type": "event"
    },
    {
      "anonymous": false,
      "inputs": [
        {
          "indexed": true,
          "internalType": "uint256",
          "name": "battleId",
          "type": "uint256"
        },
        {
          "indexed": true,
          "internalType": "address",
          "name": "closedBy",
          "type": "address"
        },
        {
          "indexed": false,
          "internalType": "uint256",
          "name": "refundedAmount",
          "type": "uint256"
        }
      ],
      "name": "BattleClosed",
      "type": "event"
    },
    {
      "anonymous": false,
      "inputs": [
        {
          "indexed": true,
          "internalType": "uint256",
          "name": "battleId",
          "type": "uint256"
        },
        {
          "indexed": true,
          "internalType": "address",
          "name": "conceder",
          "type": "address"
        },
        {
          "indexed": true,
          "internalType": "address",
          "name": "winner",
          "type": "address"
        },
        {
          "indexed": false,
          "internalType": "uint256",
          "name": "totalReward",
          "type": "uint256"
        }
      ],
      "name": "BattleConceded",
      "type": "event"
    },
    {
      "anonymous": false,
      "inputs": [
        {
          "indexed": true,
          "internalType": "uint256",
          "name": "battleId",
          "type": "uint256"
        },
        {
          "indexed": true,
          "internalType": "address",
          "name": "creator",
          "type": "address"
        },
        {
          "indexed": false,
          "internalType": "address",
          "name": "targetAddress",
          "type": "address"
        },
        {
          "indexed": false,
          "internalType": "address",
          "name": "betTokenAddress",
          "type": "address"
        },
        {
          "indexed": false,
          "internalType": "uint256",
          "name": "betAmount",
          "type": "uint256"
        }
      ],
      "name": "BattleCreated",
      "type": "event"
    },
    {
      "anonymous": false,
      "inputs": [
        {
          "indexed": true,
          "internalType": "uint256",
          "name": "battleId",
          "type": "uint256"
        },
        {
          "indexed": true,
          "internalType": "address",
          "name": "winner",
          "type": "address"
        },
        {
          "indexed": false,
          "internalType": "uint256",
          "name": "totalReward",
          "type": "uint256"
        }
      ],
      "name": "BattleEnded",
      "type": "event"
    },
    {
      "anonymous": false,
      "inputs": [
        {
          "indexed": true,
          "internalType": "uint256",
          "name": "battleId",
          "type": "uint256"
        },
        {
          "indexed": true,
          "internalType": "address",
          "name": "joiner",
          "type": "address"
        }
      ],
      "name": "BattleJoined",
      "type": "event"
    },
    {
      "anonymous": false,
      "inputs": [
        {
          "indexed": true,
          "internalType": "uint256",
          "name": "battleId",
          "type": "uint256"
        },
        {
          "indexed": true,
          "internalType": "address",
          "name": "winner",
          "type": "address"
        },
        {
          "indexed": true,
          "internalType": "address",
          "name": "token",
          "type": "address"
        },
        {
          "indexed": false,
          "internalType": "uint256",
          "name": "amount",
          "type": "uint256"
        },
        {
          "indexed": false,
          "internalType": "bool",
          "name": "success",
          "type": "bool"
        }
      ],
      "name": "BonusPayout",
      "type": "event"
    },
    {
      "anonymous": false,
      "inputs": [
        {
          "indexed": true,
          "internalType": "address",
          "name": "owner",
          "type": "address"
        },
        {
          "indexed": false,
          "internalType": "address",
          "name": "bonusToken",
          "type": "address"
        },
        {
          "indexed": false,
          "internalType": "uint256",
          "name": "bonusAmount",
          "type": "uint256"
        }
      ],
      "name": "BonusTokenUpdated",
      "type": "event"
    },
    {
      "anonymous": false,
      "inputs": [
        {
          "indexed": true,
          "internalType": "address",
          "name": "admin",
          "type": "address"
        },
        {
          "indexed": true,
          "internalType": "address",
          "name": "token",
          "type": "address"
        },
        {
          "indexed": true,
          "internalType": "address",
          "name": "to",
          "type": "address"
        },
        {
          "indexed": false,
          "internalType": "uint256",
          "name": "amount",
          "type": "uint256"
        }
      ],
      "name": "ExtraTokensRescued",
      "type": "event"
    },
    {
      "anonymous": false,
      "inputs": [
        {
          "indexed": true,
          "internalType": "address",
          "name": "owner",
          "type": "address"
        },
        {
          "indexed": true,
          "internalType": "address",
          "name": "userAddress",
          "type": "address"
        },
        {
          "indexed": false,
          "internalType": "bool",
          "name": "isForbidden",
          "type": "bool"
        }
      ],
      "name": "ForbiddenToPlayUpdated",
      "type": "event"
    },
    {
      "anonymous": false,
      "inputs": [
        {
          "indexed": true,
          "internalType": "address",
          "name": "owner",
          "type": "address"
        },
        {
          "indexed": false,
          "internalType": "uint256",
          "name": "amount0",
          "type": "uint256"
        },
        {
          "indexed": false,
          "internalType": "uint256",
          "name": "amount1",
          "type": "uint256"
        }
      ],
      "name": "MinimumBetTokenAmountUpdated",
      "type": "event"
    },
    {
      "anonymous": false,
      "inputs": [
        {
          "indexed": true,
          "internalType": "address",
          "name": "previousOwner",
          "type": "address"
        },
        {
          "indexed": true,
          "internalType": "address",
          "name": "newOwner",
          "type": "address"
        }
      ],
      "name": "OwnershipTransferred",
      "type": "event"
    },
    {
      "anonymous": false,
      "inputs": [
        {
          "indexed": true,
          "internalType": "uint256",
          "name": "battleId",
          "type": "uint256"
        },
        {
          "indexed": true,
          "internalType": "address",
          "name": "token",
          "type": "address"
        },
        {
          "indexed": true,
          "internalType": "address",
          "name": "recipient",
          "type": "address"
        },
        {
          "indexed": false,
          "internalType": "uint256",
          "name": "amount",
          "type": "uint256"
        }
      ],
      "name": "ProtocolFeeCharged",
      "type": "event"
    },
    {
      "anonymous": false,
      "inputs": [
        {
          "indexed": true,
          "internalType": "address",
          "name": "admin",
          "type": "address"
        },
        {
          "indexed": false,
          "internalType": "address",
          "name": "oldRecipient",
          "type": "address"
        },
        {
          "indexed": false,
          "internalType": "address",
          "name": "newRecipient",
          "type": "address"
        }
      ],
      "name": "ProtocolFeeRecipientUpdated",
      "type": "event"
    },
    {
      "anonymous": false,
      "inputs": [
        {
          "indexed": true,
          "internalType": "address",
          "name": "admin",
          "type": "address"
        },
        {
          "indexed": false,
          "internalType": "uint256",
          "name": "oldFeeBps",
          "type": "uint256"
        },
        {
          "indexed": false,
          "internalType": "uint256",
          "name": "newFeeBps",
          "type": "uint256"
        }
      ],
      "name": "ProtocolFeeUpdated",
      "type": "event"
    },
    {
      "anonymous": false,
      "inputs": [
        {
          "indexed": true,
          "internalType": "address",
          "name": "admin",
          "type": "address"
        },
        {
          "indexed": true,
          "internalType": "address",
          "name": "token",
          "type": "address"
        },
        {
          "indexed": true,
          "internalType": "address",
          "name": "to",
          "type": "address"
        },
        {
          "indexed": false,
          "internalType": "uint256",
          "name": "amount",
          "type": "uint256"
        }
      ],
      "name": "ProtocolFeeWithdrawn",
      "type": "event"
    },
    {
      "anonymous": false,
      "inputs": [
        {
          "indexed": true,
          "internalType": "bytes32",
          "name": "role",
          "type": "bytes32"
        },
        {
          "indexed": true,
          "internalType": "bytes32",
          "name": "previousAdminRole",
          "type": "bytes32"
        },
        {
          "indexed": true,
          "internalType": "bytes32",
          "name": "newAdminRole",
          "type": "bytes32"
        }
      ],
      "name": "RoleAdminChanged",
      "type": "event"
    },
    {
      "anonymous": false,
      "inputs": [
        {
          "indexed": true,
          "internalType": "bytes32",
          "name": "role",
          "type": "bytes32"
        },
        {
          "indexed": true,
          "internalType": "address",
          "name": "account",
          "type": "address"
        },
        {
          "indexed": true,
          "internalType": "address",
          "name": "sender",
          "type": "address"
        }
      ],
      "name": "RoleGranted",
      "type": "event"
    },
    {
      "anonymous": false,
      "inputs": [
        {
          "indexed": true,
          "internalType": "bytes32",
          "name": "role",
          "type": "bytes32"
        },
        {
          "indexed": true,
          "internalType": "address",
          "name": "account",
          "type": "address"
        },
        {
          "indexed": true,
          "internalType": "address",
          "name": "sender",
          "type": "address"
        }
      ],
      "name": "RoleRevoked",
      "type": "event"
    },
    {
      "anonymous": false,
      "inputs": [
        {
          "indexed": true,
          "internalType": "address",
          "name": "depositor",
          "type": "address"
        },
        {
          "indexed": true,
          "internalType": "address",
          "name": "tokenAddress",
          "type": "address"
        },
        {
          "indexed": false,
          "internalType": "uint256",
          "name": "amount",
          "type": "uint256"
        }
      ],
      "name": "TokenDeposited",
      "type": "event"
    },
    {
      "inputs": [],
      "name": "BPS_DENOMINATOR",
      "outputs": [
        {
          "internalType": "uint256",
          "name": "",
          "type": "uint256"
        }
      ],
      "stateMutability": "view",
      "type": "function"
    },
    {
      "inputs": [],
      "name": "DEFAULT_ADMIN_ROLE",
      "outputs": [
        {
          "internalType": "bytes32",
          "name": "",
          "type": "bytes32"
        }
      ],
      "stateMutability": "view",
      "type": "function"
    },
    {
      "inputs": [],
      "name": "HeroArenaProfileSC",
      "outputs": [
        {
          "internalType": "contract HeroArenaProfileInterface",
          "name": "",
          "type": "address"
        }
      ],
      "stateMutability": "view",
      "type": "function"
    },
    {
      "inputs": [],
      "name": "LIQUIDATOR_ROLE",
      "outputs": [
        {
          "internalType": "bytes32",
          "name": "",
          "type": "bytes32"
        }
      ],
      "stateMutability": "view",
      "type": "function"
    },
    {
      "inputs": [],
      "name": "MAX_PROTOCOL_FEE_BPS",
      "outputs": [
        {
          "internalType": "uint256",
          "name": "",
          "type": "uint256"
        }
      ],
      "stateMutability": "view",
      "type": "function"
    },
    {
      "inputs": [
        {
          "internalType": "address",
          "name": "",
          "type": "address"
        }
      ],
      "name": "accruedProtocolFees",
      "outputs": [
        {
          "internalType": "uint256",
          "name": "",
          "type": "uint256"
        }
      ],
      "stateMutability": "view",
      "type": "function"
    },
    {
      "inputs": [
        {
          "internalType": "address",
          "name": "",
          "type": "address"
        }
      ],
      "name": "allowedBetTokens",
      "outputs": [
        {
          "internalType": "bool",
          "name": "",
          "type": "bool"
        }
      ],
      "stateMutability": "view",
      "type": "function"
    },
    {
      "inputs": [],
      "name": "availableCreateBattle",
      "outputs": [
        {
          "internalType": "bool",
          "name": "",
          "type": "bool"
        }
      ],
      "stateMutability": "view",
      "type": "function"
    },
    {
      "inputs": [],
      "name": "bonusAmount",
      "outputs": [
        {
          "internalType": "uint256",
          "name": "",
          "type": "uint256"
        }
      ],
      "stateMutability": "view",
      "type": "function"
    },
    {
      "inputs": [],
      "name": "bonusToken",
      "outputs": [
        {
          "internalType": "address",
          "name": "",
          "type": "address"
        }
      ],
      "stateMutability": "view",
      "type": "function"
    },
    {
      "inputs": [
        {
          "internalType": "uint256",
          "name": "_battleId",
          "type": "uint256"
        }
      ],
      "name": "closeBattle",
      "outputs": [],
      "stateMutability": "nonpayable",
      "type": "function"
    },
    {
      "inputs": [
        {
          "internalType": "address",
          "name": "_betTokenAddress",
          "type": "address"
        },
        {
          "internalType": "uint256",
          "name": "_betAmount",
          "type": "uint256"
        },
        {
          "internalType": "address",
          "name": "_targetAddress",
          "type": "address"
        }
      ],
      "name": "createBattle",
      "outputs": [],
      "stateMutability": "payable",
      "type": "function"
    },
    {
      "inputs": [
        {
          "internalType": "address",
          "name": "_tokenAddress",
          "type": "address"
        },
        {
          "internalType": "uint256",
          "name": "_amount",
          "type": "uint256"
        }
      ],
      "name": "depositToken",
      "outputs": [],
      "stateMutability": "nonpayable",
      "type": "function"
    },
    {
      "inputs": [
        {
          "internalType": "address",
          "name": "",
          "type": "address"
        }
      ],
      "name": "forbiddenToPlay",
      "outputs": [
        {
          "internalType": "bool",
          "name": "",
          "type": "bool"
        }
      ],
      "stateMutability": "view",
      "type": "function"
    },
    {
      "inputs": [],
      "name": "getBattleCount",
      "outputs": [
        {
          "internalType": "uint256",
          "name": "",
          "type": "uint256"
        }
      ],
      "stateMutability": "view",
      "type": "function"
    },
    {
      "inputs": [
        {
          "internalType": "uint256",
          "name": "_battleId",
          "type": "uint256"
        }
      ],
      "name": "getBattleInfo",
      "outputs": [
        {
          "components": [
            {
              "internalType": "address",
              "name": "selfAddress",
              "type": "address"
            },
            {
              "internalType": "address",
              "name": "targetAddress",
              "type": "address"
            },
            {
              "internalType": "address",
              "name": "betTokenAddress",
              "type": "address"
            },
            {
              "internalType": "uint256",
              "name": "betAmount",
              "type": "uint256"
            },
            {
              "internalType": "uint256",
              "name": "createdAt",
              "type": "uint256"
            },
            {
              "internalType": "address",
              "name": "winner",
              "type": "address"
            },
            {
              "internalType": "bool",
              "name": "isStarted",
              "type": "bool"
            },
            {
              "internalType": "bool",
              "name": "isEnded",
              "type": "bool"
            }
          ],
          "internalType": "struct HeroArenaBattle.BattleInfo",
          "name": "",
          "type": "tuple"
        }
      ],
      "stateMutability": "view",
      "type": "function"
    },
    {
      "inputs": [
        {
          "internalType": "bytes32",
          "name": "role",
          "type": "bytes32"
        }
      ],
      "name": "getRoleAdmin",
      "outputs": [
        {
          "internalType": "bytes32",
          "name": "",
          "type": "bytes32"
        }
      ],
      "stateMutability": "view",
      "type": "function"
    },
    {
      "inputs": [
        {
          "internalType": "bytes32",
          "name": "role",
          "type": "bytes32"
        },
        {
          "internalType": "address",
          "name": "account",
          "type": "address"
        }
      ],
      "name": "grantRole",
      "outputs": [],
      "stateMutability": "nonpayable",
      "type": "function"
    },
    {
      "inputs": [
        {
          "internalType": "bytes32",
          "name": "role",
          "type": "bytes32"
        },
        {
          "internalType": "address",
          "name": "account",
          "type": "address"
        }
      ],
      "name": "hasRole",
      "outputs": [
        {
          "internalType": "bool",
          "name": "",
          "type": "bool"
        }
      ],
      "stateMutability": "view",
      "type": "function"
    },
    {
      "inputs": [
        {
          "internalType": "uint256",
          "name": "_battleId",
          "type": "uint256"
        }
      ],
      "name": "joinExistBattle",
      "outputs": [],
      "stateMutability": "payable",
      "type": "function"
    },
    {
      "inputs": [
        {
          "internalType": "uint256",
          "name": "",
          "type": "uint256"
        }
      ],
      "name": "minBetAmount",
      "outputs": [
        {
          "internalType": "uint256",
          "name": "",
          "type": "uint256"
        }
      ],
      "stateMutability": "view",
      "type": "function"
    },
    {
      "inputs": [
        {
          "internalType": "address",
          "name": "",
          "type": "address"
        }
      ],
      "name": "outstandingBets",
      "outputs": [
        {
          "internalType": "uint256",
          "name": "",
          "type": "uint256"
        }
      ],
      "stateMutability": "view",
      "type": "function"
    },
    {
      "inputs": [],
      "name": "owner",
      "outputs": [
        {
          "internalType": "address",
          "name": "",
          "type": "address"
        }
      ],
      "stateMutability": "view",
      "type": "function"
    },
    {
      "inputs": [],
      "name": "protocolFeeBps",
      "outputs": [
        {
          "internalType": "uint256",
          "name": "",
          "type": "uint256"
        }
      ],
      "stateMutability": "view",
      "type": "function"
    },
    {
      "inputs": [],
      "name": "protocolFeeRecipient",
      "outputs": [
        {
          "internalType": "address",
          "name": "",
          "type": "address"
        }
      ],
      "stateMutability": "view",
      "type": "function"
    },
    {
      "inputs": [],
      "name": "renounceOwnership",
      "outputs": [],
      "stateMutability": "nonpayable",
      "type": "function"
    },
    {
      "inputs": [
        {
          "internalType": "bytes32",
          "name": "role",
          "type": "bytes32"
        },
        {
          "internalType": "address",
          "name": "callerConfirmation",
          "type": "address"
        }
      ],
      "name": "renounceRole",
      "outputs": [],
      "stateMutability": "nonpayable",
      "type": "function"
    },
    {
      "inputs": [
        {
          "internalType": "address",
          "name": "_token",
          "type": "address"
        },
        {
          "internalType": "address",
          "name": "_to",
          "type": "address"
        },
        {
          "internalType": "uint256",
          "name": "_amount",
          "type": "uint256"
        }
      ],
      "name": "rescueExtraTokens",
      "outputs": [],
      "stateMutability": "nonpayable",
      "type": "function"
    },
    {
      "inputs": [
        {
          "internalType": "bytes32",
          "name": "role",
          "type": "bytes32"
        },
        {
          "internalType": "address",
          "name": "account",
          "type": "address"
        }
      ],
      "name": "revokeRole",
      "outputs": [],
      "stateMutability": "nonpayable",
      "type": "function"
    },
    {
      "inputs": [
        {
          "internalType": "uint256",
          "name": "_bps",
          "type": "uint256"
        }
      ],
      "name": "setProtocolFee",
      "outputs": [],
      "stateMutability": "nonpayable",
      "type": "function"
    },
    {
      "inputs": [
        {
          "internalType": "address",
          "name": "_recipient",
          "type": "address"
        }
      ],
      "name": "setProtocolFeeRecipient",
      "outputs": [],
      "stateMutability": "nonpayable",
      "type": "function"
    },
    {
      "inputs": [
        {
          "internalType": "uint256",
          "name": "_battleId",
          "type": "uint256"
        },
        {
          "internalType": "address",
          "name": "_winner",
          "type": "address"
        }
      ],
      "name": "settleBattle",
      "outputs": [],
      "stateMutability": "nonpayable",
      "type": "function"
    },
    {
      "inputs": [
        {
          "internalType": "bytes4",
          "name": "interfaceId",
          "type": "bytes4"
        }
      ],
      "name": "supportsInterface",
      "outputs": [
        {
          "internalType": "bool",
          "name": "",
          "type": "bool"
        }
      ],
      "stateMutability": "view",
      "type": "function"
    },
    {
      "inputs": [
        {
          "internalType": "address",
          "name": "newOwner",
          "type": "address"
        }
      ],
      "name": "transferOwnership",
      "outputs": [],
      "stateMutability": "nonpayable",
      "type": "function"
    },
    {
      "inputs": [
        {
          "internalType": "address",
          "name": "_token",
          "type": "address"
        },
        {
          "internalType": "bool",
          "name": "_allowed",
          "type": "bool"
        }
      ],
      "name": "updateAllowedBetToken",
      "outputs": [],
      "stateMutability": "nonpayable",
      "type": "function"
    },
    {
      "inputs": [
        {
          "internalType": "bool",
          "name": "_isAvailable",
          "type": "bool"
        }
      ],
      "name": "updateAvailableCreateBattle",
      "outputs": [],
      "stateMutability": "nonpayable",
      "type": "function"
    },
    {
      "inputs": [
        {
          "internalType": "address",
          "name": "_bonusToken",
          "type": "address"
        },
        {
          "internalType": "uint256",
          "name": "_bonusAmount",
          "type": "uint256"
        }
      ],
      "name": "updateBonusToken",
      "outputs": [],
      "stateMutability": "nonpayable",
      "type": "function"
    },
    {
      "inputs": [
        {
          "internalType": "address",
          "name": "_user",
          "type": "address"
        },
        {
          "internalType": "bool",
          "name": "_isForbidden",
          "type": "bool"
        }
      ],
      "name": "updateForbiddenToPlay",
      "outputs": [],
      "stateMutability": "nonpayable",
      "type": "function"
    },
    {
      "inputs": [
        {
          "internalType": "uint256",
          "name": "_amount0",
          "type": "uint256"
        },
        {
          "internalType": "uint256",
          "name": "_amount1",
          "type": "uint256"
        }
      ],
      "name": "updateMinimumBetTokenAmount",
      "outputs": [],
      "stateMutability": "nonpayable",
      "type": "function"
    },
    {
      "inputs": [
        {
          "internalType": "address",
          "name": "_token",
          "type": "address"
        },
        {
          "internalType": "address",
          "name": "_to",
          "type": "address"
        },
        {
          "internalType": "uint256",
          "name": "_amount",
          "type": "uint256"
        }
      ],
      "name": "withdrawProtocolFees",
      "outputs": [],
      "stateMutability": "nonpayable",
      "type": "function"
    },
    {
      "stateMutability": "payable",
      "type": "receive"
    }
  ],
  "bytecode": "0x60a060405234801561000f575f5ffd5b506040516129e03803806129e083398101604081905261002e91610180565b338061005357604051631e4fbdf760e01b81525f600482015260240160405180910390fd5b61005c8161009f565b5060017f9b779b17422d0df92223018b32b4d1fa46e071723d6817e2486d003becc55f00556001600160a01b0381166080526100985f336100ee565b50506101ad565b5f80546001600160a01b038381166001600160a01b0319831681178455604051919092169283917f8be0079c531659141344cd1fd0a4f28419497f9722a3daafe3b4186f6b6457e09190a35050565b5f8281526001602090815260408083206001600160a01b038516845290915281205460ff16610177575f8381526001602081815260408084206001600160a01b0387168086529252808420805460ff19169093179092559051339286917f2f8788117e7eff1d82e926ec794901d17c78024a50270940304540a733656f0d9190a450600161017a565b505f5b92915050565b5f60208284031215610190575f5ffd5b81516001600160a01b03811681146101a6575f5ffd5b9392505050565b60805161280d6101d35f395f818161030701528181610f9d0152611337015261280d5ff3fe608060405260043610610236575f3560e01c8063715018a611610129578063ab934563116100a8578063e1a452181161006d578063e1a45218146107a6578063e521cb92146107bb578063e84d8880146107da578063f2fde38b146107f9578063f470d5ec14610818575f5ffd5b8063ab93456314610642578063abadaf9a14610661578063c0a6e9d714610676578063d547741f14610768578063dd5e1a6a14610787575f5ffd5b80638da5cb5b116100ee5780638da5cb5b146105aa5780638fff0a5f146105c657806391d14854146105e5578063a217fddf14610604578063a641fc8514610617575f5ffd5b8063715018a61461051a57806374ec50031461052e578063769a9f1314610541578063787dce3d146105605780638a3759931461057f575f5ffd5b806336568abe116101b55780635a0d00b71161017a5780635a0d00b71461046b5780636268824c1461049957806364df049e146104c75780636d947e4b146104e65780636f7f7036146104fb575f5ffd5b806336568abe146103e25780633d512514146104015780633e5e5d851461042057806341d4a1ab146104395780634d44dd7114610458575f5ffd5b8063248a9ca3116101fb578063248a9ca31461034157806326cd774d146103705780632f2ff15d1461038f578063338b5dea146103ae57806335659fb8146103cd575f5ffd5b806301ffc9a71461024157806306341c92146102755780631205dc6f1461029657806316d8887a146102b55780631a660278146102f6575f5ffd5b3661023d57005b5f5ffd5b34801561024c575f5ffd5b5061026061025b366004612459565b61082c565b60405190151581526020015b60405180910390f35b348015610280575f5ffd5b5061029461028f36600461249b565b610862565b005b3480156102a1575f5ffd5b506102946102b03660046124c3565b6108cd565b3480156102c0575f5ffd5b506102e87f5e17fc5225d4a099df75359ce1f405503ca79498a8dc46a7d583235a0ee45c1681565b60405190815260200161026c565b348015610301575f5ffd5b506103297f000000000000000000000000000000000000000000000000000000000000000081565b6040516001600160a01b03909116815260200161026c565b34801561034c575f5ffd5b506102e861035b3660046124e3565b5f908152600160208190526040909120015490565b34801561037b575f5ffd5b5061029461038a3660046124fa565b610917565b34801561039a575f5ffd5b506102946103a93660046124fa565b610d1c565b3480156103b9575f5ffd5b506102946103c836600461249b565b610d47565b3480156103d8575f5ffd5b506102e8600b5481565b3480156103ed575f5ffd5b506102946103fc3660046124fa565b610da9565b34801561040c575f5ffd5b5061029461041b366004612524565b610de1565b34801561042b575f5ffd5b506004546102609060ff1681565b348015610444575f5ffd5b50600754610329906001600160a01b031681565b6102946104663660046124e3565b610f80565b348015610476575f5ffd5b5061026061048536600461255e565b60036020525f908152604090205460ff1681565b3480156104a4575f5ffd5b506102606104b336600461255e565b60026020525f908152604090205460ff1681565b3480156104d2575f5ffd5b50600c54610329906001600160a01b031681565b3480156104f1575f5ffd5b506102e86103e881565b348015610506575f5ffd5b50610294610515366004612584565b6112b6565b348015610525575f5ffd5b50610294611307565b61029461053c36600461259f565b61131a565b34801561054c575f5ffd5b5061029461055b3660046124e3565b61160d565b34801561056b575f5ffd5b5061029461057a3660046124e3565b6117b3565b34801561058a575f5ffd5b506102e861059936600461255e565b600e6020525f908152604090205481565b3480156105b5575f5ffd5b505f546001600160a01b0316610329565b3480156105d1575f5ffd5b506102e86105e03660046124e3565b61183f565b3480156105f0575f5ffd5b506102606105ff3660046124fa565b611855565b34801561060f575f5ffd5b506102e85f81565b348015610622575f5ffd5b506102e861063136600461255e565b600d6020525f908152604090205481565b34801561064d575f5ffd5b5061029461065c366004612524565b61187f565b34801561066c575f5ffd5b506102e860085481565b348015610681575f5ffd5b5061075b6106903660046124e3565b60408051610100810182525f80825260208201819052918101829052606081018290526080810182905260a0810182905260c0810182905260e0810191909152505f9081526009602090815260409182902082516101008101845281546001600160a01b0390811682526001830154811693820193909352600282015483169381019390935260038101546060840152600481015460808401526005015490811660a083015260ff600160a01b82048116151560c0840152600160a81b90910416151560e082015290565b60405161026c91906125d8565b348015610773575f5ffd5b506102946107823660046124fa565b611aeb565b348015610792575f5ffd5b506102946107a1366004612655565b611b10565b3480156107b1575f5ffd5b506102e861271081565b3480156107c6575f5ffd5b506102946107d536600461255e565b611b71565b3480156107e5575f5ffd5b506102946107f4366004612655565b611bd5565b348015610804575f5ffd5b5061029461081336600461255e565b611c36565b348015610823575f5ffd5b50600a546102e8565b5f6001600160e01b03198216637965db0b60e01b148061085c57506301ffc9a760e01b6001600160e01b03198316145b92915050565b61086a611c70565b600780546001600160a01b0319166001600160a01b0384169081179091556008829055604080519182526020820183905233917f26b15264aeebd58698521d894ef6715608f8eb98de99428ec2ca59990af3a06591015b60405180910390a25050565b6108d5611c70565b60058290556006819055604080518381526020810183905233917f7b35f7b073fcb7e4ebc6ef7520319b025e4c183eb62538b956eac7ff98d1e21a91016108c1565b61091f611c9c565b7f5e17fc5225d4a099df75359ce1f405503ca79498a8dc46a7d583235a0ee45c1661094981611cb7565b5f83815260096020526040902080546001600160a01b03166109865760405162461bcd60e51b815260040161097d9061268a565b60405180910390fd5b6005810154600160a81b900460ff16156109b25760405162461bcd60e51b815260040161097d906126b9565b6005810154600160a01b900460ff16610a0d5760405162461bcd60e51b815260206004820152601760248201527f4f70706f6e656e7420686173206e6f74206a6f696e6564000000000000000000604482015260640161097d565b80546001600160a01b0384811691161480610a37575060018101546001600160a01b038481169116145b610a7c5760405162461bcd60e51b8152602060048201526016602482015275496e76616c69642077696e6e6572206164647265737360501b604482015260640161097d565b600581018054600161ff0160a01b0319166001600160a01b03851617600160a81b17905560038101545f90610ab29060026126fb565b60028301546001600160a01b03165f908152600e6020526040812080549293508392909190610ae2908490612712565b9091555050600b548015610c08575f612710610afe83856126fb565b610b089190612725565b90508015610c0657610b1a8184612712565b600c549093506001600160a01b03168015610b8b5760028501545f90610b4a906001600160a01b03168385611cc1565b905080610b855760028601546001600160a01b03165f908152600d602052604081208054859290610b7c908490612744565b909155505f9250505b50610bbc565b60028501546001600160a01b03165f908152600d602052604081208054849290610bb6908490612744565b90915550505b60028501546040518381526001600160a01b038381169216908a907f1a27391d7ea91799390a950922a6641997d06c7642e26008ce4fb672782bf8fc9060200160405180910390a4505b505b6002830154610c21906001600160a01b03168684611e00565b6007546008546001600160a01b03909116908015801590610c4a57506001600160a01b03821615155b15610cb8575f610c5b838984611cc1565b9050826001600160a01b0316886001600160a01b03168a7f661e5716f3825a992c4dd146d11dacbb5a8d9657b57374c51a47dea312ae3dd58585604051610cae9291909182521515602082015260400190565b60405180910390a4505b866001600160a01b0316887fdf7b857ba126023b898186dc0a6f9be4ec90086bf1fb2fabd865708c6b4fb5ae86604051610cf491815260200190565b60405180910390a3505050505050610d1860015f5160206127b85f395f51905f5255565b5050565b5f8281526001602081905260409091200154610d3781611cb7565b610d418383611eb7565b50505050565b610d4f611c70565b610d646001600160a01b038316333084611f2d565b6040518181526001600160a01b0383169033907ff1444b5cad7ce70cb018d1b8edc8618fe303f3c7f034d8d572a6e27facbf2bef906020015b60405180910390a35050565b6001600160a01b0381163314610dd25760405163334bd91960e11b815260040160405180910390fd5b610ddc8282611f63565b505050565b610de9611c70565b610df1611c9c565b6001600160a01b038216610e395760405162461bcd60e51b815260206004820152600f60248201526e496e76616c6964206164647265737360881b604482015260640161097d565b5f8111610e7d5760405162461bcd60e51b81526020600482015260126024820152710416d6f756e74206d757374206265203e20360741b604482015260640161097d565b6001600160a01b0383165f908152600d602052604090205480821115610ee55760405162461bcd60e51b815260206004820152601b60248201527f416d6f756e742065786365656473206163637275656420666565730000000000604482015260640161097d565b610eef8282612712565b6001600160a01b0385165f908152600d6020526040902055610f12848484611e00565b826001600160a01b0316846001600160a01b0316336001600160a01b03167f17a428cd5e6884e6d3523af964c50b79899a76e82f82b1c8dcda98d04cd3daa585604051610f6191815260200190565b60405180910390a450610ddc60015f5160206127b85f395f51905f5255565b610f88611c9c565b6040516350681a9360e11b81523360048201527f00000000000000000000000000000000000000000000000000000000000000006001600160a01b03169063a0d0352690602401602060405180830381865afa158015610fea573d5f5f3e3d5ffd5b505050506040513d601f19601f8201168201806040525081019061100e9190612757565b6110535760405162461bcd60e51b8152602060048201526016602482015275141c9bd99a5b19481b9bdd081c9959da5cdd195c995960521b604482015260640161097d565b335f9081526003602052604090205460ff16156110a65760405162461bcd60e51b8152602060048201526011602482015270466f7262696464656e20746f20706c617960781b604482015260640161097d565b5f81815260096020526040902080546001600160a01b03166110da5760405162461bcd60e51b815260040161097d9061268a565b6005810154600160a01b900460ff16156111365760405162461bcd60e51b815260206004820152601e60248201527f426174746c6520616c72656164792068617320616e206f70706f6e656e740000604482015260640161097d565b6005810154600160a81b900460ff16156111625760405162461bcd60e51b815260040161097d906126b9565b8054336001600160a01b03909116036111b65760405162461bcd60e51b815260206004820152601660248201527543616e6e6f74206a6f696e206f776e20626174746c6560501b604482015260640161097d565b60018101546001600160a01b031615806111dc575060018101546001600160a01b031633145b6112285760405162461bcd60e51b815260206004820152601a60248201527f4e6f7420696e766974656420746f207468697320626174746c65000000000000604482015260640161097d565b60028101546003820154611246916001600160a01b03169033611fce565b60058101805460ff60a01b1916600160a01b1790556001810180546001600160a01b0319163390811790915560405183907f8c6accc40f0b31b2b4fa26bce8f25592cedbe9e9a6a9323b56188d02eceed53d905f90a3506112b360015f5160206127b85f395f51905f5255565b50565b6112be611c70565b6004805460ff191682151590811790915560405190815233907f5965995208a5faeddabdc5ba76a95121667747c41b83e5a07c4c3feb06b347af9060200160405180910390a250565b61130f611c70565b6113185f61229e565b565b611322611c9c565b6040516350681a9360e11b81523360048201527f00000000000000000000000000000000000000000000000000000000000000006001600160a01b03169063a0d0352690602401602060405180830381865afa158015611384573d5f5f3e3d5ffd5b505050506040513d601f19601f820116820180604052508101906113a89190612757565b6113ed5760405162461bcd60e51b8152602060048201526016602482015275141c9bd99a5b19481b9bdd081c9959da5cdd195c995960521b604482015260640161097d565b335f9081526003602052604090205460ff16156114405760405162461bcd60e51b8152602060048201526011602482015270466f7262696464656e20746f20706c617960781b604482015260640161097d565b60045460ff166114895760405162461bcd60e51b815260206004820152601460248201527343616e6e6f742063726561746520626174746c6560601b604482015260640161097d565b336001600160a01b038216036114da5760405162461bcd60e51b815260206004820152601660248201527521b0b73737ba103a30b933b2ba103cb7bab939b2b63360511b604482015260640161097d565b6001600160a01b0383165f9081526002602052604090205460ff166115355760405162461bcd60e51b8152602060048201526011602482015270151bdad95b881b9bdd08185b1b1bddd959607a1b604482015260640161097d565b611540838333611fce565b5f600a5f815461154f90612772565b91829055505f818152600960209081526040918290208054336001600160a01b03199182168117835560018301805483166001600160a01b038a8116918217909255600285018054909416918c16918217909355600384018a90554260048501558551928352938201939093529283018790529293509083907fed66efe6d9e691dcdc3742d4579ed070fdddd3fbbe5b79d9f02d46bfdadc1e4a9060600160405180910390a35050610ddc60015f5160206127b85f395f51905f5255565b611615611c9c565b7f5e17fc5225d4a099df75359ce1f405503ca79498a8dc46a7d583235a0ee45c1661163f81611cb7565b5f82815260096020526040902080546001600160a01b03166116735760405162461bcd60e51b815260040161097d9061268a565b6005810154600160a81b900460ff161561169f5760405162461bcd60e51b815260040161097d906126b9565b6005810154600160a01b900460ff16156116fb5760405162461bcd60e51b815260206004820152601e60248201527f426174746c6520616c72656164792068617320616e206f70706f6e656e740000604482015260640161097d565b60058101805460ff60a81b1916600160a81b179055600381015460028201546001600160a01b03165f908152600e602052604081208054839290611740908490612712565b909155505060028201548254611763916001600160a01b03908116911683611e00565b604051818152339085907f487e0827fccc2aa300c6f7990f52de8ed400a8b510b689dfa5812fa9c6fe02529060200160405180910390a35050506112b360015f5160206127b85f395f51905f5255565b6117bb611c70565b6103e88111156117ff5760405162461bcd60e51b815260206004820152600f60248201526e046656520657863656564732063617608c1b604482015260640161097d565b600b805490829055604080518281526020810184905233917f28038ed711d3e645574200f09a81d028ed70493c3a6c8c644a0260073fa89c7691016108c1565b6005816002811061184e575f80fd5b0154905081565b5f9182526001602090815260408084206001600160a01b0393909316845291905290205460ff1690565b611887611c70565b61188f611c9c565b6001600160a01b0382166118d75760405162461bcd60e51b815260206004820152600f60248201526e496e76616c6964206164647265737360881b604482015260640161097d565b5f811161191b5760405162461bcd60e51b81526020600482015260126024820152710416d6f756e74206d757374206265203e20360741b604482015260640161097d565b5f6001600160a01b03841615611996576040516370a0823160e01b81523060048201526001600160a01b038516906370a0823190602401602060405180830381865afa15801561196d573d5f5f3e3d5ffd5b505050506040513d601f19601f82011682018060405250810190611991919061278a565b611998565b475b6001600160a01b0385165f908152600d6020908152604080832054600e90925282205492935090916119ca9190612744565b905080821015611a135760405162461bcd60e51b81526020600482015260146024820152734163636f756e74696e6720756e646572666c6f7760601b604482015260640161097d565b5f611a1e8284612712565b905080841115611a705760405162461bcd60e51b815260206004820181905260248201527f416d6f756e74206578636565647320726573637561626c652062616c616e6365604482015260640161097d565b611a7b868686611e00565b846001600160a01b0316866001600160a01b0316336001600160a01b03167f1d702a995ea42ead328cdbb2ca2718976144bf94d31a4a99c4cee1bdcb03e9ce87604051611aca91815260200190565b60405180910390a4505050610ddc60015f5160206127b85f395f51905f5255565b5f8281526001602081905260409091200154611b0681611cb7565b610d418383611f63565b611b18611c70565b6001600160a01b0382165f81815260026020908152604091829020805460ff1916851515908117909155915191825233917f9e55f2f091c6d29778ac12302ceed27e7da06bfd55d75e9ce35598c62bb1425c9101610d9d565b611b79611c70565b600c80546001600160a01b038381166001600160a01b0319831681179093556040805191909216808252602082019390935233917f63744e6ffcf99c3499756ec1eb99650e6c5c315b6ef03f0e68e69c32d8e3041a91016108c1565b611bdd611c70565b6001600160a01b0382165f81815260036020908152604091829020805460ff1916851515908117909155915191825233917f01ac3c587efb27e15198ba5605bef45b7d920fb66f73fe76125d4623e635878d9101610d9d565b611c3e611c70565b6001600160a01b038116611c6757604051631e4fbdf760e01b81525f600482015260240161097d565b6112b38161229e565b5f546001600160a01b031633146113185760405163118cdaa760e01b815233600482015260240161097d565b611ca46122ed565b60025f5160206127b85f395f51905f5255565b6112b3813361231c565b5f6001600160a01b038416611d26576040516001600160a01b0384169083905f81818185875af1925050503d805f8114611d16576040519150601f19603f3d011682016040523d82523d5f602084013e611d1b565b606091505b505080915050611df9565b604080516001600160a01b038581166024830152604480830186905283518084039091018152606490920183526020820180516001600160e01b031663a9059cbb60e01b179052915190915f918291881690611d839085906127a1565b5f604051808303815f865af19150503d805f8114611dbc576040519150601f19603f3d011682016040523d82523d5f602084013e611dc1565b606091505b509150915081611dd6575f9350505050611df9565b80511580611df3575080806020019051810190611df39190612757565b93505050505b9392505050565b6001600160a01b038316611ea3575f826001600160a01b0316826040515f6040518083038185875af1925050503d805f8114611e57576040519150601f19603f3d011682016040523d82523d5f602084013e611e5c565b606091505b5050905080610d415760405162461bcd60e51b8152602060048201526013602482015272115512081d1c985b9cd9995c8819985a5b1959606a1b604482015260640161097d565b610ddc6001600160a01b0384168383612355565b5f611ec28383611855565b611f26575f8381526001602081815260408084206001600160a01b0387168086529252808420805460ff19169093179092559051339286917f2f8788117e7eff1d82e926ec794901d17c78024a50270940304540a733656f0d9190a450600161085c565b505f61085c565b611f3b84848484600161238a565b610d4157604051635274afe760e01b81526001600160a01b038516600482015260240161097d565b5f611f6e8383611855565b15611f26575f8381526001602090815260408083206001600160a01b0386168085529252808320805460ff1916905551339286917ff6391f5c32d9c69d2a47ea670b442974b53935d1edc7fd64eb21e047a839171b9190a450600161085c565b6001600160a01b03831661207d576005548210156120295760405162461bcd60e51b815260206004820152601860248201527742657420616d6f756e742062656c6f77206d696e696d756d60401b604482015260640161097d565b8134146120785760405162461bcd60e51b815260206004820152601960248201527f496e636f72726563742045544820616d6f756e742073656e7400000000000000604482015260640161097d565b61226d565b34156120cb5760405162461bcd60e51b815260206004820152601e60248201527f455448206e6f7420616363657074656420666f72204552433230206265740000604482015260640161097d565b6006548210156121185760405162461bcd60e51b815260206004820152601860248201527742657420616d6f756e742062656c6f77206d696e696d756d60401b604482015260640161097d565b6040516370a0823160e01b81523060048201525f906001600160a01b038516906370a0823190602401602060405180830381865afa15801561215c573d5f5f3e3d5ffd5b505050506040513d601f19601f82011682018060405250810190612180919061278a565b90506121976001600160a01b038516833086611f2d565b6040516370a0823160e01b81523060048201525f9082906001600160a01b038716906370a0823190602401602060405180830381865afa1580156121dd573d5f5f3e3d5ffd5b505050506040513d601f19601f82011682018060405250810190612201919061278a565b61220b9190612712565b905083811461226a5760405162461bcd60e51b815260206004820152602560248201527f546f6b656e206e6f7420737570706f7274656420286665652d6f6e2d7472616e604482015264736665722960d81b606482015260840161097d565b50505b6001600160a01b0383165f908152600e602052604081208054849290612294908490612744565b9091555050505050565b5f80546001600160a01b038381166001600160a01b0319831681178455604051919092169283917f8be0079c531659141344cd1fd0a4f28419497f9722a3daafe3b4186f6b6457e09190a35050565b5f5160206127b85f395f51905f525460020361131857604051633ee5aeb560e01b815260040160405180910390fd5b6123268282611855565b610d185760405163e2517d3f60e01b81526001600160a01b03821660048201526024810183905260440161097d565b61236283838360016123f7565b610ddc57604051635274afe760e01b81526001600160a01b038416600482015260240161097d565b6040516323b872dd60e01b5f8181526001600160a01b038781166004528616602452604485905291602083606481808c5af1925060015f511483166123e65783831516156123da573d5f823e3d81fd5b5f883b113d1516831692505b604052505f60605295945050505050565b60405163a9059cbb60e01b5f8181526001600160a01b038616600452602485905291602083604481808b5af1925060015f5114831661244d578383151615612441573d5f823e3d81fd5b5f873b113d1516831692505b60405250949350505050565b5f60208284031215612469575f5ffd5b81356001600160e01b031981168114611df9575f5ffd5b80356001600160a01b0381168114612496575f5ffd5b919050565b5f5f604083850312156124ac575f5ffd5b6124b583612480565b946020939093013593505050565b5f5f604083850312156124d4575f5ffd5b50508035926020909101359150565b5f602082840312156124f3575f5ffd5b5035919050565b5f5f6040838503121561250b575f5ffd5b8235915061251b60208401612480565b90509250929050565b5f5f5f60608486031215612536575f5ffd5b61253f84612480565b925061254d60208501612480565b929592945050506040919091013590565b5f6020828403121561256e575f5ffd5b611df982612480565b80151581146112b3575f5ffd5b5f60208284031215612594575f5ffd5b8135611df981612577565b5f5f5f606084860312156125b1575f5ffd5b6125ba84612480565b9250602084013591506125cf60408501612480565b90509250925092565b81516001600160a01b039081168252602080840151821690830152604080840151821690830152606080840151908301526080808401519083015260a080840151918216908301526101008201905060c083015161263a60c084018215159052565b5060e083015161264e60e084018215159052565b5092915050565b5f5f60408385031215612666575f5ffd5b61266f83612480565b9150602083013561267f81612577565b809150509250929050565b60208082526015908201527410985d1d1b1948191bd95cc81b9bdd08195e1a5cdd605a1b604082015260600190565b60208082526014908201527310985d1d1b1948185b1c9958591e48195b99195960621b604082015260600190565b634e487b7160e01b5f52601160045260245ffd5b808202811582820484141761085c5761085c6126e7565b8181038181111561085c5761085c6126e7565b5f8261273f57634e487b7160e01b5f52601260045260245ffd5b500490565b8082018082111561085c5761085c6126e7565b5f60208284031215612767575f5ffd5b8151611df981612577565b5f60018201612783576127836126e7565b5060010190565b5f6020828403121561279a575f5ffd5b5051919050565b5f82518060208501845e5f92019182525091905056fe9b779b17422d0df92223018b32b4d1fa46e071723d6817e2486d003becc55f00a264697066735822122033c971d0fcecf62c98e3c0a0c4d0d0d3e0dab67fe5e3ffbf4782ab2c047e829864736f6c634300081d0033",
  "linkReferences": {},
  "deployedLinkReferences": {},
  "immutableReferences": {
    "1485": [
      {
        "length": 32,
        "start": 775
      },
      {
        "length": 32,
        "start": 3997
      },
      {
        "length": 32,
        "start": 4919
      }
    ]
  },
  "inputSourceName": "project/contracts/HeroArenaBattle.sol",
  "buildInfoId": "solc-0_8_29-ce3d29ac3d03041f9afcddf43d42a34b1acc29f2"
}