{
  "_format": "hh3-artifact-1",
  "contractName": "HeroArenaChallenges",
  "sourceName": "contracts/HeroArenaChallenges.sol",
  "abi": [
    {
      "inputs": [],
      "stateMutability": "nonpayable",
      "type": "constructor"
    },
    {
      "inputs": [],
      "name": "AccessControlBadConfirmation",
      "type": "error"
    },
    {
      "inputs": [
        {
          "internalType": "address",
          "name": "account",
          "type": "address"
        },
        {
          "internalType": "bytes32",
          "name": "neededRole",
          "type": "bytes32"
        }
      ],
      "name": "AccessControlUnauthorizedAccount",
      "type": "error"
    },
    {
      "anonymous": false,
      "inputs": [
        {
          "indexed": true,
          "internalType": "bytes32",
          "name": "role",
          "type": "bytes32"
        },
        {
          "indexed": true,
          "internalType": "bytes32",
          "name": "previousAdminRole",
          "type": "bytes32"
        },
        {
          "indexed": true,
          "internalType": "bytes32",
          "name": "newAdminRole",
          "type": "bytes32"
        }
      ],
      "name": "RoleAdminChanged",
      "type": "event"
    },
    {
      "anonymous": false,
      "inputs": [
        {
          "indexed": true,
          "internalType": "bytes32",
          "name": "role",
          "type": "bytes32"
        },
        {
          "indexed": true,
          "internalType": "address",
          "name": "account",
          "type": "address"
        },
        {
          "indexed": true,
          "internalType": "address",
          "name": "sender",
          "type": "address"
        }
      ],
      "name": "RoleGranted",
      "type": "event"
    },
    {
      "anonymous": false,
      "inputs": [
        {
          "indexed": true,
          "internalType": "bytes32",
          "name": "role",
          "type": "bytes32"
        },
        {
          "indexed": true,
          "internalType": "address",
          "name": "account",
          "type": "address"
        },
        {
          "indexed": true,
          "internalType": "address",
          "name": "sender",
          "type": "address"
        }
      ],
      "name": "RoleRevoked",
      "type": "event"
    },
    {
      "inputs": [],
      "name": "CHALLENGE_ADMIN_ROLE",
      "outputs": [
        {
          "internalType": "bytes32",
          "name": "",
          "type": "bytes32"
        }
      ],
      "stateMutability": "view",
      "type": "function"
    },
    {
      "inputs": [],
      "name": "DEFAULT_ADMIN_ROLE",
      "outputs": [
        {
          "internalType": "bytes32",
          "name": "",
          "type": "bytes32"
        }
      ],
      "stateMutability": "view",
      "type": "function"
    },
    {
      "inputs": [
        {
          "internalType": "uint256[]",
          "name": "_challengeIds",
          "type": "uint256[]"
        }
      ],
      "name": "getLevelIdBatch",
      "outputs": [
        {
          "internalType": "uint8[]",
          "name": "",
          "type": "uint8[]"
        }
      ],
      "stateMutability": "view",
      "type": "function"
    },
    {
      "inputs": [
        {
          "internalType": "uint8[]",
          "name": "_Ids",
          "type": "uint8[]"
        }
      ],
      "name": "getLevelNameAndPointsBatch",
      "outputs": [
        {
          "internalType": "string[]",
          "name": "",
          "type": "string[]"
        },
        {
          "internalType": "uint256[]",
          "name": "",
          "type": "uint256[]"
        }
      ],
      "stateMutability": "view",
      "type": "function"
    },
    {
      "inputs": [
        {
          "internalType": "uint8",
          "name": "_lvId",
          "type": "uint8"
        }
      ],
      "name": "getLevelRewardPoints",
      "outputs": [
        {
          "internalType": "uint256",
          "name": "",
          "type": "uint256"
        }
      ],
      "stateMutability": "view",
      "type": "function"
    },
    {
      "inputs": [
        {
          "internalType": "bytes32",
          "name": "role",
          "type": "bytes32"
        }
      ],
      "name": "getRoleAdmin",
      "outputs": [
        {
          "internalType": "bytes32",
          "name": "",
          "type": "bytes32"
        }
      ],
      "stateMutability": "view",
      "type": "function"
    },
    {
      "inputs": [
        {
          "internalType": "address",
          "name": "_to",
          "type": "address"
        },
        {
          "internalType": "uint8",
          "name": "_lvId",
          "type": "uint8"
        }
      ],
      "name": "getSubmitStatus",
      "outputs": [
        {
          "internalType": "bool",
          "name": "",
          "type": "bool"
        }
      ],
      "stateMutability": "view",
      "type": "function"
    },
    {
      "inputs": [
        {
          "internalType": "bytes32",
          "name": "role",
          "type": "bytes32"
        },
        {
          "internalType": "address",
          "name": "account",
          "type": "address"
        }
      ],
      "name": "grantRole",
      "outputs": [],
      "stateMutability": "nonpayable",
      "type": "function"
    },
    {
      "inputs": [
        {
          "internalType": "bytes32",
          "name": "role",
          "type": "bytes32"
        },
        {
          "internalType": "address",
          "name": "account",
          "type": "address"
        }
      ],
      "name": "hasRole",
      "outputs": [
        {
          "internalType": "bool",
          "name": "",
          "type": "bool"
        }
      ],
      "stateMutability": "view",
      "type": "function"
    },
    {
      "inputs": [
        {
          "internalType": "uint8",
          "name": "",
          "type": "uint8"
        }
      ],
      "name": "lvCount",
      "outputs": [
        {
          "internalType": "uint256",
          "name": "",
          "type": "uint256"
        }
      ],
      "stateMutability": "view",
      "type": "function"
    },
    {
      "inputs": [
        {
          "internalType": "bytes32",
          "name": "role",
          "type": "bytes32"
        },
        {
          "internalType": "address",
          "name": "callerConfirmation",
          "type": "address"
        }
      ],
      "name": "renounceRole",
      "outputs": [],
      "stateMutability": "nonpayable",
      "type": "function"
    },
    {
      "inputs": [
        {
          "internalType": "bytes32",
          "name": "role",
          "type": "bytes32"
        },
        {
          "internalType": "address",
          "name": "account",
          "type": "address"
        }
      ],
      "name": "revokeRole",
      "outputs": [],
      "stateMutability": "nonpayable",
      "type": "function"
    },
    {
      "inputs": [
        {
          "internalType": "uint8",
          "name": "_lvId",
          "type": "uint8"
        },
        {
          "internalType": "string",
          "name": "_lvName",
          "type": "string"
        },
        {
          "internalType": "uint256",
          "name": "_lvPts",
          "type": "uint256"
        }
      ],
      "name": "setLevelNameAndRewardPoints",
      "outputs": [],
      "stateMutability": "nonpayable",
      "type": "function"
    },
    {
      "inputs": [
        {
          "internalType": "address",
          "name": "_to",
          "type": "address"
        },
        {
          "internalType": "uint8",
          "name": "_lvId",
          "type": "uint8"
        }
      ],
      "name": "submit",
      "outputs": [
        {
          "internalType": "uint256",
          "name": "",
          "type": "uint256"
        }
      ],
      "stateMutability": "nonpayable",
      "type": "function"
    },
    {
      "inputs": [
        {
          "internalType": "bytes4",
          "name": "interfaceId",
          "type": "bytes4"
        }
      ],
      "name": "supportsInterface",
      "outputs": [
        {
          "internalType": "bool",
          "name": "",
          "type": "bool"
        }
      ],
      "stateMutability": "view",
      "type": "function"
    }
  ],
  "bytecode": "0x6080604052348015600e575f5ffd5b5060175f33601c565b5060c2565b5f828152602081815260408083206001600160a01b038516845290915281205460ff1660b9575f838152602081815260408083206001600160a01b03861684529091529020805460ff1916600117905560723390565b6001600160a01b0316826001600160a01b0316847f2f8788117e7eff1d82e926ec794901d17c78024a50270940304540a733656f0d60405160405180910390a450600160bc565b505f5b92915050565b610eb7806100cf5f395ff3fe608060405234801561000f575f5ffd5b50600436106100f0575f3560e01c80639ce4cf9911610093578063b60ba11211610063578063b60ba11214610252578063ba99690f14610272578063d547741f14610285578063f88bd84814610298575f5ffd5b80639ce4cf99146101e35780639f202a381461020a578063a217fddf14610229578063afed397114610230575f5ffd5b806332872ca7116100ce57806332872ca71461016157806336568abe1461019c5780633839cdc9146101af57806391d14854146101d0575f5ffd5b806301ffc9a7146100f4578063248a9ca31461011c5780632f2ff15d1461014c575b5f5ffd5b610107610102366004610a07565b6102ab565b60405190151581526020015b60405180910390f35b61013e61012a366004610a35565b5f9081526020819052604090206001015490565b604051908152602001610113565b61015f61015a366004610a67565b6102e1565b005b61010761016f366004610aa1565b6001600160a01b03919091165f90815260036020908152604080832060ff94851684529091529020541690565b61015f6101aa366004610a67565b61030b565b6101c26101bd366004610b0a565b610343565b604051610113929190610b83565b6101076101de366004610a67565b61058e565b61013e7f417473bd65d0115cf4a47eff46577b922ecf48d2ed852e1f1a968d9c0f628c1981565b61013e610218366004610c1a565b60016020525f908152604090205481565b61013e5f81565b61013e61023e366004610c1a565b60ff165f9081526006602052604090205490565b610265610260366004610b0a565b6105b6565b6040516101139190610c33565b61013e610280366004610aa1565b610672565b61015f610293366004610a67565b6107f4565b61015f6102a6366004610c78565b610818565b5f6001600160e01b03198216637965db0b60e01b14806102db57506301ffc9a760e01b6001600160e01b03198316145b92915050565b5f828152602081905260409020600101546102fb816108c5565b61030583836108d2565b50505050565b6001600160a01b03811633146103345760405163334bd91960e11b815260040160405180910390fd5b61033e8282610961565b505050565b6060806103e9831061039c5760405162461bcd60e51b815260206004820152601960248201527f47726f75702073697a65206d757374206265203c20313030310000000000000060448201526064015b60405180910390fd5b5f8367ffffffffffffffff8111156103b6576103b6610cfd565b6040519080825280602002602001820160405280156103e957816020015b60608152602001906001900390816103d45790505b5090505f8467ffffffffffffffff81111561040657610406610cfd565b60405190808252806020026020018201604052801561042f578160200160208202803683370190505b5090505f5b858110156105805760055f88888481811061045157610451610d11565b90506020020160208101906104669190610c1a565b60ff1660ff1681526020019081526020015f20805461048490610d25565b80601f01602080910402602001604051908101604052809291908181526020018280546104b090610d25565b80156104fb5780601f106104d2576101008083540402835291602001916104fb565b820191905f5260205f20905b8154815290600101906020018083116104de57829003601f168201915b505050505083828151811061051257610512610d11565b602002602001018190525060065f88888481811061053257610532610d11565b90506020020160208101906105479190610c1a565b60ff1660ff1681526020019081526020015f205482828151811061056d5761056d610d11565b6020908102919091010152600101610434565b5090925090505b9250929050565b5f918252602082815260408084206001600160a01b0393909316845291905290205460ff1690565b60605f8267ffffffffffffffff8111156105d2576105d2610cfd565b6040519080825280602002602001820160405280156105fb578160200160208202803683370190505b5090505f5b8381101561066a5760045f86868481811061061d5761061d610d11565b9050602002013581526020019081526020015f205f9054906101000a900460ff1682828151811061065057610650610d11565b60ff90921660209283029190910190910152600101610600565b509392505050565b5f61069d7f417473bd65d0115cf4a47eff46577b922ecf48d2ed852e1f1a968d9c0f628c193361058e565b6106e95760405162461bcd60e51b815260206004820152601a60248201527f4e6f742061206368616c6c656e67652061646d696e20726f6c650000000000006044820152606401610393565b6001600160a01b0383165f90815260036020908152604080832060ff8087168552925290912054161561075e5760405162461bcd60e51b815260206004820152601960248201527f557365722063616e206f6e6c79207375626d6974206f6e6365000000000000006044820152606401610393565b6001600160a01b0383165f90815260036020908152604080832060ff861684529091528120805460ff1916600190811790915560028054919290916107a4908490610d5d565b90915550506002545f818152600460209081526040808320805460ff191660ff8816908117909155835260019182905282208054919290916107e7908490610d5d565b9091555090949350505050565b5f8281526020819052604090206001015461080e816108c5565b6103058383610961565b6108427f417473bd65d0115cf4a47eff46577b922ecf48d2ed852e1f1a968d9c0f628c193361058e565b61088e5760405162461bcd60e51b815260206004820152601a60248201527f4e6f742061206368616c6c656e67652061646d696e20726f6c650000000000006044820152606401610393565b60ff84165f9081526005602052604090206108aa838583610dc7565b5060ff9093165f908152600660205260409020929092555050565b6108cf81336109ca565b50565b5f6108dd838361058e565b61095a575f838152602081815260408083206001600160a01b03861684529091529020805460ff191660011790556109123390565b6001600160a01b0316826001600160a01b0316847f2f8788117e7eff1d82e926ec794901d17c78024a50270940304540a733656f0d60405160405180910390a45060016102db565b505f6102db565b5f61096c838361058e565b1561095a575f838152602081815260408083206001600160a01b0386168085529252808320805460ff1916905551339286917ff6391f5c32d9c69d2a47ea670b442974b53935d1edc7fd64eb21e047a839171b9190a45060016102db565b6109d4828261058e565b610a035760405163e2517d3f60e01b81526001600160a01b038216600482015260248101839052604401610393565b5050565b5f60208284031215610a17575f5ffd5b81356001600160e01b031981168114610a2e575f5ffd5b9392505050565b5f60208284031215610a45575f5ffd5b5035919050565b80356001600160a01b0381168114610a62575f5ffd5b919050565b5f5f60408385031215610a78575f5ffd5b82359150610a8860208401610a4c565b90509250929050565b803560ff81168114610a62575f5ffd5b5f5f60408385031215610ab2575f5ffd5b610abb83610a4c565b9150610a8860208401610a91565b5f5f83601f840112610ad9575f5ffd5b50813567ffffffffffffffff811115610af0575f5ffd5b6020830191508360208260051b8501011115610587575f5ffd5b5f5f60208385031215610b1b575f5ffd5b823567ffffffffffffffff811115610b31575f5ffd5b610b3d85828601610ac9565b90969095509350505050565b5f8151808452602084019350602083015f5b82811015610b79578151865260209586019590910190600101610b5b565b5093949350505050565b5f604082016040835280855180835260608501915060608160051b8601019250602087015f5b82811015610bfb57605f19878603018452815180518087528060208301602089015e5f602082890101526020601f19601f83011688010196505050602082019150602084019350600181019050610ba9565b505050508281036020840152610c118185610b49565b95945050505050565b5f60208284031215610c2a575f5ffd5b610a2e82610a91565b602080825282518282018190525f918401906040840190835b81811015610c6d57835160ff16835260209384019390920191600101610c4c565b509095945050505050565b5f5f5f5f60608587031215610c8b575f5ffd5b610c9485610a91565b9350602085013567ffffffffffffffff811115610caf575f5ffd5b8501601f81018713610cbf575f5ffd5b803567ffffffffffffffff811115610cd5575f5ffd5b876020828401011115610ce6575f5ffd5b949760209190910196509394604001359392505050565b634e487b7160e01b5f52604160045260245ffd5b634e487b7160e01b5f52603260045260245ffd5b600181811c90821680610d3957607f821691505b602082108103610d5757634e487b7160e01b5f52602260045260245ffd5b50919050565b808201808211156102db57634e487b7160e01b5f52601160045260245ffd5b601f82111561033e57805f5260205f20601f840160051c81016020851015610da15750805b601f840160051c820191505b81811015610dc0575f8155600101610dad565b5050505050565b67ffffffffffffffff831115610ddf57610ddf610cfd565b610df383610ded8354610d25565b83610d7c565b5f601f841160018114610e24575f8515610e0d5750838201355b5f19600387901b1c1916600186901b178355610dc0565b5f83815260208120601f198716915b82811015610e535786850135825560209485019460019092019101610e33565b5086821015610e6f575f1960f88860031b161c19848701351681555b505060018560011b018355505050505056fea264697066735822122055f3280564f73d50e983a3932bd00b1754887017358ae98af5088a33962cefe564736f6c634300081d0033",
  "linkReferences": {},
  "deployedLinkReferences": {},
  "immutableReferences": {},
  "inputSourceName": "project/contracts/HeroArenaChallenges.sol",
  "buildInfoId": "solc-0_8_29-693e76a6ae6d6fc863e587c03a813a10cdc3534b"
}