{
  "_format": "hh3-artifact-1",
  "contractName": "HeroArenaBattle",
  "sourceName": "contracts/HeroArenaBattle.sol",
  "abi": [
    {
      "inputs": [
        {
          "internalType": "contract HeroArenaProfileInterface",
          "name": "_HeroArenaProfileSC",
          "type": "address"
        }
      ],
      "stateMutability": "nonpayable",
      "type": "constructor"
    },
    {
      "inputs": [],
      "name": "AccessControlBadConfirmation",
      "type": "error"
    },
    {
      "inputs": [
        {
          "internalType": "address",
          "name": "account",
          "type": "address"
        },
        {
          "internalType": "bytes32",
          "name": "neededRole",
          "type": "bytes32"
        }
      ],
      "name": "AccessControlUnauthorizedAccount",
      "type": "error"
    },
    {
      "inputs": [
        {
          "internalType": "address",
          "name": "owner",
          "type": "address"
        }
      ],
      "name": "OwnableInvalidOwner",
      "type": "error"
    },
    {
      "inputs": [
        {
          "internalType": "address",
          "name": "account",
          "type": "address"
        }
      ],
      "name": "OwnableUnauthorizedAccount",
      "type": "error"
    },
    {
      "inputs": [],
      "name": "ReentrancyGuardReentrantCall",
      "type": "error"
    },
    {
      "inputs": [
        {
          "internalType": "address",
          "name": "token",
          "type": "address"
        }
      ],
      "name": "SafeERC20FailedOperation",
      "type": "error"
    },
    {
      "anonymous": false,
      "inputs": [
        {
          "indexed": true,
          "internalType": "address",
          "name": "owner",
          "type": "address"
        },
        {
          "indexed": true,
          "internalType": "address",
          "name": "token",
          "type": "address"
        },
        {
          "indexed": false,
          "internalType": "bool",
          "name": "allowed",
          "type": "bool"
        }
      ],
      "name": "AllowedBetTokenUpdated",
      "type": "event"
    },
    {
      "anonymous": false,
      "inputs": [
        {
          "indexed": true,
          "internalType": "address",
          "name": "owner",
          "type": "address"
        },
        {
          "indexed": false,
          "internalType": "bool",
          "name": "isAvail",
          "type": "bool"
        }
      ],
      "name": "AvailableCreateBattleUpdated",
      "type": "event"
    },
    {
      "anonymous": false,
      "inputs": [
        {
          "indexed": true,
          "internalType": "uint256",
          "name": "battleId",
          "type": "uint256"
        },
        {
          "indexed": true,
          "internalType": "address",
          "name": "closedBy",
          "type": "address"
        },
        {
          "indexed": false,
          "internalType": "uint256",
          "name": "refundedAmount",
          "type": "uint256"
        }
      ],
      "name": "BattleClosed",
      "type": "event"
    },
    {
      "anonymous": false,
      "inputs": [
        {
          "indexed": true,
          "internalType": "uint256",
          "name": "battleId",
          "type": "uint256"
        },
        {
          "indexed": true,
          "internalType": "address",
          "name": "conceder",
          "type": "address"
        },
        {
          "indexed": true,
          "internalType": "address",
          "name": "winner",
          "type": "address"
        },
        {
          "indexed": false,
          "internalType": "uint256",
          "name": "totalReward",
          "type": "uint256"
        }
      ],
      "name": "BattleConceded",
      "type": "event"
    },
    {
      "anonymous": false,
      "inputs": [
        {
          "indexed": true,
          "internalType": "uint256",
          "name": "battleId",
          "type": "uint256"
        },
        {
          "indexed": true,
          "internalType": "address",
          "name": "creator",
          "type": "address"
        },
        {
          "indexed": false,
          "internalType": "address",
          "name": "targetAddress",
          "type": "address"
        },
        {
          "indexed": false,
          "internalType": "address",
          "name": "betTokenAddress",
          "type": "address"
        },
        {
          "indexed": false,
          "internalType": "uint256",
          "name": "betAmount",
          "type": "uint256"
        }
      ],
      "name": "BattleCreated",
      "type": "event"
    },
    {
      "anonymous": false,
      "inputs": [
        {
          "indexed": true,
          "internalType": "uint256",
          "name": "battleId",
          "type": "uint256"
        },
        {
          "indexed": true,
          "internalType": "address",
          "name": "winner",
          "type": "address"
        },
        {
          "indexed": false,
          "internalType": "uint256",
          "name": "totalReward",
          "type": "uint256"
        }
      ],
      "name": "BattleEnded",
      "type": "event"
    },
    {
      "anonymous": false,
      "inputs": [
        {
          "indexed": true,
          "internalType": "uint256",
          "name": "battleId",
          "type": "uint256"
        },
        {
          "indexed": true,
          "internalType": "address",
          "name": "joiner",
          "type": "address"
        }
      ],
      "name": "BattleJoined",
      "type": "event"
    },
    {
      "anonymous": false,
      "inputs": [
        {
          "indexed": true,
          "internalType": "uint256",
          "name": "battleId",
          "type": "uint256"
        },
        {
          "indexed": true,
          "internalType": "address",
          "name": "winner",
          "type": "address"
        },
        {
          "indexed": true,
          "internalType": "address",
          "name": "token",
          "type": "address"
        },
        {
          "indexed": false,
          "internalType": "uint256",
          "name": "amount",
          "type": "uint256"
        },
        {
          "indexed": false,
          "internalType": "bool",
          "name": "success",
          "type": "bool"
        }
      ],
      "name": "BonusPayout",
      "type": "event"
    },
    {
      "anonymous": false,
      "inputs": [
        {
          "indexed": true,
          "internalType": "address",
          "name": "admin",
          "type": "address"
        },
        {
          "indexed": true,
          "internalType": "address",
          "name": "token",
          "type": "address"
        },
        {
          "indexed": true,
          "internalType": "address",
          "name": "to",
          "type": "address"
        },
        {
          "indexed": false,
          "internalType": "uint256",
          "name": "amount",
          "type": "uint256"
        }
      ],
      "name": "ExtraTokensRescued",
      "type": "event"
    },
    {
      "anonymous": false,
      "inputs": [
        {
          "indexed": true,
          "internalType": "address",
          "name": "owner",
          "type": "address"
        },
        {
          "indexed": false,
          "internalType": "address",
          "name": "feeToken",
          "type": "address"
        },
        {
          "indexed": false,
          "internalType": "uint256",
          "name": "feeTokenAmount",
          "type": "uint256"
        },
        {
          "indexed": false,
          "internalType": "address",
          "name": "bonusToken",
          "type": "address"
        },
        {
          "indexed": false,
          "internalType": "uint256",
          "name": "bonusTokenAmount",
          "type": "uint256"
        }
      ],
      "name": "FeeTokenAndBonusTokenUpdated",
      "type": "event"
    },
    {
      "anonymous": false,
      "inputs": [
        {
          "indexed": true,
          "internalType": "address",
          "name": "owner",
          "type": "address"
        },
        {
          "indexed": true,
          "internalType": "address",
          "name": "userAddress",
          "type": "address"
        },
        {
          "indexed": false,
          "internalType": "bool",
          "name": "isForbidden",
          "type": "bool"
        }
      ],
      "name": "ForbiddenToPlayUpdated",
      "type": "event"
    },
    {
      "anonymous": false,
      "inputs": [
        {
          "indexed": true,
          "internalType": "address",
          "name": "owner",
          "type": "address"
        },
        {
          "indexed": false,
          "internalType": "uint256",
          "name": "amount0",
          "type": "uint256"
        },
        {
          "indexed": false,
          "internalType": "uint256",
          "name": "amount1",
          "type": "uint256"
        }
      ],
      "name": "MinimumBetTokenAmountUpdated",
      "type": "event"
    },
    {
      "anonymous": false,
      "inputs": [
        {
          "indexed": true,
          "internalType": "address",
          "name": "previousOwner",
          "type": "address"
        },
        {
          "indexed": true,
          "internalType": "address",
          "name": "newOwner",
          "type": "address"
        }
      ],
      "name": "OwnershipTransferred",
      "type": "event"
    },
    {
      "anonymous": false,
      "inputs": [
        {
          "indexed": true,
          "internalType": "uint256",
          "name": "battleId",
          "type": "uint256"
        },
        {
          "indexed": true,
          "internalType": "address",
          "name": "token",
          "type": "address"
        },
        {
          "indexed": true,
          "internalType": "address",
          "name": "recipient",
          "type": "address"
        },
        {
          "indexed": false,
          "internalType": "uint256",
          "name": "amount",
          "type": "uint256"
        }
      ],
      "name": "ProtocolFeeCharged",
      "type": "event"
    },
    {
      "anonymous": false,
      "inputs": [
        {
          "indexed": true,
          "internalType": "address",
          "name": "admin",
          "type": "address"
        },
        {
          "indexed": false,
          "internalType": "address",
          "name": "oldRecipient",
          "type": "address"
        },
        {
          "indexed": false,
          "internalType": "address",
          "name": "newRecipient",
          "type": "address"
        }
      ],
      "name": "ProtocolFeeRecipientUpdated",
      "type": "event"
    },
    {
      "anonymous": false,
      "inputs": [
        {
          "indexed": true,
          "internalType": "address",
          "name": "admin",
          "type": "address"
        },
        {
          "indexed": false,
          "internalType": "uint256",
          "name": "oldFeeBps",
          "type": "uint256"
        },
        {
          "indexed": false,
          "internalType": "uint256",
          "name": "newFeeBps",
          "type": "uint256"
        }
      ],
      "name": "ProtocolFeeUpdated",
      "type": "event"
    },
    {
      "anonymous": false,
      "inputs": [
        {
          "indexed": true,
          "internalType": "address",
          "name": "admin",
          "type": "address"
        },
        {
          "indexed": true,
          "internalType": "address",
          "name": "token",
          "type": "address"
        },
        {
          "indexed": true,
          "internalType": "address",
          "name": "to",
          "type": "address"
        },
        {
          "indexed": false,
          "internalType": "uint256",
          "name": "amount",
          "type": "uint256"
        }
      ],
      "name": "ProtocolFeeWithdrawn",
      "type": "event"
    },
    {
      "anonymous": false,
      "inputs": [
        {
          "indexed": true,
          "internalType": "bytes32",
          "name": "role",
          "type": "bytes32"
        },
        {
          "indexed": true,
          "internalType": "bytes32",
          "name": "previousAdminRole",
          "type": "bytes32"
        },
        {
          "indexed": true,
          "internalType": "bytes32",
          "name": "newAdminRole",
          "type": "bytes32"
        }
      ],
      "name": "RoleAdminChanged",
      "type": "event"
    },
    {
      "anonymous": false,
      "inputs": [
        {
          "indexed": true,
          "internalType": "bytes32",
          "name": "role",
          "type": "bytes32"
        },
        {
          "indexed": true,
          "internalType": "address",
          "name": "account",
          "type": "address"
        },
        {
          "indexed": true,
          "internalType": "address",
          "name": "sender",
          "type": "address"
        }
      ],
      "name": "RoleGranted",
      "type": "event"
    },
    {
      "anonymous": false,
      "inputs": [
        {
          "indexed": true,
          "internalType": "bytes32",
          "name": "role",
          "type": "bytes32"
        },
        {
          "indexed": true,
          "internalType": "address",
          "name": "account",
          "type": "address"
        },
        {
          "indexed": true,
          "internalType": "address",
          "name": "sender",
          "type": "address"
        }
      ],
      "name": "RoleRevoked",
      "type": "event"
    },
    {
      "anonymous": false,
      "inputs": [
        {
          "indexed": true,
          "internalType": "address",
          "name": "depositor",
          "type": "address"
        },
        {
          "indexed": true,
          "internalType": "address",
          "name": "tokenAddress",
          "type": "address"
        },
        {
          "indexed": false,
          "internalType": "uint256",
          "name": "amount",
          "type": "uint256"
        }
      ],
      "name": "TokenDeposited",
      "type": "event"
    },
    {
      "inputs": [],
      "name": "BPS_DENOMINATOR",
      "outputs": [
        {
          "internalType": "uint256",
          "name": "",
          "type": "uint256"
        }
      ],
      "stateMutability": "view",
      "type": "function"
    },
    {
      "inputs": [],
      "name": "DEFAULT_ADMIN_ROLE",
      "outputs": [
        {
          "internalType": "bytes32",
          "name": "",
          "type": "bytes32"
        }
      ],
      "stateMutability": "view",
      "type": "function"
    },
    {
      "inputs": [],
      "name": "HeroArenaProfileSC",
      "outputs": [
        {
          "internalType": "contract HeroArenaProfileInterface",
          "name": "",
          "type": "address"
        }
      ],
      "stateMutability": "view",
      "type": "function"
    },
    {
      "inputs": [],
      "name": "LIQUIDATOR_ROLE",
      "outputs": [
        {
          "internalType": "bytes32",
          "name": "",
          "type": "bytes32"
        }
      ],
      "stateMutability": "view",
      "type": "function"
    },
    {
      "inputs": [],
      "name": "MAX_PROTOCOL_FEE_BPS",
      "outputs": [
        {
          "internalType": "uint256",
          "name": "",
          "type": "uint256"
        }
      ],
      "stateMutability": "view",
      "type": "function"
    },
    {
      "inputs": [
        {
          "internalType": "address",
          "name": "",
          "type": "address"
        }
      ],
      "name": "accruedProtocolFees",
      "outputs": [
        {
          "internalType": "uint256",
          "name": "",
          "type": "uint256"
        }
      ],
      "stateMutability": "view",
      "type": "function"
    },
    {
      "inputs": [
        {
          "internalType": "address",
          "name": "",
          "type": "address"
        }
      ],
      "name": "allowedBetTokens",
      "outputs": [
        {
          "internalType": "bool",
          "name": "",
          "type": "bool"
        }
      ],
      "stateMutability": "view",
      "type": "function"
    },
    {
      "inputs": [],
      "name": "availableCreateBattle",
      "outputs": [
        {
          "internalType": "bool",
          "name": "",
          "type": "bool"
        }
      ],
      "stateMutability": "view",
      "type": "function"
    },
    {
      "inputs": [
        {
          "internalType": "uint256",
          "name": "_battleId",
          "type": "uint256"
        }
      ],
      "name": "closeBattle",
      "outputs": [],
      "stateMutability": "nonpayable",
      "type": "function"
    },
    {
      "inputs": [
        {
          "internalType": "address",
          "name": "_betTokenAddress",
          "type": "address"
        },
        {
          "internalType": "uint256",
          "name": "_betAmount",
          "type": "uint256"
        },
        {
          "internalType": "address",
          "name": "_targetAddress",
          "type": "address"
        }
      ],
      "name": "createBattle",
      "outputs": [],
      "stateMutability": "payable",
      "type": "function"
    },
    {
      "inputs": [
        {
          "internalType": "address",
          "name": "_tokenAddress",
          "type": "address"
        },
        {
          "internalType": "uint256",
          "name": "_amount",
          "type": "uint256"
        }
      ],
      "name": "depositToken",
      "outputs": [],
      "stateMutability": "nonpayable",
      "type": "function"
    },
    {
      "inputs": [
        {
          "internalType": "address",
          "name": "",
          "type": "address"
        }
      ],
      "name": "forbiddenToPlay",
      "outputs": [
        {
          "internalType": "bool",
          "name": "",
          "type": "bool"
        }
      ],
      "stateMutability": "view",
      "type": "function"
    },
    {
      "inputs": [],
      "name": "getBattleCount",
      "outputs": [
        {
          "internalType": "uint256",
          "name": "",
          "type": "uint256"
        }
      ],
      "stateMutability": "view",
      "type": "function"
    },
    {
      "inputs": [
        {
          "internalType": "uint256",
          "name": "_battleId",
          "type": "uint256"
        }
      ],
      "name": "getBattleInfo",
      "outputs": [
        {
          "components": [
            {
              "internalType": "address",
              "name": "selfAddress",
              "type": "address"
            },
            {
              "internalType": "address",
              "name": "targetAddress",
              "type": "address"
            },
            {
              "internalType": "address",
              "name": "betTokenAddress",
              "type": "address"
            },
            {
              "internalType": "uint256",
              "name": "betAmount",
              "type": "uint256"
            },
            {
              "internalType": "uint256",
              "name": "createdAt",
              "type": "uint256"
            },
            {
              "internalType": "address",
              "name": "winner",
              "type": "address"
            },
            {
              "internalType": "bool",
              "name": "isStarted",
              "type": "bool"
            },
            {
              "internalType": "bool",
              "name": "isEnded",
              "type": "bool"
            }
          ],
          "internalType": "struct HeroArenaBattle.BattleInfo",
          "name": "",
          "type": "tuple"
        }
      ],
      "stateMutability": "view",
      "type": "function"
    },
    {
      "inputs": [
        {
          "internalType": "bytes32",
          "name": "role",
          "type": "bytes32"
        }
      ],
      "name": "getRoleAdmin",
      "outputs": [
        {
          "internalType": "bytes32",
          "name": "",
          "type": "bytes32"
        }
      ],
      "stateMutability": "view",
      "type": "function"
    },
    {
      "inputs": [
        {
          "internalType": "bytes32",
          "name": "role",
          "type": "bytes32"
        },
        {
          "internalType": "address",
          "name": "account",
          "type": "address"
        }
      ],
      "name": "grantRole",
      "outputs": [],
      "stateMutability": "nonpayable",
      "type": "function"
    },
    {
      "inputs": [
        {
          "internalType": "bytes32",
          "name": "role",
          "type": "bytes32"
        },
        {
          "internalType": "address",
          "name": "account",
          "type": "address"
        }
      ],
      "name": "hasRole",
      "outputs": [
        {
          "internalType": "bool",
          "name": "",
          "type": "bool"
        }
      ],
      "stateMutability": "view",
      "type": "function"
    },
    {
      "inputs": [
        {
          "internalType": "uint256",
          "name": "_battleId",
          "type": "uint256"
        }
      ],
      "name": "joinExistBattle",
      "outputs": [],
      "stateMutability": "payable",
      "type": "function"
    },
    {
      "inputs": [
        {
          "internalType": "uint256",
          "name": "",
          "type": "uint256"
        }
      ],
      "name": "minBetAmount",
      "outputs": [
        {
          "internalType": "uint256",
          "name": "",
          "type": "uint256"
        }
      ],
      "stateMutability": "view",
      "type": "function"
    },
    {
      "inputs": [
        {
          "internalType": "address",
          "name": "",
          "type": "address"
        }
      ],
      "name": "outstandingBets",
      "outputs": [
        {
          "internalType": "uint256",
          "name": "",
          "type": "uint256"
        }
      ],
      "stateMutability": "view",
      "type": "function"
    },
    {
      "inputs": [],
      "name": "owner",
      "outputs": [
        {
          "internalType": "address",
          "name": "",
          "type": "address"
        }
      ],
      "stateMutability": "view",
      "type": "function"
    },
    {
      "inputs": [],
      "name": "protocolFeeBps",
      "outputs": [
        {
          "internalType": "uint256",
          "name": "",
          "type": "uint256"
        }
      ],
      "stateMutability": "view",
      "type": "function"
    },
    {
      "inputs": [],
      "name": "protocolFeeRecipient",
      "outputs": [
        {
          "internalType": "address",
          "name": "",
          "type": "address"
        }
      ],
      "stateMutability": "view",
      "type": "function"
    },
    {
      "inputs": [],
      "name": "renounceOwnership",
      "outputs": [],
      "stateMutability": "nonpayable",
      "type": "function"
    },
    {
      "inputs": [
        {
          "internalType": "bytes32",
          "name": "role",
          "type": "bytes32"
        },
        {
          "internalType": "address",
          "name": "callerConfirmation",
          "type": "address"
        }
      ],
      "name": "renounceRole",
      "outputs": [],
      "stateMutability": "nonpayable",
      "type": "function"
    },
    {
      "inputs": [
        {
          "internalType": "address",
          "name": "_token",
          "type": "address"
        },
        {
          "internalType": "address",
          "name": "_to",
          "type": "address"
        },
        {
          "internalType": "uint256",
          "name": "_amount",
          "type": "uint256"
        }
      ],
      "name": "rescueExtraTokens",
      "outputs": [],
      "stateMutability": "nonpayable",
      "type": "function"
    },
    {
      "inputs": [
        {
          "internalType": "bytes32",
          "name": "role",
          "type": "bytes32"
        },
        {
          "internalType": "address",
          "name": "account",
          "type": "address"
        }
      ],
      "name": "revokeRole",
      "outputs": [],
      "stateMutability": "nonpayable",
      "type": "function"
    },
    {
      "inputs": [
        {
          "internalType": "uint256",
          "name": "_bps",
          "type": "uint256"
        }
      ],
      "name": "setProtocolFee",
      "outputs": [],
      "stateMutability": "nonpayable",
      "type": "function"
    },
    {
      "inputs": [
        {
          "internalType": "address",
          "name": "_recipient",
          "type": "address"
        }
      ],
      "name": "setProtocolFeeRecipient",
      "outputs": [],
      "stateMutability": "nonpayable",
      "type": "function"
    },
    {
      "inputs": [
        {
          "internalType": "uint256",
          "name": "_battleId",
          "type": "uint256"
        },
        {
          "internalType": "address",
          "name": "_winner",
          "type": "address"
        }
      ],
      "name": "settleBattle",
      "outputs": [],
      "stateMutability": "nonpayable",
      "type": "function"
    },
    {
      "inputs": [
        {
          "internalType": "bytes4",
          "name": "interfaceId",
          "type": "bytes4"
        }
      ],
      "name": "supportsInterface",
      "outputs": [
        {
          "internalType": "bool",
          "name": "",
          "type": "bool"
        }
      ],
      "stateMutability": "view",
      "type": "function"
    },
    {
      "inputs": [
        {
          "internalType": "uint256",
          "name": "",
          "type": "uint256"
        }
      ],
      "name": "tokenAddresses",
      "outputs": [
        {
          "internalType": "address",
          "name": "",
          "type": "address"
        }
      ],
      "stateMutability": "view",
      "type": "function"
    },
    {
      "inputs": [
        {
          "internalType": "uint256",
          "name": "",
          "type": "uint256"
        }
      ],
      "name": "tokenAmounts",
      "outputs": [
        {
          "internalType": "uint256",
          "name": "",
          "type": "uint256"
        }
      ],
      "stateMutability": "view",
      "type": "function"
    },
    {
      "inputs": [
        {
          "internalType": "address",
          "name": "newOwner",
          "type": "address"
        }
      ],
      "name": "transferOwnership",
      "outputs": [],
      "stateMutability": "nonpayable",
      "type": "function"
    },
    {
      "inputs": [
        {
          "internalType": "address",
          "name": "_token",
          "type": "address"
        },
        {
          "internalType": "bool",
          "name": "_allowed",
          "type": "bool"
        }
      ],
      "name": "updateAllowedBetToken",
      "outputs": [],
      "stateMutability": "nonpayable",
      "type": "function"
    },
    {
      "inputs": [
        {
          "internalType": "bool",
          "name": "_isAvailable",
          "type": "bool"
        }
      ],
      "name": "updateAvailableCreateBattle",
      "outputs": [],
      "stateMutability": "nonpayable",
      "type": "function"
    },
    {
      "inputs": [
        {
          "internalType": "address",
          "name": "_feeToken",
          "type": "address"
        },
        {
          "internalType": "uint256",
          "name": "_feeTokenAmount",
          "type": "uint256"
        },
        {
          "internalType": "address",
          "name": "_bonusToken",
          "type": "address"
        },
        {
          "internalType": "uint256",
          "name": "_bonusTokenAmount",
          "type": "uint256"
        }
      ],
      "name": "updateFeeAndBonusTokenAddressWithAmount",
      "outputs": [],
      "stateMutability": "nonpayable",
      "type": "function"
    },
    {
      "inputs": [
        {
          "internalType": "address",
          "name": "_user",
          "type": "address"
        },
        {
          "internalType": "bool",
          "name": "_isForbidden",
          "type": "bool"
        }
      ],
      "name": "updateForbiddenToPlay",
      "outputs": [],
      "stateMutability": "nonpayable",
      "type": "function"
    },
    {
      "inputs": [
        {
          "internalType": "uint256",
          "name": "_amount0",
          "type": "uint256"
        },
        {
          "internalType": "uint256",
          "name": "_amount1",
          "type": "uint256"
        }
      ],
      "name": "updateMinimumBetTokenAmount",
      "outputs": [],
      "stateMutability": "nonpayable",
      "type": "function"
    },
    {
      "inputs": [
        {
          "internalType": "address",
          "name": "_token",
          "type": "address"
        },
        {
          "internalType": "address",
          "name": "_to",
          "type": "address"
        },
        {
          "internalType": "uint256",
          "name": "_amount",
          "type": "uint256"
        }
      ],
      "name": "withdrawProtocolFees",
      "outputs": [],
      "stateMutability": "nonpayable",
      "type": "function"
    },
    {
      "stateMutability": "payable",
      "type": "receive"
    }
  ],
  "bytecode": "0x60a060405234801561000f575f5ffd5b50604051612b14380380612b1483398101604081905261002e91610180565b338061005357604051631e4fbdf760e01b81525f600482015260240160405180910390fd5b61005c8161009f565b5060017f9b779b17422d0df92223018b32b4d1fa46e071723d6817e2486d003becc55f00556001600160a01b0381166080526100985f336100ee565b50506101ad565b5f80546001600160a01b038381166001600160a01b0319831681178455604051919092169283917f8be0079c531659141344cd1fd0a4f28419497f9722a3daafe3b4186f6b6457e09190a35050565b5f8281526001602090815260408083206001600160a01b038516845290915281205460ff16610177575f8381526001602081815260408084206001600160a01b0387168086529252808420805460ff19169093179092559051339286917f2f8788117e7eff1d82e926ec794901d17c78024a50270940304540a733656f0d9190a450600161017a565b505f5b92915050565b5f60208284031215610190575f5ffd5b81516001600160a01b03811681146101a6575f5ffd5b9392505050565b6080516129416101d35f395f818161030701528181610fd3015261137601526129415ff3fe608060405260043610610236575f3560e01c806374ec500311610129578063ab934563116100a8578063e521cb921161006d578063e521cb92146107a6578063e5df8b84146107c5578063e84d8880146107e4578063f2fde38b14610803578063f470d5ec14610822575f5ffd5b8063ab93456314610642578063c0a6e9d714610661578063d547741f14610753578063dd5e1a6a14610772578063e1a4521814610791575f5ffd5b80638fff0a5f116100ee5780638fff0a5f146105a757806391d14854146105c65780639ad280c0146105e5578063a217fddf14610604578063a641fc8514610617575f5ffd5b806374ec50031461050f578063769a9f1314610522578063787dce3d146105415780638a375993146105605780638da5cb5b1461058b575f5ffd5b806336568abe116101b55780636268824c1161017a5780636268824c1461047a57806364df049e146104a85780636d947e4b146104c75780636f7f7036146104dc578063715018a6146104fb575f5ffd5b806336568abe146103e25780633d512514146104015780633e5e5d85146104205780634d44dd71146104395780635a0d00b71461044c575f5ffd5b8063248a9ca3116101fb578063248a9ca31461034157806326cd774d146103705780632f2ff15d1461038f578063338b5dea146103ae57806335659fb8146103cd575f5ffd5b806301ffc9a7146102415780630505917a146102755780631205dc6f1461029657806316d8887a146102b55780631a660278146102f6575f5ffd5b3661023d57005b5f5ffd5b34801561024c575f5ffd5b5061026061025b36600461254c565b610836565b60405190151581526020015b60405180910390f35b348015610280575f5ffd5b5061029461028f36600461258e565b61086c565b005b3480156102a1575f5ffd5b506102946102b03660046125cf565b6108fb565b3480156102c0575f5ffd5b506102e87f5e17fc5225d4a099df75359ce1f405503ca79498a8dc46a7d583235a0ee45c1681565b60405190815260200161026c565b348015610301575f5ffd5b506103297f000000000000000000000000000000000000000000000000000000000000000081565b6040516001600160a01b03909116815260200161026c565b34801561034c575f5ffd5b506102e861035b3660046125ef565b5f908152600160208190526040909120015490565b34801561037b575f5ffd5b5061029461038a366004612606565b61094d565b34801561039a575f5ffd5b506102946103a9366004612606565b610d52565b3480156103b9575f5ffd5b506102946103c8366004612630565b610d7d565b3480156103d8575f5ffd5b506102e8600d5481565b3480156103ed575f5ffd5b506102946103fc366004612606565b610ddf565b34801561040c575f5ffd5b5061029461041b366004612658565b610e17565b34801561042b575f5ffd5b506004546102609060ff1681565b6102946104473660046125ef565b610fb6565b348015610457575f5ffd5b50610260610466366004612692565b60036020525f908152604090205460ff1681565b348015610485575f5ffd5b50610260610494366004612692565b60026020525f908152604090205460ff1681565b3480156104b3575f5ffd5b50600e54610329906001600160a01b031681565b3480156104d2575f5ffd5b506102e86103e881565b3480156104e7575f5ffd5b506102946104f63660046126b8565b6112f5565b348015610506575f5ffd5b50610294611346565b61029461051d3660046126d3565b611359565b34801561052d575f5ffd5b5061029461053c3660046125ef565b611655565b34801561054c575f5ffd5b5061029461055b3660046125ef565b6117fb565b34801561056b575f5ffd5b506102e861057a366004612692565b60106020525f908152604090205481565b348015610596575f5ffd5b505f546001600160a01b0316610329565b3480156105b2575f5ffd5b506102e86105c13660046125ef565b611887565b3480156105d1575f5ffd5b506102606105e0366004612606565b61189d565b3480156105f0575f5ffd5b506102e86105ff3660046125ef565b6118c7565b34801561060f575f5ffd5b506102e85f81565b348015610622575f5ffd5b506102e8610631366004612692565b600f6020525f908152604090205481565b34801561064d575f5ffd5b5061029461065c366004612658565b6118d6565b34801561066c575f5ffd5b5061074661067b3660046125ef565b60408051610100810182525f80825260208201819052918101829052606081018290526080810182905260a0810182905260c0810182905260e0810191909152505f908152600b602090815260409182902082516101008101845281546001600160a01b0390811682526001830154811693820193909352600282015483169381019390935260038101546060840152600481015460808401526005015490811660a083015260ff600160a01b82048116151560c0840152600160a81b90910416151560e082015290565b60405161026c919061270c565b34801561075e575f5ffd5b5061029461076d366004612606565b611b42565b34801561077d575f5ffd5b5061029461078c366004612789565b611b67565b34801561079c575f5ffd5b506102e861271081565b3480156107b1575f5ffd5b506102946107c0366004612692565b611bc8565b3480156107d0575f5ffd5b506103296107df3660046125ef565b611c2c565b3480156107ef575f5ffd5b506102946107fe366004612789565b611c4b565b34801561080e575f5ffd5b5061029461081d366004612692565b611cac565b34801561082d575f5ffd5b50600c546102e8565b5f6001600160e01b03198216637965db0b60e01b148061086657506301ffc9a760e01b6001600160e01b03198316145b92915050565b610874611ce6565b600780546001600160a01b038087166001600160a01b03199283168117909355600880549186169190921681179091556009859055600a83905560408051928352602083018690528201526060810182905233907fa0d4722a99274c6808fbb0f6747eef8a0d71adb85bd62d2fd47990f8f9537c859060800160405180910390a250505050565b610903611ce6565b60058290556006819055604080518381526020810183905233917f7b35f7b073fcb7e4ebc6ef7520319b025e4c183eb62538b956eac7ff98d1e21a91015b60405180910390a25050565b610955611d12565b7f5e17fc5225d4a099df75359ce1f405503ca79498a8dc46a7d583235a0ee45c1661097f81611d2d565b5f838152600b6020526040902080546001600160a01b03166109bc5760405162461bcd60e51b81526004016109b3906127be565b60405180910390fd5b6005810154600160a81b900460ff16156109e85760405162461bcd60e51b81526004016109b3906127ed565b6005810154600160a01b900460ff16610a435760405162461bcd60e51b815260206004820152601760248201527f4f70706f6e656e7420686173206e6f74206a6f696e656400000000000000000060448201526064016109b3565b80546001600160a01b0384811691161480610a6d575060018101546001600160a01b038481169116145b610ab25760405162461bcd60e51b8152602060048201526016602482015275496e76616c69642077696e6e6572206164647265737360501b60448201526064016109b3565b600581018054600161ff0160a01b0319166001600160a01b03851617600160a81b17905560038101545f90610ae890600261282f565b60028301546001600160a01b03165f90815260106020526040812080549293508392909190610b18908490612846565b9091555050600d548015610c3e575f612710610b34838561282f565b610b3e9190612859565b90508015610c3c57610b508184612846565b600e549093506001600160a01b03168015610bc15760028501545f90610b80906001600160a01b03168385611d37565b905080610bbb5760028601546001600160a01b03165f908152600f602052604081208054859290610bb2908490612878565b909155505f9250505b50610bf2565b60028501546001600160a01b03165f908152600f602052604081208054849290610bec908490612878565b90915550505b60028501546040518381526001600160a01b038381169216908a907f1a27391d7ea91799390a950922a6641997d06c7642e26008ce4fb672782bf8fc9060200160405180910390a4505b505b6002830154610c57906001600160a01b03168684611e76565b600854600a546001600160a01b03909116908015801590610c8057506001600160a01b03821615155b15610cee575f610c91838984611d37565b9050826001600160a01b0316886001600160a01b03168a7f661e5716f3825a992c4dd146d11dacbb5a8d9657b57374c51a47dea312ae3dd58585604051610ce49291909182521515602082015260400190565b60405180910390a4505b866001600160a01b0316887fdf7b857ba126023b898186dc0a6f9be4ec90086bf1fb2fabd865708c6b4fb5ae86604051610d2a91815260200190565b60405180910390a3505050505050610d4e60015f5160206128ec5f395f51905f5255565b5050565b5f8281526001602081905260409091200154610d6d81611d2d565b610d778383611f2d565b50505050565b610d85611ce6565b610d9a6001600160a01b038316333084611fa3565b6040518181526001600160a01b0383169033907ff1444b5cad7ce70cb018d1b8edc8618fe303f3c7f034d8d572a6e27facbf2bef906020015b60405180910390a35050565b6001600160a01b0381163314610e085760405163334bd91960e11b815260040160405180910390fd5b610e128282611fd9565b505050565b610e1f611ce6565b610e27611d12565b6001600160a01b038216610e6f5760405162461bcd60e51b815260206004820152600f60248201526e496e76616c6964206164647265737360881b60448201526064016109b3565b5f8111610eb35760405162461bcd60e51b81526020600482015260126024820152710416d6f756e74206d757374206265203e20360741b60448201526064016109b3565b6001600160a01b0383165f908152600f602052604090205480821115610f1b5760405162461bcd60e51b815260206004820152601b60248201527f416d6f756e74206578636565647320616363727565642066656573000000000060448201526064016109b3565b610f258282612846565b6001600160a01b0385165f908152600f6020526040902055610f48848484611e76565b826001600160a01b0316846001600160a01b0316336001600160a01b03167f17a428cd5e6884e6d3523af964c50b79899a76e82f82b1c8dcda98d04cd3daa585604051610f9791815260200190565b60405180910390a450610e1260015f5160206128ec5f395f51905f5255565b610fbe611d12565b6040516350681a9360e11b81523360048201527f00000000000000000000000000000000000000000000000000000000000000006001600160a01b03169063a0d0352690602401602060405180830381865afa158015611020573d5f5f3e3d5ffd5b505050506040513d601f19601f82011682018060405250810190611044919061288b565b6110895760405162461bcd60e51b8152602060048201526016602482015275141c9bd99a5b19481b9bdd081c9959da5cdd195c995960521b60448201526064016109b3565b335f9081526003602052604090205460ff16156110dc5760405162461bcd60e51b8152602060048201526011602482015270466f7262696464656e20746f20706c617960781b60448201526064016109b3565b5f818152600b6020526040902080546001600160a01b03166111105760405162461bcd60e51b81526004016109b3906127be565b6005810154600160a01b900460ff161561116c5760405162461bcd60e51b815260206004820152601e60248201527f426174746c6520616c72656164792068617320616e206f70706f6e656e74000060448201526064016109b3565b6005810154600160a81b900460ff16156111985760405162461bcd60e51b81526004016109b3906127ed565b8054336001600160a01b03909116036111ec5760405162461bcd60e51b815260206004820152601660248201527543616e6e6f74206a6f696e206f776e20626174746c6560501b60448201526064016109b3565b60018101546001600160a01b03161580611212575060018101546001600160a01b031633145b61125e5760405162461bcd60e51b815260206004820152601a60248201527f4e6f7420696e766974656420746f207468697320626174746c6500000000000060448201526064016109b3565b6002810154600382015461127c916001600160a01b03169033612044565b61128533612314565b60058101805460ff60a01b1916600160a01b1790556001810180546001600160a01b0319163390811790915560405183907f8c6accc40f0b31b2b4fa26bce8f25592cedbe9e9a6a9323b56188d02eceed53d905f90a3506112f260015f5160206128ec5f395f51905f5255565b50565b6112fd611ce6565b6004805460ff191682151590811790915560405190815233907f5965995208a5faeddabdc5ba76a95121667747c41b83e5a07c4c3feb06b347af9060200160405180910390a250565b61134e611ce6565b6113575f612391565b565b611361611d12565b6040516350681a9360e11b81523360048201527f00000000000000000000000000000000000000000000000000000000000000006001600160a01b03169063a0d0352690602401602060405180830381865afa1580156113c3573d5f5f3e3d5ffd5b505050506040513d601f19601f820116820180604052508101906113e7919061288b565b61142c5760405162461bcd60e51b8152602060048201526016602482015275141c9bd99a5b19481b9bdd081c9959da5cdd195c995960521b60448201526064016109b3565b335f9081526003602052604090205460ff161561147f5760405162461bcd60e51b8152602060048201526011602482015270466f7262696464656e20746f20706c617960781b60448201526064016109b3565b60045460ff166114c85760405162461bcd60e51b815260206004820152601460248201527343616e6e6f742063726561746520626174746c6560601b60448201526064016109b3565b336001600160a01b038216036115195760405162461bcd60e51b815260206004820152601660248201527521b0b73737ba103a30b933b2ba103cb7bab939b2b63360511b60448201526064016109b3565b6001600160a01b0383165f9081526002602052604090205460ff166115745760405162461bcd60e51b8152602060048201526011602482015270151bdad95b881b9bdd08185b1b1bddd959607a1b60448201526064016109b3565b61157f838333612044565b61158833612314565b5f600c5f8154611597906128a6565b91829055505f818152600b60209081526040918290208054336001600160a01b03199182168117835560018301805483166001600160a01b038a8116918217909255600285018054909416918c16918217909355600384018a90554260048501558551928352938201939093529283018790529293509083907fed66efe6d9e691dcdc3742d4579ed070fdddd3fbbe5b79d9f02d46bfdadc1e4a9060600160405180910390a35050610e1260015f5160206128ec5f395f51905f5255565b61165d611d12565b7f5e17fc5225d4a099df75359ce1f405503ca79498a8dc46a7d583235a0ee45c1661168781611d2d565b5f828152600b6020526040902080546001600160a01b03166116bb5760405162461bcd60e51b81526004016109b3906127be565b6005810154600160a81b900460ff16156116e75760405162461bcd60e51b81526004016109b3906127ed565b6005810154600160a01b900460ff16156117435760405162461bcd60e51b815260206004820152601e60248201527f426174746c6520616c72656164792068617320616e206f70706f6e656e74000060448201526064016109b3565b60058101805460ff60a81b1916600160a81b179055600381015460028201546001600160a01b03165f9081526010602052604081208054839290611788908490612846565b9091555050600282015482546117ab916001600160a01b03908116911683611e76565b604051818152339085907f487e0827fccc2aa300c6f7990f52de8ed400a8b510b689dfa5812fa9c6fe02529060200160405180910390a35050506112f260015f5160206128ec5f395f51905f5255565b611803611ce6565b6103e88111156118475760405162461bcd60e51b815260206004820152600f60248201526e046656520657863656564732063617608c1b60448201526064016109b3565b600d805490829055604080518281526020810184905233917f28038ed711d3e645574200f09a81d028ed70493c3a6c8c644a0260073fa89c769101610941565b60058160028110611896575f80fd5b0154905081565b5f9182526001602090815260408084206001600160a01b0393909316845291905290205460ff1690565b60098160028110611896575f80fd5b6118de611ce6565b6118e6611d12565b6001600160a01b03821661192e5760405162461bcd60e51b815260206004820152600f60248201526e496e76616c6964206164647265737360881b60448201526064016109b3565b5f81116119725760405162461bcd60e51b81526020600482015260126024820152710416d6f756e74206d757374206265203e20360741b60448201526064016109b3565b5f6001600160a01b038416156119ed576040516370a0823160e01b81523060048201526001600160a01b038516906370a0823190602401602060405180830381865afa1580156119c4573d5f5f3e3d5ffd5b505050506040513d601f19601f820116820180604052508101906119e891906128be565b6119ef565b475b6001600160a01b0385165f908152600f602090815260408083205460109092528220549293509091611a219190612878565b905080821015611a6a5760405162461bcd60e51b81526020600482015260146024820152734163636f756e74696e6720756e646572666c6f7760601b60448201526064016109b3565b5f611a758284612846565b905080841115611ac75760405162461bcd60e51b815260206004820181905260248201527f416d6f756e74206578636565647320726573637561626c652062616c616e636560448201526064016109b3565b611ad2868686611e76565b846001600160a01b0316866001600160a01b0316336001600160a01b03167f1d702a995ea42ead328cdbb2ca2718976144bf94d31a4a99c4cee1bdcb03e9ce87604051611b2191815260200190565b60405180910390a4505050610e1260015f5160206128ec5f395f51905f5255565b5f8281526001602081905260409091200154611b5d81611d2d565b610d778383611fd9565b611b6f611ce6565b6001600160a01b0382165f81815260026020908152604091829020805460ff1916851515908117909155915191825233917f9e55f2f091c6d29778ac12302ceed27e7da06bfd55d75e9ce35598c62bb1425c9101610dd3565b611bd0611ce6565b600e80546001600160a01b038381166001600160a01b0319831681179093556040805191909216808252602082019390935233917f63744e6ffcf99c3499756ec1eb99650e6c5c315b6ef03f0e68e69c32d8e3041a9101610941565b60078160028110611c3b575f80fd5b01546001600160a01b0316905081565b611c53611ce6565b6001600160a01b0382165f81815260036020908152604091829020805460ff1916851515908117909155915191825233917f01ac3c587efb27e15198ba5605bef45b7d920fb66f73fe76125d4623e635878d9101610dd3565b611cb4611ce6565b6001600160a01b038116611cdd57604051631e4fbdf760e01b81525f60048201526024016109b3565b6112f281612391565b5f546001600160a01b031633146113575760405163118cdaa760e01b81523360048201526024016109b3565b611d1a6123e0565b60025f5160206128ec5f395f51905f5255565b6112f2813361240f565b5f6001600160a01b038416611d9c576040516001600160a01b0384169083905f81818185875af1925050503d805f8114611d8c576040519150601f19603f3d011682016040523d82523d5f602084013e611d91565b606091505b505080915050611e6f565b604080516001600160a01b038581166024830152604480830186905283518084039091018152606490920183526020820180516001600160e01b031663a9059cbb60e01b179052915190915f918291881690611df99085906128d5565b5f604051808303815f865af19150503d805f8114611e32576040519150601f19603f3d011682016040523d82523d5f602084013e611e37565b606091505b509150915081611e4c575f9350505050611e6f565b80511580611e69575080806020019051810190611e69919061288b565b93505050505b9392505050565b6001600160a01b038316611f19575f826001600160a01b0316826040515f6040518083038185875af1925050503d805f8114611ecd576040519150601f19603f3d011682016040523d82523d5f602084013e611ed2565b606091505b5050905080610d775760405162461bcd60e51b8152602060048201526013602482015272115512081d1c985b9cd9995c8819985a5b1959606a1b60448201526064016109b3565b610e126001600160a01b0384168383612448565b5f611f38838361189d565b611f9c575f8381526001602081815260408084206001600160a01b0387168086529252808420805460ff19169093179092559051339286917f2f8788117e7eff1d82e926ec794901d17c78024a50270940304540a733656f0d9190a4506001610866565b505f610866565b611fb184848484600161247d565b610d7757604051635274afe760e01b81526001600160a01b03851660048201526024016109b3565b5f611fe4838361189d565b15611f9c575f8381526001602090815260408083206001600160a01b0386168085529252808320805460ff1916905551339286917ff6391f5c32d9c69d2a47ea670b442974b53935d1edc7fd64eb21e047a839171b9190a4506001610866565b6001600160a01b0383166120f35760055482101561209f5760405162461bcd60e51b815260206004820152601860248201527742657420616d6f756e742062656c6f77206d696e696d756d60401b60448201526064016109b3565b8134146120ee5760405162461bcd60e51b815260206004820152601960248201527f496e636f72726563742045544820616d6f756e742073656e740000000000000060448201526064016109b3565b6122e3565b34156121415760405162461bcd60e51b815260206004820152601e60248201527f455448206e6f7420616363657074656420666f7220455243323020626574000060448201526064016109b3565b60065482101561218e5760405162461bcd60e51b815260206004820152601860248201527742657420616d6f756e742062656c6f77206d696e696d756d60401b60448201526064016109b3565b6040516370a0823160e01b81523060048201525f906001600160a01b038516906370a0823190602401602060405180830381865afa1580156121d2573d5f5f3e3d5ffd5b505050506040513d601f19601f820116820180604052508101906121f691906128be565b905061220d6001600160a01b038516833086611fa3565b6040516370a0823160e01b81523060048201525f9082906001600160a01b038716906370a0823190602401602060405180830381865afa158015612253573d5f5f3e3d5ffd5b505050506040513d601f19601f8201168201806040525081019061227791906128be565b6122819190612846565b90508381146122e05760405162461bcd60e51b815260206004820152602560248201527f546f6b656e206e6f7420737570706f7274656420286665652d6f6e2d7472616e604482015264736665722960d81b60648201526084016109b3565b50505b6001600160a01b0383165f908152601060205260408120805484929061230a908490612878565b9091555050505050565b6009545f819003612323575050565b6007546001600160a01b03168061237c5760405162461bcd60e51b815260206004820152601760248201527f466565546f6b656e206e6f7420636f6e6669677572656400000000000000000060448201526064016109b3565b610e126001600160a01b038216843085611fa3565b5f80546001600160a01b038381166001600160a01b0319831681178455604051919092169283917f8be0079c531659141344cd1fd0a4f28419497f9722a3daafe3b4186f6b6457e09190a35050565b5f5160206128ec5f395f51905f525460020361135757604051633ee5aeb560e01b815260040160405180910390fd5b612419828261189d565b610d4e5760405163e2517d3f60e01b81526001600160a01b0382166004820152602481018390526044016109b3565b61245583838360016124ea565b610e1257604051635274afe760e01b81526001600160a01b03841660048201526024016109b3565b6040516323b872dd60e01b5f8181526001600160a01b038781166004528616602452604485905291602083606481808c5af1925060015f511483166124d95783831516156124cd573d5f823e3d81fd5b5f883b113d1516831692505b604052505f60605295945050505050565b60405163a9059cbb60e01b5f8181526001600160a01b038616600452602485905291602083604481808b5af1925060015f51148316612540578383151615612534573d5f823e3d81fd5b5f873b113d1516831692505b60405250949350505050565b5f6020828403121561255c575f5ffd5b81356001600160e01b031981168114611e6f575f5ffd5b80356001600160a01b0381168114612589575f5ffd5b919050565b5f5f5f5f608085870312156125a1575f5ffd5b6125aa85612573565b9350602085013592506125bf60408601612573565b9396929550929360600135925050565b5f5f604083850312156125e0575f5ffd5b50508035926020909101359150565b5f602082840312156125ff575f5ffd5b5035919050565b5f5f60408385031215612617575f5ffd5b8235915061262760208401612573565b90509250929050565b5f5f60408385031215612641575f5ffd5b61264a83612573565b946020939093013593505050565b5f5f5f6060848603121561266a575f5ffd5b61267384612573565b925061268160208501612573565b929592945050506040919091013590565b5f602082840312156126a2575f5ffd5b611e6f82612573565b80151581146112f2575f5ffd5b5f602082840312156126c8575f5ffd5b8135611e6f816126ab565b5f5f5f606084860312156126e5575f5ffd5b6126ee84612573565b92506020840135915061270360408501612573565b90509250925092565b81516001600160a01b039081168252602080840151821690830152604080840151821690830152606080840151908301526080808401519083015260a080840151918216908301526101008201905060c083015161276e60c084018215159052565b5060e083015161278260e084018215159052565b5092915050565b5f5f6040838503121561279a575f5ffd5b6127a383612573565b915060208301356127b3816126ab565b809150509250929050565b60208082526015908201527410985d1d1b1948191bd95cc81b9bdd08195e1a5cdd605a1b604082015260600190565b60208082526014908201527310985d1d1b1948185b1c9958591e48195b99195960621b604082015260600190565b634e487b7160e01b5f52601160045260245ffd5b80820281158282048414176108665761086661281b565b818103818111156108665761086661281b565b5f8261287357634e487b7160e01b5f52601260045260245ffd5b500490565b808201808211156108665761086661281b565b5f6020828403121561289b575f5ffd5b8151611e6f816126ab565b5f600182016128b7576128b761281b565b5060010190565b5f602082840312156128ce575f5ffd5b5051919050565b5f82518060208501845e5f92019182525091905056fe9b779b17422d0df92223018b32b4d1fa46e071723d6817e2486d003becc55f00a2646970667358221220ee6d996882116b21f2f050ee757b87e08b906c8f48998ad2824a5b8c1aaad35664736f6c634300081d0033",
  "linkReferences": {},
  "deployedLinkReferences": {},
  "immutableReferences": {
    "1485": [
      {
        "length": 32,
        "start": 775
      },
      {
        "length": 32,
        "start": 4051
      },
      {
        "length": 32,
        "start": 4982
      }
    ]
  },
  "inputSourceName": "project/contracts/HeroArenaBattle.sol",
  "buildInfoId": "solc-0_8_29-5b7996cbdf9965718138abd96214d3efa0eee978"
}