{
  "_format": "hh3-artifact-1",
  "contractName": "HeroArenaMeetTheCouncil",
  "sourceName": "contracts/HeroArenaMeetTheCouncil.sol",
  "abi": [
    {
      "inputs": [
        {
          "internalType": "contract HeroArenaChallenges",
          "name": "_HeroArenaChallengesSC",
          "type": "address"
        },
        {
          "internalType": "contract HeroArenaProfile",
          "name": "_HeroArenaProfileSC",
          "type": "address"
        }
      ],
      "stateMutability": "nonpayable",
      "type": "constructor"
    },
    {
      "inputs": [],
      "name": "AccessControlBadConfirmation",
      "type": "error"
    },
    {
      "inputs": [
        {
          "internalType": "address",
          "name": "account",
          "type": "address"
        },
        {
          "internalType": "bytes32",
          "name": "neededRole",
          "type": "bytes32"
        }
      ],
      "name": "AccessControlUnauthorizedAccount",
      "type": "error"
    },
    {
      "inputs": [
        {
          "internalType": "address",
          "name": "owner",
          "type": "address"
        }
      ],
      "name": "OwnableInvalidOwner",
      "type": "error"
    },
    {
      "inputs": [
        {
          "internalType": "address",
          "name": "account",
          "type": "address"
        }
      ],
      "name": "OwnableUnauthorizedAccount",
      "type": "error"
    },
    {
      "anonymous": false,
      "inputs": [
        {
          "indexed": true,
          "internalType": "address",
          "name": "owner",
          "type": "address"
        },
        {
          "indexed": false,
          "internalType": "bool",
          "name": "isAvail",
          "type": "bool"
        }
      ],
      "name": "AvailableSubmitUpdated",
      "type": "event"
    },
    {
      "anonymous": false,
      "inputs": [
        {
          "indexed": true,
          "internalType": "address",
          "name": "user",
          "type": "address"
        },
        {
          "indexed": true,
          "internalType": "uint256",
          "name": "challengeId",
          "type": "uint256"
        },
        {
          "indexed": true,
          "internalType": "uint8",
          "name": "lvId",
          "type": "uint8"
        },
        {
          "indexed": false,
          "internalType": "uint256",
          "name": "lvRewardPts",
          "type": "uint256"
        }
      ],
      "name": "LevelSubmited",
      "type": "event"
    },
    {
      "anonymous": false,
      "inputs": [
        {
          "indexed": true,
          "internalType": "address",
          "name": "previousOwner",
          "type": "address"
        },
        {
          "indexed": true,
          "internalType": "address",
          "name": "newOwner",
          "type": "address"
        }
      ],
      "name": "OwnershipTransferred",
      "type": "event"
    },
    {
      "anonymous": false,
      "inputs": [
        {
          "indexed": true,
          "internalType": "bytes32",
          "name": "role",
          "type": "bytes32"
        },
        {
          "indexed": true,
          "internalType": "bytes32",
          "name": "previousAdminRole",
          "type": "bytes32"
        },
        {
          "indexed": true,
          "internalType": "bytes32",
          "name": "newAdminRole",
          "type": "bytes32"
        }
      ],
      "name": "RoleAdminChanged",
      "type": "event"
    },
    {
      "anonymous": false,
      "inputs": [
        {
          "indexed": true,
          "internalType": "bytes32",
          "name": "role",
          "type": "bytes32"
        },
        {
          "indexed": true,
          "internalType": "address",
          "name": "account",
          "type": "address"
        },
        {
          "indexed": true,
          "internalType": "address",
          "name": "sender",
          "type": "address"
        }
      ],
      "name": "RoleGranted",
      "type": "event"
    },
    {
      "anonymous": false,
      "inputs": [
        {
          "indexed": true,
          "internalType": "bytes32",
          "name": "role",
          "type": "bytes32"
        },
        {
          "indexed": true,
          "internalType": "address",
          "name": "account",
          "type": "address"
        },
        {
          "indexed": true,
          "internalType": "address",
          "name": "sender",
          "type": "address"
        }
      ],
      "name": "RoleRevoked",
      "type": "event"
    },
    {
      "inputs": [],
      "name": "DEFAULT_ADMIN_ROLE",
      "outputs": [
        {
          "internalType": "bytes32",
          "name": "",
          "type": "bytes32"
        }
      ],
      "stateMutability": "view",
      "type": "function"
    },
    {
      "inputs": [],
      "name": "HeroArenaChallengesSC",
      "outputs": [
        {
          "internalType": "contract HeroArenaChallenges",
          "name": "",
          "type": "address"
        }
      ],
      "stateMutability": "view",
      "type": "function"
    },
    {
      "inputs": [],
      "name": "HeroArenaProfileSC",
      "outputs": [
        {
          "internalType": "contract HeroArenaProfile",
          "name": "",
          "type": "address"
        }
      ],
      "stateMutability": "view",
      "type": "function"
    },
    {
      "inputs": [],
      "name": "OPERATOR_ROLE",
      "outputs": [
        {
          "internalType": "bytes32",
          "name": "",
          "type": "bytes32"
        }
      ],
      "stateMutability": "view",
      "type": "function"
    },
    {
      "inputs": [],
      "name": "availableSubmit",
      "outputs": [
        {
          "internalType": "bool",
          "name": "",
          "type": "bool"
        }
      ],
      "stateMutability": "view",
      "type": "function"
    },
    {
      "inputs": [
        {
          "internalType": "bytes32",
          "name": "role",
          "type": "bytes32"
        }
      ],
      "name": "getRoleAdmin",
      "outputs": [
        {
          "internalType": "bytes32",
          "name": "",
          "type": "bytes32"
        }
      ],
      "stateMutability": "view",
      "type": "function"
    },
    {
      "inputs": [
        {
          "internalType": "bytes32",
          "name": "role",
          "type": "bytes32"
        },
        {
          "internalType": "address",
          "name": "account",
          "type": "address"
        }
      ],
      "name": "grantRole",
      "outputs": [],
      "stateMutability": "nonpayable",
      "type": "function"
    },
    {
      "inputs": [
        {
          "internalType": "bytes32",
          "name": "role",
          "type": "bytes32"
        },
        {
          "internalType": "address",
          "name": "account",
          "type": "address"
        }
      ],
      "name": "hasRole",
      "outputs": [
        {
          "internalType": "bool",
          "name": "",
          "type": "bool"
        }
      ],
      "stateMutability": "view",
      "type": "function"
    },
    {
      "inputs": [],
      "name": "initLevels",
      "outputs": [],
      "stateMutability": "nonpayable",
      "type": "function"
    },
    {
      "inputs": [],
      "name": "owner",
      "outputs": [
        {
          "internalType": "address",
          "name": "",
          "type": "address"
        }
      ],
      "stateMutability": "view",
      "type": "function"
    },
    {
      "inputs": [],
      "name": "renounceOwnership",
      "outputs": [],
      "stateMutability": "nonpayable",
      "type": "function"
    },
    {
      "inputs": [
        {
          "internalType": "bytes32",
          "name": "role",
          "type": "bytes32"
        },
        {
          "internalType": "address",
          "name": "callerConfirmation",
          "type": "address"
        }
      ],
      "name": "renounceRole",
      "outputs": [],
      "stateMutability": "nonpayable",
      "type": "function"
    },
    {
      "inputs": [
        {
          "internalType": "bytes32",
          "name": "role",
          "type": "bytes32"
        },
        {
          "internalType": "address",
          "name": "account",
          "type": "address"
        }
      ],
      "name": "revokeRole",
      "outputs": [],
      "stateMutability": "nonpayable",
      "type": "function"
    },
    {
      "inputs": [
        {
          "internalType": "address",
          "name": "_userAddress",
          "type": "address"
        },
        {
          "internalType": "uint8",
          "name": "_lvId",
          "type": "uint8"
        }
      ],
      "name": "submitLv",
      "outputs": [],
      "stateMutability": "nonpayable",
      "type": "function"
    },
    {
      "inputs": [],
      "name": "submitMaxLevelId",
      "outputs": [
        {
          "internalType": "uint8",
          "name": "",
          "type": "uint8"
        }
      ],
      "stateMutability": "view",
      "type": "function"
    },
    {
      "inputs": [],
      "name": "submitMinLevelId",
      "outputs": [
        {
          "internalType": "uint8",
          "name": "",
          "type": "uint8"
        }
      ],
      "stateMutability": "view",
      "type": "function"
    },
    {
      "inputs": [
        {
          "internalType": "bytes4",
          "name": "interfaceId",
          "type": "bytes4"
        }
      ],
      "name": "supportsInterface",
      "outputs": [
        {
          "internalType": "bool",
          "name": "",
          "type": "bool"
        }
      ],
      "stateMutability": "view",
      "type": "function"
    },
    {
      "inputs": [
        {
          "internalType": "address",
          "name": "newOwner",
          "type": "address"
        }
      ],
      "name": "transferOwnership",
      "outputs": [],
      "stateMutability": "nonpayable",
      "type": "function"
    },
    {
      "inputs": [
        {
          "internalType": "bool",
          "name": "_isAvailable",
          "type": "bool"
        }
      ],
      "name": "updateAvailableSubmit",
      "outputs": [],
      "stateMutability": "nonpayable",
      "type": "function"
    }
  ],
  "bytecode": "0x608060405234801561000f575f5ffd5b5060405161104038038061104083398101604081905261002e916101b0565b338061005357604051631e4fbdf760e01b81525f600482015260240160405180910390fd5b61005c8161009f565b50600280546001600160a01b038085166001600160a01b03199283161790925560038054928416929091169190911790556100975f336100f0565b5050506101e8565b600180546001600160a01b038381166001600160a01b0319831681179093556040519116919082907f8be0079c531659141344cd1fd0a4f28419497f9722a3daafe3b4186f6b6457e0905f90a35050565b5f828152602081815260408083206001600160a01b038516845290915281205460ff16610190575f838152602081815260408083206001600160a01b03861684529091529020805460ff191660011790556101483390565b6001600160a01b0316826001600160a01b0316847f2f8788117e7eff1d82e926ec794901d17c78024a50270940304540a733656f0d60405160405180910390a4506001610193565b505f5b92915050565b6001600160a01b03811681146101ad575f5ffd5b50565b5f5f604083850312156101c1575f5ffd5b82516101cc81610199565b60208401519092506101dd81610199565b809150509250929050565b610e4b806101f55f395ff3fe608060405234801561000f575f5ffd5b506004361061011c575f3560e01c80638da5cb5b116100a9578063addb81be1161006e578063addb81be14610266578063d3f8573f1461027a578063d547741f1461028d578063f2fde38b146102a0578063f5b541a6146102b3575f5ffd5b80638da5cb5b1461020257806391d148541461021357806396553a15146102265780639d577f1814610239578063a217fddf1461025f575f5ffd5b80632f2ff15d116100ef5780632f2ff15d146101b657806336568abe146101cb57806367b82b7b146101de578063715018a6146101f25780637d8a13f1146101fa575f5ffd5b806301ffc9a7146101205780631a660278146101485780631f43f8d114610173578063248a9ca314610186575b5f5ffd5b61013361012e366004610d02565b6102da565b60405190151581526020015b60405180910390f35b60035461015b906001600160a01b031681565b6040516001600160a01b03909116815260200161013f565b60025461015b906001600160a01b031681565b6101a8610194366004610d30565b5f9081526020819052604090206001015490565b60405190815260200161013f565b6101c96101c4366004610d62565b610310565b005b6101c96101d9366004610d62565b61033a565b60035461013390600160a01b900460ff1681565b6101c9610372565b6101c9610385565b6001546001600160a01b031661015b565b610133610221366004610d62565b610786565b6101c9610234366004610d8c565b6107ae565b60035461024d90600160b01b900460ff1681565b60405160ff909116815260200161013f565b6101a85f81565b60035461024d90600160a81b900460ff1681565b6101c9610288366004610dab565b610810565b6101c961029b366004610d62565b610ae4565b6101c96102ae366004610de5565b610b08565b6101a87f97667070c54ef182b0f5858b034beac1b6f3089aa2d3188bb1e8929f4fa9b92981565b5f6001600160e01b03198216637965db0b60e01b148061030a57506301ffc9a760e01b6001600160e01b03198316145b92915050565b5f8281526020819052604090206001015461032a81610b45565b6103348383610b4f565b50505050565b6001600160a01b03811633146103635760405163334bd91960e11b815260040160405180910390fd5b61036d8282610bde565b505050565b61037a610c47565b6103835f610c74565b565b61038d610c47565b600354600160b01b900460ff16156103e25760405162461bcd60e51b8152602060048201526013602482015272105b1c9958591e481a5b9a5d1a585b1a5e9959606a1b60448201526064015b60405180910390fd5b600254604051631f117b0960e31b81525f600482015260606024820152600c60648201526b2630b23232b91021b634b6b160a11b6084820152600560448201526001600160a01b039091169063f88bd8489060a4015f604051808303815f87803b15801561044e575f5ffd5b505af1158015610460573d5f5f3e3d5ffd5b5050600254604051631f117b0960e31b81526001600482015260606024820152600c60648201526b12db9a59da1d08119a59da1d60a21b6084820152600560448201526001600160a01b03909116925063f88bd848915060a4015f604051808303815f87803b1580156104d1575f5ffd5b505af11580156104e3573d5f5f3e3d5ffd5b505060028054604051631f117b0960e31b8152600481019290925260606024830152600c60648301526b0aec2e4e4d2dee44084c2e8d60a31b6084830152600a60448301526001600160a01b0316925063f88bd848915060a4015f604051808303815f87803b158015610554575f5ffd5b505af1158015610566573d5f5f3e3d5ffd5b5050600254604051631f117b0960e31b8152600360048201526060602482015260096064820152684669726573746f726d60b81b6084820152600a60448201526001600160a01b03909116925063f88bd848915060a4015f604051808303815f87803b1580156105d4575f5ffd5b505af11580156105e6573d5f5f3e3d5ffd5b5050600254604051631f117b0960e31b815260048082015260606024820152600a60648201526953776974636865726f6f60b01b6084820152600f60448201526001600160a01b03909116925063f88bd848915060a4015f604051808303815f87803b158015610654575f5ffd5b505af1158015610666573d5f5f3e3d5ffd5b5050600254604051631f117b0960e31b81526005600482015260606024820152600c60648201526b57697a6172642044616e636560a01b6084820152600f60448201526001600160a01b03909116925063f88bd848915060a4015f604051808303815f87803b1580156106d7575f5ffd5b505af11580156106e9573d5f5f3e3d5ffd5b5050600254604051631f117b0960e31b81526006600482015260606024820152600c60648201526b21b63ab9ba32b9102137b6b160a11b6084820152601460448201526001600160a01b03909116925063f88bd848915060a4015f604051808303815f87803b15801561075a575f5ffd5b505af115801561076c573d5f5f3e3d5ffd5b50506003805461ffff60a81b1916600360b11b1790555050565b5f918252602082815260408084206001600160a01b0393909316845291905290205460ff1690565b6107b6610c47565b60038054821515600160a01b0260ff60a01b1990911617905560405133907f8a7f8e0d5d27d921edc14b68c184ea9e814ce5fc29d2259c2274d6a512fbc1e39061080590841515815260200190565b60405180910390a250565b61083a7f97667070c54ef182b0f5858b034beac1b6f3089aa2d3188bb1e8929f4fa9b92933610786565b61087d5760405162461bcd60e51b81526020600482015260146024820152734e6f7420616e206f70657261746f7220726f6c6560601b60448201526064016103d9565b600354600160a01b900460ff166108c65760405162461bcd60e51b815260206004820152600d60248201526c10d85b9b9bdd081cdd589b5a5d609a1b60448201526064016103d9565b60035460ff600160a81b9091048116908216108015906108f6575060035460ff600160b01b909104811690821611155b6109425760405162461bcd60e51b815260206004820152601960248201527f496e707574206c6576656c496420756e617661696c61626c650000000000000060448201526064016103d9565b60025460405163ba99690f60e01b81526001600160a01b03848116600483015260ff841660248301525f92169063ba99690f906044016020604051808303815f875af1158015610994573d5f5f3e3d5ffd5b505050506040513d601f19601f820116820180604052508101906109b89190610dfe565b60025460405163afed397160e01b815260ff851660048201529192505f916001600160a01b039091169063afed397190602401602060405180830381865afa158015610a06573d5f5f3e3d5ffd5b505050506040513d601f19601f82011682018060405250810190610a2a9190610dfe565b600354604051630dee0bfb60e11b81526001600160a01b0387811660048301526024820184905260ff87166044830152929350911690631bdc17f6906064015f604051808303815f87803b158015610a80575f5ffd5b505af1158015610a92573d5f5f3e3d5ffd5b505050508260ff1682856001600160a01b03167f4ef59494d89017ae343d995f7a9a3313750a298d58033500065d26f8c88b3ae984604051610ad691815260200190565b60405180910390a450505050565b5f82815260208190526040902060010154610afe81610b45565b6103348383610bde565b610b10610c47565b6001600160a01b038116610b3957604051631e4fbdf760e01b81525f60048201526024016103d9565b610b4281610c74565b50565b610b428133610cc5565b5f610b5a8383610786565b610bd7575f838152602081815260408083206001600160a01b03861684529091529020805460ff19166001179055610b8f3390565b6001600160a01b0316826001600160a01b0316847f2f8788117e7eff1d82e926ec794901d17c78024a50270940304540a733656f0d60405160405180910390a450600161030a565b505f61030a565b5f610be98383610786565b15610bd7575f838152602081815260408083206001600160a01b0386168085529252808320805460ff1916905551339286917ff6391f5c32d9c69d2a47ea670b442974b53935d1edc7fd64eb21e047a839171b9190a450600161030a565b6001546001600160a01b031633146103835760405163118cdaa760e01b81523360048201526024016103d9565b600180546001600160a01b038381166001600160a01b0319831681179093556040519116919082907f8be0079c531659141344cd1fd0a4f28419497f9722a3daafe3b4186f6b6457e0905f90a35050565b610ccf8282610786565b610cfe5760405163e2517d3f60e01b81526001600160a01b0382166004820152602481018390526044016103d9565b5050565b5f60208284031215610d12575f5ffd5b81356001600160e01b031981168114610d29575f5ffd5b9392505050565b5f60208284031215610d40575f5ffd5b5035919050565b80356001600160a01b0381168114610d5d575f5ffd5b919050565b5f5f60408385031215610d73575f5ffd5b82359150610d8360208401610d47565b90509250929050565b5f60208284031215610d9c575f5ffd5b81358015158114610d29575f5ffd5b5f5f60408385031215610dbc575f5ffd5b610dc583610d47565b9150602083013560ff81168114610dda575f5ffd5b809150509250929050565b5f60208284031215610df5575f5ffd5b610d2982610d47565b5f60208284031215610e0e575f5ffd5b505191905056fea26469706673582212209734aac888c669443b6061dc3fd8d6493c83224ffcf22c990c8f699efe90cd3864736f6c634300081d0033",
  "linkReferences": {},
  "deployedLinkReferences": {},
  "immutableReferences": {},
  "inputSourceName": "project/contracts/HeroArenaMeetTheCouncil.sol",
  "buildInfoId": "solc-0_8_29-4d9f6714abba30b33cb294ed8be454ffc6f4f417"
}