{
  "_format": "hh3-artifact-1",
  "contractName": "HeroArenaSwap",
  "sourceName": "contracts/HeroArenaSwap.sol",
  "abi": [
    {
      "inputs": [
        {
          "internalType": "address",
          "name": "_HapToken",
          "type": "address"
        },
        {
          "internalType": "uint256",
          "name": "_rate",
          "type": "uint256"
        }
      ],
      "stateMutability": "nonpayable",
      "type": "constructor"
    },
    {
      "inputs": [
        {
          "internalType": "address",
          "name": "owner",
          "type": "address"
        }
      ],
      "name": "OwnableInvalidOwner",
      "type": "error"
    },
    {
      "inputs": [
        {
          "internalType": "address",
          "name": "account",
          "type": "address"
        }
      ],
      "name": "OwnableUnauthorizedAccount",
      "type": "error"
    },
    {
      "inputs": [
        {
          "internalType": "address",
          "name": "token",
          "type": "address"
        }
      ],
      "name": "SafeERC20FailedOperation",
      "type": "error"
    },
    {
      "anonymous": false,
      "inputs": [
        {
          "indexed": true,
          "internalType": "address",
          "name": "from",
          "type": "address"
        },
        {
          "indexed": false,
          "internalType": "uint256",
          "name": "amount",
          "type": "uint256"
        }
      ],
      "name": "HapDeposited",
      "type": "event"
    },
    {
      "anonymous": false,
      "inputs": [
        {
          "indexed": true,
          "internalType": "address",
          "name": "to",
          "type": "address"
        },
        {
          "indexed": false,
          "internalType": "uint256",
          "name": "amount",
          "type": "uint256"
        }
      ],
      "name": "HapWithdrawn",
      "type": "event"
    },
    {
      "anonymous": false,
      "inputs": [
        {
          "indexed": true,
          "internalType": "address",
          "name": "to",
          "type": "address"
        },
        {
          "indexed": false,
          "internalType": "uint256",
          "name": "amount",
          "type": "uint256"
        }
      ],
      "name": "NativeTokenWithdrawn",
      "type": "event"
    },
    {
      "anonymous": false,
      "inputs": [
        {
          "indexed": true,
          "internalType": "address",
          "name": "previousOwner",
          "type": "address"
        },
        {
          "indexed": true,
          "internalType": "address",
          "name": "newOwner",
          "type": "address"
        }
      ],
      "name": "OwnershipTransferred",
      "type": "event"
    },
    {
      "anonymous": false,
      "inputs": [
        {
          "indexed": false,
          "internalType": "uint256",
          "name": "oldRate",
          "type": "uint256"
        },
        {
          "indexed": false,
          "internalType": "uint256",
          "name": "newRate",
          "type": "uint256"
        }
      ],
      "name": "RateUpdated",
      "type": "event"
    },
    {
      "anonymous": false,
      "inputs": [
        {
          "indexed": false,
          "internalType": "bool",
          "name": "enabled",
          "type": "bool"
        }
      ],
      "name": "SwapEnabledUpdated",
      "type": "event"
    },
    {
      "anonymous": false,
      "inputs": [
        {
          "indexed": true,
          "internalType": "address",
          "name": "user",
          "type": "address"
        },
        {
          "indexed": false,
          "internalType": "uint256",
          "name": "ethIn",
          "type": "uint256"
        },
        {
          "indexed": false,
          "internalType": "uint256",
          "name": "hapOut",
          "type": "uint256"
        }
      ],
      "name": "Swapped",
      "type": "event"
    },
    {
      "inputs": [],
      "name": "HapToken",
      "outputs": [
        {
          "internalType": "contract IERC20",
          "name": "",
          "type": "address"
        }
      ],
      "stateMutability": "view",
      "type": "function"
    },
    {
      "inputs": [
        {
          "internalType": "uint256",
          "name": "amount",
          "type": "uint256"
        }
      ],
      "name": "depositHap",
      "outputs": [],
      "stateMutability": "nonpayable",
      "type": "function"
    },
    {
      "inputs": [],
      "name": "owner",
      "outputs": [
        {
          "internalType": "address",
          "name": "",
          "type": "address"
        }
      ],
      "stateMutability": "view",
      "type": "function"
    },
    {
      "inputs": [
        {
          "internalType": "uint256",
          "name": "nativeTokenAmount",
          "type": "uint256"
        }
      ],
      "name": "previewSwap",
      "outputs": [
        {
          "internalType": "uint256",
          "name": "hapOut",
          "type": "uint256"
        }
      ],
      "stateMutability": "view",
      "type": "function"
    },
    {
      "inputs": [],
      "name": "rate",
      "outputs": [
        {
          "internalType": "uint256",
          "name": "",
          "type": "uint256"
        }
      ],
      "stateMutability": "view",
      "type": "function"
    },
    {
      "inputs": [],
      "name": "renounceOwnership",
      "outputs": [],
      "stateMutability": "nonpayable",
      "type": "function"
    },
    {
      "inputs": [
        {
          "internalType": "uint256",
          "name": "_rate",
          "type": "uint256"
        }
      ],
      "name": "setRate",
      "outputs": [],
      "stateMutability": "nonpayable",
      "type": "function"
    },
    {
      "inputs": [
        {
          "internalType": "bool",
          "name": "_enabled",
          "type": "bool"
        }
      ],
      "name": "setSwapEnabled",
      "outputs": [],
      "stateMutability": "nonpayable",
      "type": "function"
    },
    {
      "inputs": [],
      "name": "swap",
      "outputs": [],
      "stateMutability": "payable",
      "type": "function"
    },
    {
      "inputs": [],
      "name": "swapEnabled",
      "outputs": [
        {
          "internalType": "bool",
          "name": "",
          "type": "bool"
        }
      ],
      "stateMutability": "view",
      "type": "function"
    },
    {
      "inputs": [
        {
          "internalType": "address",
          "name": "newOwner",
          "type": "address"
        }
      ],
      "name": "transferOwnership",
      "outputs": [],
      "stateMutability": "nonpayable",
      "type": "function"
    },
    {
      "inputs": [
        {
          "internalType": "uint256",
          "name": "amount",
          "type": "uint256"
        }
      ],
      "name": "withdrawHap",
      "outputs": [],
      "stateMutability": "nonpayable",
      "type": "function"
    },
    {
      "inputs": [
        {
          "internalType": "uint256",
          "name": "amount",
          "type": "uint256"
        }
      ],
      "name": "withdrawNativeToken",
      "outputs": [],
      "stateMutability": "nonpayable",
      "type": "function"
    },
    {
      "stateMutability": "payable",
      "type": "receive"
    }
  ],
  "bytecode": "0x60a060405234801561000f575f5ffd5b50604051610e03380380610e0383398101604081905261002e9161016a565b338061005457604051631e4fbdf760e01b81525f60048201526024015b60405180910390fd5b61005d8161011b565b506001600160a01b0382166100b45760405162461bcd60e51b815260206004820152601960248201527f496e76616c69642048415020746f6b656e206164647265737300000000000000604482015260640161004b565b5f81116100f65760405162461bcd60e51b815260206004820152601060248201526f052617465206d757374206265203e20360841b604482015260640161004b565b6001600160a01b0390911660805260019081556002805460ff191690911790556101a1565b5f80546001600160a01b038381166001600160a01b0319831681178455604051919092169283917f8be0079c531659141344cd1fd0a4f28419497f9722a3daafe3b4186f6b6457e09190a35050565b5f5f6040838503121561017b575f5ffd5b82516001600160a01b0381168114610191575f5ffd5b6020939093015192949293505050565b608051610c276101dc5f395f81816101f9015281816104b70152818161058301528181610704015281816107d001526108630152610c275ff3fe6080604052600436106100c2575f3560e01c8063715018a61161007c578063b845459d11610057578063b845459d146101e8578063bf5e8a661461021b578063e01af92c1461023a578063f2fde38b14610259575f5ffd5b8063715018a61461019c5780638119c065146101b05780638da5cb5b146101b8575f5ffd5b806317e0f252146100cd5780632c4e722e146100ee57806333dd439f1461011657806334fcf43714610135578063430fdb0f146101545780636ddd171314610173575f5ffd5b366100c957005b5f5ffd5b3480156100d8575f5ffd5b506100ec6100e7366004610b09565b610278565b005b3480156100f9575f5ffd5b5061010360015481565b6040519081526020015b60405180910390f35b348015610121575f5ffd5b50610103610130366004610b09565b6103c6565b348015610140575f5ffd5b506100ec61014f366004610b09565b6103ee565b34801561015f575f5ffd5b506100ec61016e366004610b09565b610479565b34801561017e575f5ffd5b5060025461018c9060ff1681565b604051901515815260200161010d565b3480156101a7575f5ffd5b506100ec6105e3565b6100ec6105f6565b3480156101c3575f5ffd5b505f546001600160a01b03165b6040516001600160a01b03909116815260200161010d565b3480156101f3575f5ffd5b506101d07f000000000000000000000000000000000000000000000000000000000000000081565b348015610226575f5ffd5b506100ec610235366004610b09565b61082f565b348015610245575f5ffd5b506100ec610254366004610b20565b6108bd565b348015610264575f5ffd5b506100ec610273366004610b46565b61090c565b610280610949565b5f81116102a85760405162461bcd60e51b815260040161029f90610b6c565b60405180910390fd5b804710156102f85760405162461bcd60e51b815260206004820152601860248201527f496e73756666696369656e74204554482062616c616e63650000000000000000604482015260640161029f565b6040515f90339083908381818185875af1925050503d805f8114610337576040519150601f19603f3d011682016040523d82523d5f602084013e61033c565b606091505b505090508061038d5760405162461bcd60e51b815260206004820152601c60248201527f4e617469766520746f6b656e207472616e73666572206661696c656400000000604482015260640161029f565b60405182815233907fcb34bab4d8a21ce2df6988d496d854246c2a96147dac484b1e1a30be9213befd9060200160405180910390a25050565b5f670de0b6b3a7640000600154836103de9190610b98565b6103e89190610bbb565b92915050565b6103f6610949565b5f81116104385760405162461bcd60e51b815260206004820152601060248201526f052617465206d757374206265203e20360841b604482015260640161029f565b60015460408051918252602082018390527fb38780ddde1f073d91c150de2696f3f7085883648ba21cc5ef01029cb21d1916910160405180910390a1600155565b610481610949565b5f81116104a05760405162461bcd60e51b815260040161029f90610b6c565b6040516370a0823160e01b815230600482015281907f00000000000000000000000000000000000000000000000000000000000000006001600160a01b0316906370a0823190602401602060405180830381865afa158015610504573d5f5f3e3d5ffd5b505050506040513d601f19601f820116820180604052508101906105289190610bda565b10156105765760405162461bcd60e51b815260206004820152601860248201527f496e73756666696369656e74204841502062616c616e63650000000000000000604482015260640161029f565b6105aa6001600160a01b037f0000000000000000000000000000000000000000000000000000000000000000163383610975565b60405181815233907fd742e3480219e16d56f9d65ec347d0b7044771ed0478556eb0a6b78f9a3881e0906020015b60405180910390a250565b6105eb610949565b6105f45f6109af565b565b60025460ff1661063b5760405162461bcd60e51b815260206004820152601060248201526f14ddd85c081a5cc8191a5cd8589b195960821b604482015260640161029f565b5f34116106835760405162461bcd60e51b815260206004820152601660248201527526bab9ba1039b2b732102730ba34bb32903a37b5b2b760511b604482015260640161029f565b5f670de0b6b3a76400006001543461069b9190610b98565b6106a59190610bbb565b90505f81116106ed5760405162461bcd60e51b815260206004820152601460248201527312105408185b5bdd5b9d081d1bdbc81cdb585b1b60621b604482015260640161029f565b6040516370a0823160e01b815230600482015281907f00000000000000000000000000000000000000000000000000000000000000006001600160a01b0316906370a0823190602401602060405180830381865afa158015610751573d5f5f3e3d5ffd5b505050506040513d601f19601f820116820180604052508101906107759190610bda565b10156107c35760405162461bcd60e51b815260206004820152601c60248201527f496e73756666696369656e742048415020696e20636f6e747261637400000000604482015260640161029f565b6107f76001600160a01b037f0000000000000000000000000000000000000000000000000000000000000000163383610975565b604080513481526020810183905233917f3a9a9f34f5831e9c8ecb66ab3aa308b2ff31eaca434615f6c9cadc656a9af71c91016105d8565b610837610949565b5f81116108565760405162461bcd60e51b815260040161029f90610b6c565b61088b6001600160a01b037f0000000000000000000000000000000000000000000000000000000000000000163330846109fe565b60405181815233907f52ed3aa74e73d574f3bb12c7127c802b8b055edf56baedde3ed8893a5571a712906020016105d8565b6108c5610949565b6002805460ff19168215159081179091556040519081527f436b6cf978c7b6998fcce43dfe4d37e3a0dc2bb780144a2eb55d7138201e8a129060200160405180910390a150565b610914610949565b6001600160a01b03811661093d57604051631e4fbdf760e01b81525f600482015260240161029f565b610946816109af565b50565b5f546001600160a01b031633146105f45760405163118cdaa760e01b815233600482015260240161029f565b6109828383836001610a3a565b6109aa57604051635274afe760e01b81526001600160a01b038416600482015260240161029f565b505050565b5f80546001600160a01b038381166001600160a01b0319831681178455604051919092169283917f8be0079c531659141344cd1fd0a4f28419497f9722a3daafe3b4186f6b6457e09190a35050565b610a0c848484846001610a9c565b610a3457604051635274afe760e01b81526001600160a01b038516600482015260240161029f565b50505050565b60405163a9059cbb60e01b5f8181526001600160a01b038616600452602485905291602083604481808b5af1925060015f51148316610a90578383151615610a84573d5f823e3d81fd5b5f873b113d1516831692505b60405250949350505050565b6040516323b872dd60e01b5f8181526001600160a01b038781166004528616602452604485905291602083606481808c5af1925060015f51148316610af8578383151615610aec573d5f823e3d81fd5b5f883b113d1516831692505b604052505f60605295945050505050565b5f60208284031215610b19575f5ffd5b5035919050565b5f60208284031215610b30575f5ffd5b81358015158114610b3f575f5ffd5b9392505050565b5f60208284031215610b56575f5ffd5b81356001600160a01b0381168114610b3f575f5ffd5b6020808252601290820152710416d6f756e74206d757374206265203e20360741b604082015260600190565b80820281158282048414176103e857634e487b7160e01b5f52601160045260245ffd5b5f82610bd557634e487b7160e01b5f52601260045260245ffd5b500490565b5f60208284031215610bea575f5ffd5b505191905056fea26469706673582212205b2dd9b6713fac77b5d65e66196c3b8998fcf4de43f3fe2874255e0c15f6aa0064736f6c634300081c0033",
  "linkReferences": {},
  "deployedLinkReferences": {},
  "immutableReferences": {
    "827": [
      {
        "length": 32,
        "start": 505
      },
      {
        "length": 32,
        "start": 1207
      },
      {
        "length": 32,
        "start": 1411
      },
      {
        "length": 32,
        "start": 1796
      },
      {
        "length": 32,
        "start": 2000
      },
      {
        "length": 32,
        "start": 2147
      }
    ]
  },
  "inputSourceName": "project/contracts/HeroArenaSwap.sol",
  "buildInfoId": "solc-0_8_28-fdb8971d8a13cf9d25db0e9a3495840ec13ea3ea"
}