{
  "_format": "hh3-artifact-1",
  "contractName": "HeroArenaBattle",
  "sourceName": "contracts/HeroArenaBattle.sol",
  "abi": [
    {
      "inputs": [
        {
          "internalType": "contract HeroArenaProfileInterface",
          "name": "_HeroArenaProfileSC",
          "type": "address"
        }
      ],
      "stateMutability": "nonpayable",
      "type": "constructor"
    },
    {
      "inputs": [],
      "name": "AccessControlBadConfirmation",
      "type": "error"
    },
    {
      "inputs": [
        {
          "internalType": "address",
          "name": "account",
          "type": "address"
        },
        {
          "internalType": "bytes32",
          "name": "neededRole",
          "type": "bytes32"
        }
      ],
      "name": "AccessControlUnauthorizedAccount",
      "type": "error"
    },
    {
      "inputs": [
        {
          "internalType": "address",
          "name": "owner",
          "type": "address"
        }
      ],
      "name": "OwnableInvalidOwner",
      "type": "error"
    },
    {
      "inputs": [
        {
          "internalType": "address",
          "name": "account",
          "type": "address"
        }
      ],
      "name": "OwnableUnauthorizedAccount",
      "type": "error"
    },
    {
      "inputs": [],
      "name": "ReentrancyGuardReentrantCall",
      "type": "error"
    },
    {
      "inputs": [
        {
          "internalType": "address",
          "name": "token",
          "type": "address"
        }
      ],
      "name": "SafeERC20FailedOperation",
      "type": "error"
    },
    {
      "anonymous": false,
      "inputs": [
        {
          "indexed": true,
          "internalType": "address",
          "name": "owner",
          "type": "address"
        },
        {
          "indexed": true,
          "internalType": "address",
          "name": "token",
          "type": "address"
        },
        {
          "indexed": false,
          "internalType": "bool",
          "name": "allowed",
          "type": "bool"
        }
      ],
      "name": "AllowedBetTokenUpdated",
      "type": "event"
    },
    {
      "anonymous": false,
      "inputs": [
        {
          "indexed": true,
          "internalType": "address",
          "name": "owner",
          "type": "address"
        },
        {
          "indexed": false,
          "internalType": "bool",
          "name": "isAvail",
          "type": "bool"
        }
      ],
      "name": "AvailableCreateBattleUpdated",
      "type": "event"
    },
    {
      "anonymous": false,
      "inputs": [
        {
          "indexed": true,
          "internalType": "uint256",
          "name": "battleId",
          "type": "uint256"
        },
        {
          "indexed": true,
          "internalType": "address",
          "name": "closedBy",
          "type": "address"
        },
        {
          "indexed": false,
          "internalType": "uint256",
          "name": "refundedAmount",
          "type": "uint256"
        }
      ],
      "name": "BattleClosed",
      "type": "event"
    },
    {
      "anonymous": false,
      "inputs": [
        {
          "indexed": true,
          "internalType": "uint256",
          "name": "battleId",
          "type": "uint256"
        },
        {
          "indexed": true,
          "internalType": "address",
          "name": "creator",
          "type": "address"
        },
        {
          "indexed": false,
          "internalType": "address",
          "name": "targetAddress",
          "type": "address"
        },
        {
          "indexed": false,
          "internalType": "address",
          "name": "betTokenAddress",
          "type": "address"
        },
        {
          "indexed": false,
          "internalType": "uint256",
          "name": "betAmount",
          "type": "uint256"
        }
      ],
      "name": "BattleCreated",
      "type": "event"
    },
    {
      "anonymous": false,
      "inputs": [
        {
          "indexed": true,
          "internalType": "uint256",
          "name": "battleId",
          "type": "uint256"
        },
        {
          "indexed": true,
          "internalType": "address",
          "name": "winner",
          "type": "address"
        },
        {
          "indexed": false,
          "internalType": "uint256",
          "name": "totalReward",
          "type": "uint256"
        }
      ],
      "name": "BattleEnded",
      "type": "event"
    },
    {
      "anonymous": false,
      "inputs": [
        {
          "indexed": true,
          "internalType": "uint256",
          "name": "battleId",
          "type": "uint256"
        },
        {
          "indexed": true,
          "internalType": "address",
          "name": "joiner",
          "type": "address"
        }
      ],
      "name": "BattleJoined",
      "type": "event"
    },
    {
      "anonymous": false,
      "inputs": [
        {
          "indexed": true,
          "internalType": "address",
          "name": "owner",
          "type": "address"
        },
        {
          "indexed": false,
          "internalType": "address",
          "name": "feeToken",
          "type": "address"
        },
        {
          "indexed": false,
          "internalType": "uint256",
          "name": "feeTokenAmount",
          "type": "uint256"
        },
        {
          "indexed": false,
          "internalType": "address",
          "name": "bonusToken",
          "type": "address"
        },
        {
          "indexed": false,
          "internalType": "uint256",
          "name": "bonusTokenAmount",
          "type": "uint256"
        }
      ],
      "name": "FeeTokenAndBonusTokenUpdated",
      "type": "event"
    },
    {
      "anonymous": false,
      "inputs": [
        {
          "indexed": true,
          "internalType": "address",
          "name": "owner",
          "type": "address"
        },
        {
          "indexed": true,
          "internalType": "address",
          "name": "userAddress",
          "type": "address"
        },
        {
          "indexed": false,
          "internalType": "bool",
          "name": "isForbidden",
          "type": "bool"
        }
      ],
      "name": "ForbiddenToPlayUpdated",
      "type": "event"
    },
    {
      "anonymous": false,
      "inputs": [
        {
          "indexed": true,
          "internalType": "address",
          "name": "owner",
          "type": "address"
        },
        {
          "indexed": false,
          "internalType": "uint256",
          "name": "amount0",
          "type": "uint256"
        },
        {
          "indexed": false,
          "internalType": "uint256",
          "name": "amount1",
          "type": "uint256"
        }
      ],
      "name": "MinimumBetTokenAmountUpdated",
      "type": "event"
    },
    {
      "anonymous": false,
      "inputs": [
        {
          "indexed": true,
          "internalType": "address",
          "name": "previousOwner",
          "type": "address"
        },
        {
          "indexed": true,
          "internalType": "address",
          "name": "newOwner",
          "type": "address"
        }
      ],
      "name": "OwnershipTransferred",
      "type": "event"
    },
    {
      "anonymous": false,
      "inputs": [
        {
          "indexed": true,
          "internalType": "bytes32",
          "name": "role",
          "type": "bytes32"
        },
        {
          "indexed": true,
          "internalType": "bytes32",
          "name": "previousAdminRole",
          "type": "bytes32"
        },
        {
          "indexed": true,
          "internalType": "bytes32",
          "name": "newAdminRole",
          "type": "bytes32"
        }
      ],
      "name": "RoleAdminChanged",
      "type": "event"
    },
    {
      "anonymous": false,
      "inputs": [
        {
          "indexed": true,
          "internalType": "bytes32",
          "name": "role",
          "type": "bytes32"
        },
        {
          "indexed": true,
          "internalType": "address",
          "name": "account",
          "type": "address"
        },
        {
          "indexed": true,
          "internalType": "address",
          "name": "sender",
          "type": "address"
        }
      ],
      "name": "RoleGranted",
      "type": "event"
    },
    {
      "anonymous": false,
      "inputs": [
        {
          "indexed": true,
          "internalType": "bytes32",
          "name": "role",
          "type": "bytes32"
        },
        {
          "indexed": true,
          "internalType": "address",
          "name": "account",
          "type": "address"
        },
        {
          "indexed": true,
          "internalType": "address",
          "name": "sender",
          "type": "address"
        }
      ],
      "name": "RoleRevoked",
      "type": "event"
    },
    {
      "anonymous": false,
      "inputs": [
        {
          "indexed": true,
          "internalType": "address",
          "name": "depositor",
          "type": "address"
        },
        {
          "indexed": true,
          "internalType": "address",
          "name": "tokenAddress",
          "type": "address"
        },
        {
          "indexed": false,
          "internalType": "uint256",
          "name": "amount",
          "type": "uint256"
        }
      ],
      "name": "TokenDeposited",
      "type": "event"
    },
    {
      "anonymous": false,
      "inputs": [
        {
          "indexed": true,
          "internalType": "address",
          "name": "to",
          "type": "address"
        }
      ],
      "name": "TokensClaimed",
      "type": "event"
    },
    {
      "inputs": [],
      "name": "DEFAULT_ADMIN_ROLE",
      "outputs": [
        {
          "internalType": "bytes32",
          "name": "",
          "type": "bytes32"
        }
      ],
      "stateMutability": "view",
      "type": "function"
    },
    {
      "inputs": [],
      "name": "HeroArenaProfileSC",
      "outputs": [
        {
          "internalType": "contract HeroArenaProfileInterface",
          "name": "",
          "type": "address"
        }
      ],
      "stateMutability": "view",
      "type": "function"
    },
    {
      "inputs": [],
      "name": "LIQUIDATOR_ROLE",
      "outputs": [
        {
          "internalType": "bytes32",
          "name": "",
          "type": "bytes32"
        }
      ],
      "stateMutability": "view",
      "type": "function"
    },
    {
      "inputs": [
        {
          "internalType": "address",
          "name": "",
          "type": "address"
        }
      ],
      "name": "allowedBetTokens",
      "outputs": [
        {
          "internalType": "bool",
          "name": "",
          "type": "bool"
        }
      ],
      "stateMutability": "view",
      "type": "function"
    },
    {
      "inputs": [],
      "name": "availableCreateBattle",
      "outputs": [
        {
          "internalType": "bool",
          "name": "",
          "type": "bool"
        }
      ],
      "stateMutability": "view",
      "type": "function"
    },
    {
      "inputs": [
        {
          "internalType": "address",
          "name": "_to",
          "type": "address"
        },
        {
          "internalType": "address[]",
          "name": "_erc20Tokens",
          "type": "address[]"
        }
      ],
      "name": "claimTokens",
      "outputs": [],
      "stateMutability": "nonpayable",
      "type": "function"
    },
    {
      "inputs": [
        {
          "internalType": "uint256",
          "name": "_battleId",
          "type": "uint256"
        }
      ],
      "name": "closeBattle",
      "outputs": [],
      "stateMutability": "nonpayable",
      "type": "function"
    },
    {
      "inputs": [
        {
          "internalType": "address",
          "name": "_betTokenAddress",
          "type": "address"
        },
        {
          "internalType": "uint256",
          "name": "_betAmount",
          "type": "uint256"
        },
        {
          "internalType": "address",
          "name": "_targetAddress",
          "type": "address"
        }
      ],
      "name": "createBattle",
      "outputs": [],
      "stateMutability": "payable",
      "type": "function"
    },
    {
      "inputs": [
        {
          "internalType": "address",
          "name": "_tokenAddress",
          "type": "address"
        },
        {
          "internalType": "uint256",
          "name": "_amount",
          "type": "uint256"
        }
      ],
      "name": "depositToken",
      "outputs": [],
      "stateMutability": "nonpayable",
      "type": "function"
    },
    {
      "inputs": [
        {
          "internalType": "address",
          "name": "",
          "type": "address"
        }
      ],
      "name": "forbiddenToPlay",
      "outputs": [
        {
          "internalType": "bool",
          "name": "",
          "type": "bool"
        }
      ],
      "stateMutability": "view",
      "type": "function"
    },
    {
      "inputs": [],
      "name": "getBattleCount",
      "outputs": [
        {
          "internalType": "uint256",
          "name": "",
          "type": "uint256"
        }
      ],
      "stateMutability": "view",
      "type": "function"
    },
    {
      "inputs": [
        {
          "internalType": "uint256",
          "name": "_battleId",
          "type": "uint256"
        }
      ],
      "name": "getBattleInfo",
      "outputs": [
        {
          "components": [
            {
              "internalType": "address",
              "name": "selfAddress",
              "type": "address"
            },
            {
              "internalType": "address",
              "name": "targetAddress",
              "type": "address"
            },
            {
              "internalType": "address",
              "name": "betTokenAddress",
              "type": "address"
            },
            {
              "internalType": "uint256",
              "name": "betAmount",
              "type": "uint256"
            },
            {
              "internalType": "uint256",
              "name": "createdAt",
              "type": "uint256"
            },
            {
              "internalType": "address",
              "name": "winner",
              "type": "address"
            },
            {
              "internalType": "bool",
              "name": "isStarted",
              "type": "bool"
            },
            {
              "internalType": "bool",
              "name": "isEnded",
              "type": "bool"
            }
          ],
          "internalType": "struct HeroArenaBattle.BattleInfo",
          "name": "",
          "type": "tuple"
        }
      ],
      "stateMutability": "view",
      "type": "function"
    },
    {
      "inputs": [
        {
          "internalType": "bytes32",
          "name": "role",
          "type": "bytes32"
        }
      ],
      "name": "getRoleAdmin",
      "outputs": [
        {
          "internalType": "bytes32",
          "name": "",
          "type": "bytes32"
        }
      ],
      "stateMutability": "view",
      "type": "function"
    },
    {
      "inputs": [
        {
          "internalType": "bytes32",
          "name": "role",
          "type": "bytes32"
        },
        {
          "internalType": "address",
          "name": "account",
          "type": "address"
        }
      ],
      "name": "grantRole",
      "outputs": [],
      "stateMutability": "nonpayable",
      "type": "function"
    },
    {
      "inputs": [
        {
          "internalType": "bytes32",
          "name": "role",
          "type": "bytes32"
        },
        {
          "internalType": "address",
          "name": "account",
          "type": "address"
        }
      ],
      "name": "hasRole",
      "outputs": [
        {
          "internalType": "bool",
          "name": "",
          "type": "bool"
        }
      ],
      "stateMutability": "view",
      "type": "function"
    },
    {
      "inputs": [
        {
          "internalType": "uint256",
          "name": "_battleId",
          "type": "uint256"
        }
      ],
      "name": "joinExistBattle",
      "outputs": [],
      "stateMutability": "payable",
      "type": "function"
    },
    {
      "inputs": [
        {
          "internalType": "uint256",
          "name": "",
          "type": "uint256"
        }
      ],
      "name": "minBetAmount",
      "outputs": [
        {
          "internalType": "uint256",
          "name": "",
          "type": "uint256"
        }
      ],
      "stateMutability": "view",
      "type": "function"
    },
    {
      "inputs": [],
      "name": "owner",
      "outputs": [
        {
          "internalType": "address",
          "name": "",
          "type": "address"
        }
      ],
      "stateMutability": "view",
      "type": "function"
    },
    {
      "inputs": [],
      "name": "renounceOwnership",
      "outputs": [],
      "stateMutability": "nonpayable",
      "type": "function"
    },
    {
      "inputs": [
        {
          "internalType": "bytes32",
          "name": "role",
          "type": "bytes32"
        },
        {
          "internalType": "address",
          "name": "callerConfirmation",
          "type": "address"
        }
      ],
      "name": "renounceRole",
      "outputs": [],
      "stateMutability": "nonpayable",
      "type": "function"
    },
    {
      "inputs": [
        {
          "internalType": "bytes32",
          "name": "role",
          "type": "bytes32"
        },
        {
          "internalType": "address",
          "name": "account",
          "type": "address"
        }
      ],
      "name": "revokeRole",
      "outputs": [],
      "stateMutability": "nonpayable",
      "type": "function"
    },
    {
      "inputs": [
        {
          "internalType": "uint256",
          "name": "_battleId",
          "type": "uint256"
        },
        {
          "internalType": "address",
          "name": "_winner",
          "type": "address"
        }
      ],
      "name": "settleBattle",
      "outputs": [],
      "stateMutability": "nonpayable",
      "type": "function"
    },
    {
      "inputs": [
        {
          "internalType": "bytes4",
          "name": "interfaceId",
          "type": "bytes4"
        }
      ],
      "name": "supportsInterface",
      "outputs": [
        {
          "internalType": "bool",
          "name": "",
          "type": "bool"
        }
      ],
      "stateMutability": "view",
      "type": "function"
    },
    {
      "inputs": [
        {
          "internalType": "uint256",
          "name": "",
          "type": "uint256"
        }
      ],
      "name": "tokenAddresses",
      "outputs": [
        {
          "internalType": "address",
          "name": "",
          "type": "address"
        }
      ],
      "stateMutability": "view",
      "type": "function"
    },
    {
      "inputs": [
        {
          "internalType": "uint256",
          "name": "",
          "type": "uint256"
        }
      ],
      "name": "tokenAmounts",
      "outputs": [
        {
          "internalType": "uint256",
          "name": "",
          "type": "uint256"
        }
      ],
      "stateMutability": "view",
      "type": "function"
    },
    {
      "inputs": [
        {
          "internalType": "address",
          "name": "newOwner",
          "type": "address"
        }
      ],
      "name": "transferOwnership",
      "outputs": [],
      "stateMutability": "nonpayable",
      "type": "function"
    },
    {
      "inputs": [
        {
          "internalType": "address",
          "name": "_token",
          "type": "address"
        },
        {
          "internalType": "bool",
          "name": "_allowed",
          "type": "bool"
        }
      ],
      "name": "updateAllowedBetToken",
      "outputs": [],
      "stateMutability": "nonpayable",
      "type": "function"
    },
    {
      "inputs": [
        {
          "internalType": "bool",
          "name": "_isAvailable",
          "type": "bool"
        }
      ],
      "name": "updateAvailableCreateBattle",
      "outputs": [],
      "stateMutability": "nonpayable",
      "type": "function"
    },
    {
      "inputs": [
        {
          "internalType": "address",
          "name": "_feeToken",
          "type": "address"
        },
        {
          "internalType": "uint256",
          "name": "_feeTokenAmount",
          "type": "uint256"
        },
        {
          "internalType": "address",
          "name": "_bonusToken",
          "type": "address"
        },
        {
          "internalType": "uint256",
          "name": "_bonusTokenAmount",
          "type": "uint256"
        }
      ],
      "name": "updateFeeAndBonusTokenAddressWithAmount",
      "outputs": [],
      "stateMutability": "nonpayable",
      "type": "function"
    },
    {
      "inputs": [
        {
          "internalType": "address",
          "name": "_user",
          "type": "address"
        },
        {
          "internalType": "bool",
          "name": "_isForbidden",
          "type": "bool"
        }
      ],
      "name": "updateForbiddenToPlay",
      "outputs": [],
      "stateMutability": "nonpayable",
      "type": "function"
    },
    {
      "inputs": [
        {
          "internalType": "uint256",
          "name": "_amount0",
          "type": "uint256"
        },
        {
          "internalType": "uint256",
          "name": "_amount1",
          "type": "uint256"
        }
      ],
      "name": "updateMinimumBetTokenAmount",
      "outputs": [],
      "stateMutability": "nonpayable",
      "type": "function"
    },
    {
      "stateMutability": "payable",
      "type": "receive"
    }
  ],
  "bytecode": "0x60a060405234801561000f575f5ffd5b5060405161223138038061223183398101604081905261002e91610180565b338061005357604051631e4fbdf760e01b81525f600482015260240160405180910390fd5b61005c8161009f565b5060017f9b779b17422d0df92223018b32b4d1fa46e071723d6817e2486d003becc55f00556001600160a01b0381166080526100985f336100ee565b50506101ad565b5f80546001600160a01b038381166001600160a01b0319831681178455604051919092169283917f8be0079c531659141344cd1fd0a4f28419497f9722a3daafe3b4186f6b6457e09190a35050565b5f8281526001602090815260408083206001600160a01b038516845290915281205460ff16610177575f8381526001602081815260408084206001600160a01b0387168086529252808420805460ff19169093179092559051339286917f2f8788117e7eff1d82e926ec794901d17c78024a50270940304540a733656f0d9190a450600161017a565b505f5b92915050565b5f60208284031215610190575f5ffd5b81516001600160a01b03811681146101a6575f5ffd5b9392505050565b60805161205e6101d35f395f81816102a401528181610b160152610eb9015261205e5ff3fe6080604052600436106101d3575f3560e01c8063715018a6116100fd578063a217fddf11610092578063e5df8b8411610062578063e5df8b8414610651578063e84d888014610670578063f2fde38b1461068f578063f470d5ec146106ae575f5ffd5b8063a217fddf1461050e578063c0a6e9d714610521578063d547741f14610613578063dd5e1a6a14610632575f5ffd5b80638da5cb5b116100cd5780638da5cb5b146104955780638fff0a5f146104b157806391d14854146104d05780639ad280c0146104ef575f5ffd5b8063715018a61461043057806374ec500314610444578063769a9f13146104575780638872046714610476575f5ffd5b80632f2ff15d116101735780634d44dd71116101435780634d44dd71146103a25780635a0d00b7146103b55780636268824c146103e35780636f7f703614610411575f5ffd5b80632f2ff15d1461032c578063338b5dea1461034b57806336568abe1461036a5780633e5e5d8514610389575f5ffd5b806316d8887a116101ae57806316d8887a146102525780631a66027814610293578063248a9ca3146102de57806326cd774d1461030d575f5ffd5b806301ffc9a7146101de5780630505917a146102125780631205dc6f14610233575f5ffd5b366101da57005b5f5ffd5b3480156101e9575f5ffd5b506101fd6101f8366004611c62565b6106c2565b60405190151581526020015b60405180910390f35b34801561021d575f5ffd5b5061023161022c366004611cab565b6106f8565b005b34801561023e575f5ffd5b5061023161024d366004611cec565b610787565b34801561025d575f5ffd5b506102857f5e17fc5225d4a099df75359ce1f405503ca79498a8dc46a7d583235a0ee45c1681565b604051908152602001610209565b34801561029e575f5ffd5b506102c67f000000000000000000000000000000000000000000000000000000000000000081565b6040516001600160a01b039091168152602001610209565b3480156102e9575f5ffd5b506102856102f8366004611d0c565b5f908152600160208190526040909120015490565b348015610318575f5ffd5b50610231610327366004611d23565b6107d8565b348015610337575f5ffd5b50610231610346366004611d23565b610a34565b348015610356575f5ffd5b50610231610365366004611d4d565b610a5f565b348015610375575f5ffd5b50610231610384366004611d23565b610ac1565b348015610394575f5ffd5b506004546101fd9060ff1681565b6102316103b0366004611d0c565b610af9565b3480156103c0575f5ffd5b506101fd6103cf366004611d75565b60036020525f908152604090205460ff1681565b3480156103ee575f5ffd5b506101fd6103fd366004611d75565b60026020525f908152604090205460ff1681565b34801561041c575f5ffd5b5061023161042b366004611d9b565b610e38565b34801561043b575f5ffd5b50610231610e89565b610231610452366004611db6565b610e9c565b348015610462575f5ffd5b50610231610471366004611d0c565b611198565b348015610481575f5ffd5b50610231610490366004611def565b61130e565b3480156104a0575f5ffd5b505f546001600160a01b03166102c6565b3480156104bc575f5ffd5b506102856104cb366004611d0c565b611526565b3480156104db575f5ffd5b506101fd6104ea366004611d23565b61153c565b3480156104fa575f5ffd5b50610285610509366004611d0c565b611566565b348015610519575f5ffd5b506102855f81565b34801561052c575f5ffd5b5061060661053b366004611d0c565b60408051610100810182525f80825260208201819052918101829052606081018290526080810182905260a0810182905260c0810182905260e0810191909152505f908152600b602090815260409182902082516101008101845281546001600160a01b0390811682526001830154811693820193909352600282015483169381019390935260038101546060840152600481015460808401526005015490811660a083015260ff600160a01b82048116151560c0840152600160a81b90910416151560e082015290565b6040516102099190611e70565b34801561061e575f5ffd5b5061023161062d366004611d23565b611575565b34801561063d575f5ffd5b5061023161064c366004611eed565b61159a565b34801561065c575f5ffd5b506102c661066b366004611d0c565b6115fb565b34801561067b575f5ffd5b5061023161068a366004611eed565b61161a565b34801561069a575f5ffd5b506102316106a9366004611d75565b61167b565b3480156106b9575f5ffd5b50600c54610285565b5f6001600160e01b03198216637965db0b60e01b14806106f257506301ffc9a760e01b6001600160e01b03198316145b92915050565b6107006116b5565b600780546001600160a01b038087166001600160a01b03199283168117909355600880549186169190921681179091556009859055600a83905560408051928352602083018690528201526060810182905233907fa0d4722a99274c6808fbb0f6747eef8a0d71adb85bd62d2fd47990f8f9537c859060800160405180910390a250505050565b61078f6116b5565b60058290556006819055604080518381526020810183905233917f7b35f7b073fcb7e4ebc6ef7520319b025e4c183eb62538b956eac7ff98d1e21a910160405180910390a25050565b6107e06116e1565b7f5e17fc5225d4a099df75359ce1f405503ca79498a8dc46a7d583235a0ee45c1661080a816116fc565b5f838152600b6020526040902080546001600160a01b03166108475760405162461bcd60e51b815260040161083e90611f36565b60405180910390fd5b6005810154600160a81b900460ff16156108735760405162461bcd60e51b815260040161083e90611f65565b6005810154600160a01b900460ff166108ce5760405162461bcd60e51b815260206004820152601760248201527f4f70706f6e656e7420686173206e6f74206a6f696e6564000000000000000000604482015260640161083e565b80546001600160a01b03848116911614806108f8575060018101546001600160a01b038481169116145b61093d5760405162461bcd60e51b8152602060048201526016602482015275496e76616c69642077696e6e6572206164647265737360501b604482015260640161083e565b600581018054600161ff0160a01b0319166001600160a01b03851617600160a81b17905560038101545f90610973906002611fa7565b600283015490915061098f906001600160a01b03168583611706565b600854600a546001600160a01b039091169080158015906109b857506001600160a01b03821615155b156109d1576109d16001600160a01b03831687836117b9565b856001600160a01b0316877fdf7b857ba126023b898186dc0a6f9be4ec90086bf1fb2fabd865708c6b4fb5ae85604051610a0d91815260200190565b60405180910390a35050505050610a3060015f5160206120095f395f51905f5255565b5050565b5f8281526001602081905260409091200154610a4f816116fc565b610a5983836117ee565b50505050565b610a676116b5565b610a7c6001600160a01b038316333084611864565b6040518181526001600160a01b0383169033907ff1444b5cad7ce70cb018d1b8edc8618fe303f3c7f034d8d572a6e27facbf2bef906020015b60405180910390a35050565b6001600160a01b0381163314610aea5760405163334bd91960e11b815260040160405180910390fd5b610af4828261189a565b505050565b610b016116e1565b6040516350681a9360e11b81523360048201527f00000000000000000000000000000000000000000000000000000000000000006001600160a01b03169063a0d0352690602401602060405180830381865afa158015610b63573d5f5f3e3d5ffd5b505050506040513d601f19601f82011682018060405250810190610b879190611fbe565b610bcc5760405162461bcd60e51b8152602060048201526016602482015275141c9bd99a5b19481b9bdd081c9959da5cdd195c995960521b604482015260640161083e565b335f9081526003602052604090205460ff1615610c1f5760405162461bcd60e51b8152602060048201526011602482015270466f7262696464656e20746f20706c617960781b604482015260640161083e565b5f818152600b6020526040902080546001600160a01b0316610c535760405162461bcd60e51b815260040161083e90611f36565b6005810154600160a01b900460ff1615610caf5760405162461bcd60e51b815260206004820152601e60248201527f426174746c6520616c72656164792068617320616e206f70706f6e656e740000604482015260640161083e565b6005810154600160a81b900460ff1615610cdb5760405162461bcd60e51b815260040161083e90611f65565b8054336001600160a01b0390911603610d2f5760405162461bcd60e51b815260206004820152601660248201527543616e6e6f74206a6f696e206f776e20626174746c6560501b604482015260640161083e565b60018101546001600160a01b03161580610d55575060018101546001600160a01b031633145b610da15760405162461bcd60e51b815260206004820152601a60248201527f4e6f7420696e766974656420746f207468697320626174746c65000000000000604482015260640161083e565b60028101546003820154610dbf916001600160a01b03169033611905565b610dc833611a5f565b60058101805460ff60a01b1916600160a01b1790556001810180546001600160a01b0319163390811790915560405183907f8c6accc40f0b31b2b4fa26bce8f25592cedbe9e9a6a9323b56188d02eceed53d905f90a350610e3560015f5160206120095f395f51905f5255565b50565b610e406116b5565b6004805460ff191682151590811790915560405190815233907f5965995208a5faeddabdc5ba76a95121667747c41b83e5a07c4c3feb06b347af9060200160405180910390a250565b610e916116b5565b610e9a5f611adc565b565b610ea46116e1565b6040516350681a9360e11b81523360048201527f00000000000000000000000000000000000000000000000000000000000000006001600160a01b03169063a0d0352690602401602060405180830381865afa158015610f06573d5f5f3e3d5ffd5b505050506040513d601f19601f82011682018060405250810190610f2a9190611fbe565b610f6f5760405162461bcd60e51b8152602060048201526016602482015275141c9bd99a5b19481b9bdd081c9959da5cdd195c995960521b604482015260640161083e565b335f9081526003602052604090205460ff1615610fc25760405162461bcd60e51b8152602060048201526011602482015270466f7262696464656e20746f20706c617960781b604482015260640161083e565b60045460ff1661100b5760405162461bcd60e51b815260206004820152601460248201527343616e6e6f742063726561746520626174746c6560601b604482015260640161083e565b336001600160a01b0382160361105c5760405162461bcd60e51b815260206004820152601660248201527521b0b73737ba103a30b933b2ba103cb7bab939b2b63360511b604482015260640161083e565b6001600160a01b0383165f9081526002602052604090205460ff166110b75760405162461bcd60e51b8152602060048201526011602482015270151bdad95b881b9bdd08185b1b1bddd959607a1b604482015260640161083e565b6110c2838333611905565b6110cb33611a5f565b5f600c5f81546110da90611fd9565b91829055505f818152600b60209081526040918290208054336001600160a01b03199182168117835560018301805483166001600160a01b038a8116918217909255600285018054909416918c16918217909355600384018a90554260048501558551928352938201939093529283018790529293509083907fed66efe6d9e691dcdc3742d4579ed070fdddd3fbbe5b79d9f02d46bfdadc1e4a9060600160405180910390a35050610af460015f5160206120095f395f51905f5255565b6111a06116e1565b7f5e17fc5225d4a099df75359ce1f405503ca79498a8dc46a7d583235a0ee45c166111ca816116fc565b5f828152600b6020526040902080546001600160a01b03166111fe5760405162461bcd60e51b815260040161083e90611f36565b6005810154600160a81b900460ff161561122a5760405162461bcd60e51b815260040161083e90611f65565b6005810154600160a01b900460ff16156112865760405162461bcd60e51b815260206004820152601e60248201527f426174746c6520616c72656164792068617320616e206f70706f6e656e740000604482015260640161083e565b60058101805460ff60a81b1916600160a81b1790556003810154600282015482546112be916001600160a01b03908116911683611706565b604051818152339085907f487e0827fccc2aa300c6f7990f52de8ed400a8b510b689dfa5812fa9c6fe02529060200160405180910390a3505050610e3560015f5160206120095f395f51905f5255565b6113166116b5565b61131e6116e1565b6001600160a01b0383166113665760405162461bcd60e51b815260206004820152600f60248201526e496e76616c6964206164647265737360881b604482015260640161083e565b478015611404575f846001600160a01b0316826040515f6040518083038185875af1925050503d805f81146113b6576040519150601f19603f3d011682016040523d82523d5f602084013e6113bb565b606091505b50509050806114025760405162461bcd60e51b8152602060048201526013602482015272115512081d1c985b9cd9995c8819985a5b1959606a1b604482015260640161083e565b505b5f5b828110156114db575f84848381811061142157611421611f22565b90506020020160208101906114369190611d75565b90506001600160a01b03811661144c57506114d3565b6040516370a0823160e01b81523060048201525f906001600160a01b038316906370a0823190602401602060405180830381865afa158015611490573d5f5f3e3d5ffd5b505050506040513d601f19601f820116820180604052508101906114b49190611ff1565b905080156114d0576114d06001600160a01b03831688836117b9565b50505b600101611406565b506040516001600160a01b038516907fb638240958296a5b145c2f18c8ec62f72a20911efab2d38fb48c76695373761f905f90a250610af460015f5160206120095f395f51905f5255565b60058160028110611535575f80fd5b0154905081565b5f9182526001602090815260408084206001600160a01b0393909316845291905290205460ff1690565b60098160028110611535575f80fd5b5f8281526001602081905260409091200154611590816116fc565b610a59838361189a565b6115a26116b5565b6001600160a01b0382165f81815260026020908152604091829020805460ff1916851515908117909155915191825233917f9e55f2f091c6d29778ac12302ceed27e7da06bfd55d75e9ce35598c62bb1425c9101610ab5565b6007816002811061160a575f80fd5b01546001600160a01b0316905081565b6116226116b5565b6001600160a01b0382165f81815260036020908152604091829020805460ff1916851515908117909155915191825233917f01ac3c587efb27e15198ba5605bef45b7d920fb66f73fe76125d4623e635878d9101610ab5565b6116836116b5565b6001600160a01b0381166116ac57604051631e4fbdf760e01b81525f600482015260240161083e565b610e3581611adc565b5f546001600160a01b03163314610e9a5760405163118cdaa760e01b815233600482015260240161083e565b6116e9611b2b565b60025f5160206120095f395f51905f5255565b610e358133611b5a565b6001600160a01b0383166117a9575f826001600160a01b0316826040515f6040518083038185875af1925050503d805f811461175d576040519150601f19603f3d011682016040523d82523d5f602084013e611762565b606091505b5050905080610a595760405162461bcd60e51b8152602060048201526013602482015272115512081d1c985b9cd9995c8819985a5b1959606a1b604482015260640161083e565b610af46001600160a01b03841683835b6117c68383836001611b93565b610af457604051635274afe760e01b81526001600160a01b038416600482015260240161083e565b5f6117f9838361153c565b61185d575f8381526001602081815260408084206001600160a01b0387168086529252808420805460ff19169093179092559051339286917f2f8788117e7eff1d82e926ec794901d17c78024a50270940304540a733656f0d9190a45060016106f2565b505f6106f2565b611872848484846001611bf5565b610a5957604051635274afe760e01b81526001600160a01b038516600482015260240161083e565b5f6118a5838361153c565b1561185d575f8381526001602090815260408083206001600160a01b0386168085529252808320805460ff1916905551339286917ff6391f5c32d9c69d2a47ea670b442974b53935d1edc7fd64eb21e047a839171b9190a45060016106f2565b6001600160a01b0383166119af576005548210156119605760405162461bcd60e51b815260206004820152601860248201527742657420616d6f756e742062656c6f77206d696e696d756d60401b604482015260640161083e565b813414610af45760405162461bcd60e51b815260206004820152601960248201527f496e636f72726563742045544820616d6f756e742073656e7400000000000000604482015260640161083e565b34156119fd5760405162461bcd60e51b815260206004820152601e60248201527f455448206e6f7420616363657074656420666f72204552433230206265740000604482015260640161083e565b600654821015611a4a5760405162461bcd60e51b815260206004820152601860248201527742657420616d6f756e742062656c6f77206d696e696d756d60401b604482015260640161083e565b610af46001600160a01b038416823085611864565b6009545f819003611a6e575050565b6007546001600160a01b031680611ac75760405162461bcd60e51b815260206004820152601760248201527f466565546f6b656e206e6f7420636f6e66696775726564000000000000000000604482015260640161083e565b610af46001600160a01b038216843085611864565b5f80546001600160a01b038381166001600160a01b0319831681178455604051919092169283917f8be0079c531659141344cd1fd0a4f28419497f9722a3daafe3b4186f6b6457e09190a35050565b5f5160206120095f395f51905f5254600203610e9a57604051633ee5aeb560e01b815260040160405180910390fd5b611b64828261153c565b610a305760405163e2517d3f60e01b81526001600160a01b03821660048201526024810183905260440161083e565b60405163a9059cbb60e01b5f8181526001600160a01b038616600452602485905291602083604481808b5af1925060015f51148316611be9578383151615611bdd573d5f823e3d81fd5b5f873b113d1516831692505b60405250949350505050565b6040516323b872dd60e01b5f8181526001600160a01b038781166004528616602452604485905291602083606481808c5af1925060015f51148316611c51578383151615611c45573d5f823e3d81fd5b5f883b113d1516831692505b604052505f60605295945050505050565b5f60208284031215611c72575f5ffd5b81356001600160e01b031981168114611c89575f5ffd5b9392505050565b80356001600160a01b0381168114611ca6575f5ffd5b919050565b5f5f5f5f60808587031215611cbe575f5ffd5b611cc785611c90565b935060208501359250611cdc60408601611c90565b9396929550929360600135925050565b5f5f60408385031215611cfd575f5ffd5b50508035926020909101359150565b5f60208284031215611d1c575f5ffd5b5035919050565b5f5f60408385031215611d34575f5ffd5b82359150611d4460208401611c90565b90509250929050565b5f5f60408385031215611d5e575f5ffd5b611d6783611c90565b946020939093013593505050565b5f60208284031215611d85575f5ffd5b611c8982611c90565b8015158114610e35575f5ffd5b5f60208284031215611dab575f5ffd5b8135611c8981611d8e565b5f5f5f60608486031215611dc8575f5ffd5b611dd184611c90565b925060208401359150611de660408501611c90565b90509250925092565b5f5f5f60408486031215611e01575f5ffd5b611e0a84611c90565b9250602084013567ffffffffffffffff811115611e25575f5ffd5b8401601f81018613611e35575f5ffd5b803567ffffffffffffffff811115611e4b575f5ffd5b8660208260051b8401011115611e5f575f5ffd5b939660209190910195509293505050565b81516001600160a01b039081168252602080840151821690830152604080840151821690830152606080840151908301526080808401519083015260a080840151918216908301526101008201905060c0830151611ed260c084018215159052565b5060e0830151611ee660e084018215159052565b5092915050565b5f5f60408385031215611efe575f5ffd5b611f0783611c90565b91506020830135611f1781611d8e565b809150509250929050565b634e487b7160e01b5f52603260045260245ffd5b60208082526015908201527410985d1d1b1948191bd95cc81b9bdd08195e1a5cdd605a1b604082015260600190565b60208082526014908201527310985d1d1b1948185b1c9958591e48195b99195960621b604082015260600190565b634e487b7160e01b5f52601160045260245ffd5b80820281158282048414176106f2576106f2611f93565b5f60208284031215611fce575f5ffd5b8151611c8981611d8e565b5f60018201611fea57611fea611f93565b5060010190565b5f60208284031215612001575f5ffd5b505191905056fe9b779b17422d0df92223018b32b4d1fa46e071723d6817e2486d003becc55f00a26469706673582212206977326741dce6692ac7f34a13240009c7ba003fe105bdbdb62c881b6d56595364736f6c634300081d0033",
  "linkReferences": {},
  "deployedLinkReferences": {},
  "immutableReferences": {
    "1485": [
      {
        "length": 32,
        "start": 676
      },
      {
        "length": 32,
        "start": 2838
      },
      {
        "length": 32,
        "start": 3769
      }
    ]
  },
  "inputSourceName": "project/contracts/HeroArenaBattle.sol",
  "buildInfoId": "solc-0_8_29-f76532c00a9f58d4dbcd4aeaac18ce1d22ec16b2"
}