{
  "_format": "hh3-artifact-1",
  "contractName": "HeroArenaMiningFactoryV1",
  "sourceName": "contracts/HeroArenaMiningFactoryV1.sol",
  "abi": [
    {
      "inputs": [
        {
          "internalType": "contract IERC20",
          "name": "_HapToken",
          "type": "address"
        },
        {
          "internalType": "uint256",
          "name": "_price",
          "type": "uint256"
        }
      ],
      "stateMutability": "nonpayable",
      "type": "constructor"
    },
    {
      "inputs": [
        {
          "internalType": "address",
          "name": "owner",
          "type": "address"
        }
      ],
      "name": "OwnableInvalidOwner",
      "type": "error"
    },
    {
      "inputs": [
        {
          "internalType": "address",
          "name": "account",
          "type": "address"
        }
      ],
      "name": "OwnableUnauthorizedAccount",
      "type": "error"
    },
    {
      "inputs": [
        {
          "internalType": "address",
          "name": "token",
          "type": "address"
        }
      ],
      "name": "SafeERC20FailedOperation",
      "type": "error"
    },
    {
      "anonymous": false,
      "inputs": [
        {
          "indexed": true,
          "internalType": "address",
          "name": "owner",
          "type": "address"
        },
        {
          "indexed": false,
          "internalType": "bool",
          "name": "isAvail",
          "type": "bool"
        }
      ],
      "name": "AvailableClaimUpdated",
      "type": "event"
    },
    {
      "anonymous": false,
      "inputs": [
        {
          "indexed": true,
          "internalType": "address",
          "name": "user",
          "type": "address"
        },
        {
          "indexed": true,
          "internalType": "uint256",
          "name": "tokenId",
          "type": "uint256"
        },
        {
          "indexed": true,
          "internalType": "uint8",
          "name": "avatarId",
          "type": "uint8"
        }
      ],
      "name": "AvatarMinted",
      "type": "event"
    },
    {
      "anonymous": false,
      "inputs": [
        {
          "indexed": false,
          "internalType": "uint256",
          "name": "newPrice",
          "type": "uint256"
        }
      ],
      "name": "AvatarPriceUpdated",
      "type": "event"
    },
    {
      "anonymous": false,
      "inputs": [
        {
          "indexed": true,
          "internalType": "address",
          "name": "previousOwner",
          "type": "address"
        },
        {
          "indexed": true,
          "internalType": "address",
          "name": "pendingOwner",
          "type": "address"
        }
      ],
      "name": "NFTContractOwnershipProposed",
      "type": "event"
    },
    {
      "anonymous": false,
      "inputs": [
        {
          "indexed": true,
          "internalType": "address",
          "name": "previousOwner",
          "type": "address"
        },
        {
          "indexed": true,
          "internalType": "address",
          "name": "newOwner",
          "type": "address"
        }
      ],
      "name": "NFTContractOwnershipTransferred",
      "type": "event"
    },
    {
      "anonymous": false,
      "inputs": [
        {
          "indexed": true,
          "internalType": "address",
          "name": "previousOwner",
          "type": "address"
        },
        {
          "indexed": true,
          "internalType": "address",
          "name": "newOwner",
          "type": "address"
        }
      ],
      "name": "OwnershipTransferred",
      "type": "event"
    },
    {
      "inputs": [],
      "name": "HapToken",
      "outputs": [
        {
          "internalType": "contract IERC20",
          "name": "",
          "type": "address"
        }
      ],
      "stateMutability": "view",
      "type": "function"
    },
    {
      "inputs": [],
      "name": "HeroArenaAvatarsSC",
      "outputs": [
        {
          "internalType": "contract HeroArenaAvatars",
          "name": "",
          "type": "address"
        }
      ],
      "stateMutability": "view",
      "type": "function"
    },
    {
      "inputs": [],
      "name": "acceptNFTContractOwnership",
      "outputs": [],
      "stateMutability": "nonpayable",
      "type": "function"
    },
    {
      "inputs": [],
      "name": "availableClaim",
      "outputs": [
        {
          "internalType": "bool",
          "name": "",
          "type": "bool"
        }
      ],
      "stateMutability": "view",
      "type": "function"
    },
    {
      "inputs": [
        {
          "internalType": "uint256",
          "name": "_amount",
          "type": "uint256"
        }
      ],
      "name": "claimFee",
      "outputs": [],
      "stateMutability": "nonpayable",
      "type": "function"
    },
    {
      "inputs": [
        {
          "internalType": "uint8",
          "name": "_avatarId",
          "type": "uint8"
        }
      ],
      "name": "mintNFT",
      "outputs": [],
      "stateMutability": "nonpayable",
      "type": "function"
    },
    {
      "inputs": [],
      "name": "nftPrice",
      "outputs": [
        {
          "internalType": "uint256",
          "name": "",
          "type": "uint256"
        }
      ],
      "stateMutability": "view",
      "type": "function"
    },
    {
      "inputs": [],
      "name": "owner",
      "outputs": [
        {
          "internalType": "address",
          "name": "",
          "type": "address"
        }
      ],
      "stateMutability": "view",
      "type": "function"
    },
    {
      "inputs": [],
      "name": "pendingNFTContractOwner",
      "outputs": [
        {
          "internalType": "address",
          "name": "",
          "type": "address"
        }
      ],
      "stateMutability": "view",
      "type": "function"
    },
    {
      "inputs": [
        {
          "internalType": "address",
          "name": "_newOwner",
          "type": "address"
        }
      ],
      "name": "proposeNFTContractOwnership",
      "outputs": [],
      "stateMutability": "nonpayable",
      "type": "function"
    },
    {
      "inputs": [],
      "name": "renounceOwnership",
      "outputs": [],
      "stateMutability": "nonpayable",
      "type": "function"
    },
    {
      "inputs": [
        {
          "internalType": "address",
          "name": "newOwner",
          "type": "address"
        }
      ],
      "name": "transferOwnership",
      "outputs": [],
      "stateMutability": "nonpayable",
      "type": "function"
    },
    {
      "inputs": [
        {
          "internalType": "bool",
          "name": "_isAvailable",
          "type": "bool"
        }
      ],
      "name": "updateAvailableClaim",
      "outputs": [],
      "stateMutability": "nonpayable",
      "type": "function"
    },
    {
      "inputs": [
        {
          "internalType": "uint256",
          "name": "_newPrice",
          "type": "uint256"
        }
      ],
      "name": "updateNFTPrice",
      "outputs": [],
      "stateMutability": "nonpayable",
      "type": "function"
    }
  ],
  "bytecode": "0x608060405234801561000f575f5ffd5b5060405161565a38038061565a83398101604081905261002e91612c8f565b338061005357604051631e4fbdf760e01b81525f600482015260240160405180910390fd5b61005c81612c33565b50600180546001600160a01b0319166001600160a01b038416179055600381905560405161008990612c82565b604051809103905ff0801580156100a2573d5f5f3e3d5ffd5b50600280546001600160a01b0319166001600160a01b0392909216918217905560408051630710d1e760e41b81525f60048201526024810191909152600960448201526804b6e696768745f76360bc1b606482015263710d1e70906084015f604051808303815f87803b158015610117575f5ffd5b505af1158015610129573d5f5f3e3d5ffd5b505060025460408051630710d1e760e41b815260016004820152602481019190915260096044820152684b6e696768745f763160b81b60648201526001600160a01b03909116925063710d1e7091506084015f604051808303815f87803b158015610192575f5ffd5b505af11580156101a4573d5f5f3e3d5ffd5b50506002805460408051630710d1e760e41b815260048101939093526024830152600960448301526825b734b3b43a2fbb1960b91b60648301526001600160a01b0316925063710d1e7091506084015f604051808303815f87803b15801561020a575f5ffd5b505af115801561021c573d5f5f3e3d5ffd5b505060025460408051630710d1e760e41b815260036004820152602481019190915260096044820152684b6e696768745f763360b81b60648201526001600160a01b03909116925063710d1e7091506084015f604051808303815f87803b158015610285575f5ffd5b505af1158015610297573d5f5f3e3d5ffd5b505060025460408051630710d1e760e41b81526004808201526024810191909152600960448201526812db9a59da1d17dd8d60ba1b60648201526001600160a01b03909116925063710d1e7091506084015f604051808303815f87803b1580156102ff575f5ffd5b505af1158015610311573d5f5f3e3d5ffd5b505060025460408051630710d1e760e41b8152600560048201526024810191909152600960448201526857697a6172645f763160b81b60648201526001600160a01b03909116925063710d1e7091506084015f604051808303815f87803b15801561037a575f5ffd5b505af115801561038c573d5f5f3e3d5ffd5b505060025460408051630710d1e760e41b815260066004820152602481019190915260096044820152682bb4bd30b9322fbb1960b91b60648201526001600160a01b03909116925063710d1e7091506084015f604051808303815f87803b1580156103f5575f5ffd5b505af1158015610407573d5f5f3e3d5ffd5b505060025460408051630710d1e760e41b8152600760048201526024810191909152600960448201526857697a6172645f763360b81b60648201526001600160a01b03909116925063710d1e7091506084015f604051808303815f87803b158015610470575f5ffd5b505af1158015610482573d5f5f3e3d5ffd5b505060025460408051630710d1e760e41b8152600860048201526024810191909152600960448201526815da5e985c9917dd8d60ba1b60648201526001600160a01b03909116925063710d1e7091506084015f604051808303815f87803b1580156104eb575f5ffd5b505af11580156104fd573d5f5f3e3d5ffd5b505060025460408051630710d1e760e41b815260096004820181905260248201929092526044810191909152684172636865725f763160b81b60648201526001600160a01b03909116925063710d1e7091506084015f604051808303815f87803b158015610569575f5ffd5b505af115801561057b573d5f5f3e3d5ffd5b505060025460408051630710d1e760e41b8152600a60048201526024810191909152600960448201526820b931b432b92fbb1960b91b60648201526001600160a01b03909116925063710d1e7091506084015f604051808303815f87803b1580156105e4575f5ffd5b505af11580156105f6573d5f5f3e3d5ffd5b505060025460408051630710d1e760e41b8152600b6004820152602481019190915260096044820152684172636865725f763360b81b60648201526001600160a01b03909116925063710d1e7091506084015f604051808303815f87803b15801561065f575f5ffd5b505af1158015610671573d5f5f3e3d5ffd5b505060025460408051630710d1e760e41b8152600c600482015260248101919091526009604482015268105c98da195c97dd8d60ba1b60648201526001600160a01b03909116925063710d1e7091506084015f604051808303815f87803b1580156106da575f5ffd5b505af11580156106ec573d5f5f3e3d5ffd5b505060025460408051630710d1e760e41b8152600d6004820152602481019190915260096044820152680436c657269635f76360bc1b60648201526001600160a01b03909116925063710d1e7091506084015f604051808303815f87803b158015610755575f5ffd5b505af1158015610767573d5f5f3e3d5ffd5b505060025460408051630710d1e760e41b8152600e600482015260248101919091526009604482015268436c657269635f763160b81b60648201526001600160a01b03909116925063710d1e7091506084015f604051808303815f87803b1580156107d0575f5ffd5b505af11580156107e2573d5f5f3e3d5ffd5b505060025460408051630710d1e760e41b8152600f60048201526024810191909152600960448201526821b632b934b1afbb1960b91b60648201526001600160a01b03909116925063710d1e7091506084015f604051808303815f87803b15801561084b575f5ffd5b505af115801561085d573d5f5f3e3d5ffd5b505060025460408051630710d1e760e41b81526010600482015260248101919091526009604482015268436c657269635f763360b81b60648201526001600160a01b03909116925063710d1e7091506084015f604051808303815f87803b1580156108c6575f5ffd5b505af11580156108d8573d5f5f3e3d5ffd5b505060025460408051630710d1e760e41b8152601160048201526024810191909152600960448201526810db195c9a58d7dd8d60ba1b60648201526001600160a01b03909116925063710d1e7091506084015f604051808303815f87803b158015610941575f5ffd5b505af1158015610953573d5f5f3e3d5ffd5b505060025460408051630710d1e760e41b815260126004820152602481019190915260086044820152674e696e6a615f763160c01b60648201526001600160a01b03909116925063710d1e7091506084015f604051808303815f87803b1580156109bb575f5ffd5b505af11580156109cd573d5f5f3e3d5ffd5b505060025460408051630710d1e760e41b815260136004820152602481019190915260086044820152672734b73530afbb1960c11b60648201526001600160a01b03909116925063710d1e7091506084015f604051808303815f87803b158015610a35575f5ffd5b505af1158015610a47573d5f5f3e3d5ffd5b505060025460408051630710d1e760e41b8152601460048201526024810191909152600b60448201526a566f69644d6f6e6b5f763160a81b60648201526001600160a01b03909116925063710d1e7091506084015f604051808303815f87803b158015610ab2575f5ffd5b505af1158015610ac4573d5f5f3e3d5ffd5b505060025460408051630710d1e760e41b8152601560048201526024810191909152600b60448201526a2b37b4b226b7b735afbb1960a91b60648201526001600160a01b03909116925063710d1e7091506084015f604051808303815f87803b158015610b2f575f5ffd5b505af1158015610b41573d5f5f3e3d5ffd5b505060025460408051630710d1e760e41b8152601660048201526024810191909152600b60448201526a566f69644d6f6e6b5f763360a81b60648201526001600160a01b03909116925063710d1e7091506084015f604051808303815f87803b158015610bac575f5ffd5b505af1158015610bbe573d5f5f3e3d5ffd5b505060025460408051630710d1e760e41b8152601760048201526024810191909152600b60448201526a159bda59135bdb9ad7dd8d60aa1b60648201526001600160a01b03909116925063710d1e7091506084015f604051808303815f87803b158015610c29575f5ffd5b505af1158015610c3b573d5f5f3e3d5ffd5b505060025460408051630710d1e760e41b8152601860048201526024810191909152600a604482015269496d70616c65725f763160b01b60648201526001600160a01b03909116925063710d1e7091506084015f604051808303815f87803b158015610ca5575f5ffd5b505af1158015610cb7573d5f5f3e3d5ffd5b505060025460408051630710d1e760e41b8152601960048201526024810191909152600a60448201526924b6b830b632b92fbb1960b11b60648201526001600160a01b03909116925063710d1e7091506084015f604051808303815f87803b158015610d21575f5ffd5b505af1158015610d33573d5f5f3e3d5ffd5b505060025460408051630710d1e760e41b8152601a60048201526024810191909152600a604482015269496d70616c65725f763360b01b60648201526001600160a01b03909116925063710d1e7091506084015f604051808303815f87803b158015610d9d575f5ffd5b505af1158015610daf573d5f5f3e3d5ffd5b505060025460408051630710d1e760e41b8152601b60048201526024810191909152600a604482015269125b5c185b195c97dd8d60b21b60648201526001600160a01b03909116925063710d1e7091506084015f604051808303815f87803b158015610e19575f5ffd5b505af1158015610e2b573d5f5f3e3d5ffd5b505060025460408051630710d1e760e41b8152601c60048201526024810191909152600860448201526704e6563726f5f76360c41b60648201526001600160a01b03909116925063710d1e7091506084015f604051808303815f87803b158015610e93575f5ffd5b505af1158015610ea5573d5f5f3e3d5ffd5b505060025460408051630710d1e760e41b8152601d6004820152602481019190915260086044820152674e6563726f5f763160c01b60648201526001600160a01b03909116925063710d1e7091506084015f604051808303815f87803b158015610f0d575f5ffd5b505af1158015610f1f573d5f5f3e3d5ffd5b505060025460408051630710d1e760e41b8152601e6004820152602481019190915260086044820152672732b1b937afbb1960c11b60648201526001600160a01b03909116925063710d1e7091506084015f604051808303815f87803b158015610f87575f5ffd5b505af1158015610f99573d5f5f3e3d5ffd5b505060025460408051630710d1e760e41b8152601f6004820152602481019190915260086044820152674e6563726f5f763360c01b60648201526001600160a01b03909116925063710d1e7091506084015f604051808303815f87803b158015611001575f5ffd5b505af1158015611013573d5f5f3e3d5ffd5b505060025460408051630710d1e760e41b81526020600482015260248101919091526008604482015267139958dc9bd7dd8d60c21b60648201526001600160a01b03909116925063710d1e7091506084015f604051808303815f87803b15801561107b575f5ffd5b505af115801561108d573d5f5f3e3d5ffd5b505060025460408051630710d1e760e41b8152602160048201526024810191909152600c60448201526b05072696573746573735f76360a41b60648201526001600160a01b03909116925063710d1e7091506084015f604051808303815f87803b1580156110f9575f5ffd5b505af115801561110b573d5f5f3e3d5ffd5b505060025460408051630710d1e760e41b8152602260048201526024810191909152600c60448201526b5072696573746573735f763160a01b60648201526001600160a01b03909116925063710d1e7091506084015f604051808303815f87803b158015611177575f5ffd5b505af1158015611189573d5f5f3e3d5ffd5b505060025460408051630710d1e760e41b8152602360048201526024810191909152600c60448201526b283934b2b9ba32b9b9afbb1960a11b60648201526001600160a01b03909116925063710d1e7091506084015f604051808303815f87803b1580156111f5575f5ffd5b505af1158015611207573d5f5f3e3d5ffd5b505060025460408051630710d1e760e41b8152602460048201819052810191909152600c60448201526b5072696573746573735f763360a01b60648201526001600160a01b03909116925063710d1e7091506084015f604051808303815f87803b158015611273575f5ffd5b505af1158015611285573d5f5f3e3d5ffd5b505060025460408051630710d1e760e41b8152602560048201526024810191909152600c60448201526b141c9a595cdd195cdcd7dd8d60a21b60648201526001600160a01b03909116925063710d1e7091506084015f604051808303815f87803b1580156112f1575f5ffd5b505af1158015611303573d5f5f3e3d5ffd5b505060025460408051630710d1e760e41b8152602660048201526024810191909152600a6044820152695068616e746f6d5f763160b01b60648201526001600160a01b03909116925063710d1e7091506084015f604051808303815f87803b15801561136d575f5ffd5b505af115801561137f573d5f5f3e3d5ffd5b505060025460408051630710d1e760e41b8152602760048201526024810191909152600a604482015269283430b73a37b6afbb1960b11b60648201526001600160a01b03909116925063710d1e7091506084015f604051808303815f87803b1580156113e9575f5ffd5b505af11580156113fb573d5f5f3e3d5ffd5b505060025460408051630710d1e760e41b8152602860048201526024810191909152600a6044820152695068616e746f6d5f763360b01b60648201526001600160a01b03909116925063710d1e7091506084015f604051808303815f87803b158015611465575f5ffd5b505af1158015611477573d5f5f3e3d5ffd5b505060025460408051630710d1e760e41b815260296004820152602481019190915260096044820152685772616974685f763160b81b60648201526001600160a01b03909116925063710d1e7091506084015f604051808303815f87803b1580156114e0575f5ffd5b505af11580156114f2573d5f5f3e3d5ffd5b505060025460408051630710d1e760e41b8152602a6004820152602481019190915260096044820152682bb930b4ba342fbb1960b91b60648201526001600160a01b03909116925063710d1e7091506084015f604051808303815f87803b15801561155b575f5ffd5b505af115801561156d573d5f5f3e3d5ffd5b505060025460408051630710d1e760e41b8152602b600482015260248101919091526009604482015268047756e6e65725f76360bc1b60648201526001600160a01b03909116925063710d1e7091506084015f604051808303815f87803b1580156115d6575f5ffd5b505af11580156115e8573d5f5f3e3d5ffd5b505060025460408051630710d1e760e41b8152602c60048201526024810191909152600960448201526847756e6e65725f763160b81b60648201526001600160a01b03909116925063710d1e7091506084015f604051808303815f87803b158015611651575f5ffd5b505af1158015611663573d5f5f3e3d5ffd5b505060025460408051630710d1e760e41b8152602d60048201526024810191909152600960448201526823bab73732b92fbb1960b91b60648201526001600160a01b03909116925063710d1e7091506084015f604051808303815f87803b1580156116cc575f5ffd5b505af11580156116de573d5f5f3e3d5ffd5b505060025460408051630710d1e760e41b8152602e60048201526024810191909152600960448201526847756e6e65725f763360b81b60648201526001600160a01b03909116925063710d1e7091506084015f604051808303815f87803b158015611747575f5ffd5b505af1158015611759573d5f5f3e3d5ffd5b505060025460408051630710d1e760e41b8152602f60048201526024810191909152600c60448201526b4772656e61646965725f763160a01b60648201526001600160a01b03909116925063710d1e7091506084015f604051808303815f87803b1580156117c5575f5ffd5b505af11580156117d7573d5f5f3e3d5ffd5b505060025460408051630710d1e760e41b8152603060048201526024810191909152600c60448201526b4772656e61646965725f763360a01b60648201526001600160a01b03909116925063710d1e7091506084015f604051808303815f87803b158015611843575f5ffd5b505af1158015611855573d5f5f3e3d5ffd5b505060025460408051630710d1e760e41b8152603160048201526024810191909152600b60448201526a456e67696e6565725f763160a81b60648201526001600160a01b03909116925063710d1e7091506084015f604051808303815f87803b1580156118c0575f5ffd5b505af11580156118d2573d5f5f3e3d5ffd5b505060025460408051630710d1e760e41b8152603260048201526024810191909152600b60448201526a22b733b4b732b2b92fbb1960a91b60648201526001600160a01b03909116925063710d1e7091506084015f604051808303815f87803b15801561193d575f5ffd5b505af115801561194f573d5f5f3e3d5ffd5b505060025460408051630710d1e760e41b8152603360048201526024810191909152600b60448201526a456e67696e6565725f763360a81b60648201526001600160a01b03909116925063710d1e7091506084015f604051808303815f87803b1580156119ba575f5ffd5b505af11580156119cc573d5f5f3e3d5ffd5b505060025460408051630710d1e760e41b8152603460048201526024810191909152600b60448201526a115b99da5b99595c97dd8d60aa1b60648201526001600160a01b03909116925063710d1e7091506084015f604051808303815f87803b158015611a37575f5ffd5b505af1158015611a49573d5f5f3e3d5ffd5b505060025460408051630710d1e760e41b8152603560048201526024810191909152600a604482015269050616c6164696e5f76360b41b60648201526001600160a01b03909116925063710d1e7091506084015f604051808303815f87803b158015611ab3575f5ffd5b505af1158015611ac5573d5f5f3e3d5ffd5b505060025460408051630710d1e760e41b8152603660048201526024810191909152600a60448201526950616c6164696e5f763160b01b60648201526001600160a01b03909116925063710d1e7091506084015f604051808303815f87803b158015611b2f575f5ffd5b505af1158015611b41573d5f5f3e3d5ffd5b505060025460408051630710d1e760e41b8152603760048201526024810191909152600a6044820152692830b630b234b72fbb1960b11b60648201526001600160a01b03909116925063710d1e7091506084015f604051808303815f87803b158015611bab575f5ffd5b505af1158015611bbd573d5f5f3e3d5ffd5b505060025460408051630710d1e760e41b8152603860048201526024810191909152600a60448201526950616c6164696e5f763360b01b60648201526001600160a01b03909116925063710d1e7091506084015f604051808303815f87803b158015611c27575f5ffd5b505af1158015611c39573d5f5f3e3d5ffd5b505060025460408051630710d1e760e41b8152603960048201526024810191909152600e60448201526d416e6e6968696c61746f725f763560901b60648201526001600160a01b03909116925063710d1e7091506084015f604051808303815f87803b158015611ca7575f5ffd5b505af1158015611cb9573d5f5f3e3d5ffd5b505060025460408051630710d1e760e41b8152603a60048201526024810191909152600a604482015269057617272696f725f76360b41b60648201526001600160a01b03909116925063710d1e7091506084015f604051808303815f87803b158015611d23575f5ffd5b505af1158015611d35573d5f5f3e3d5ffd5b505060025460408051630710d1e760e41b8152603b60048201526024810191909152600a60448201526957617272696f725f763160b01b60648201526001600160a01b03909116925063710d1e7091506084015f604051808303815f87803b158015611d9f575f5ffd5b505af1158015611db1573d5f5f3e3d5ffd5b505060025460408051630710d1e760e41b8152603c60048201526024810191909152600a6044820152692bb0b93934b7b92fbb1960b11b60648201526001600160a01b03909116925063710d1e7091506084015f604051808303815f87803b158015611e1b575f5ffd5b505af1158015611e2d573d5f5f3e3d5ffd5b505060025460408051630710d1e760e41b8152603d60048201526024810191909152600a60448201526957617272696f725f763360b01b60648201526001600160a01b03909116925063710d1e7091506084015f604051808303815f87803b158015611e97575f5ffd5b505af1158015611ea9573d5f5f3e3d5ffd5b505060025460408051630710d1e760e41b8152603e60048201526024810191909152600d60448201526c20bc32aa343937bbb2b92fbb1960991b60648201526001600160a01b03909116925063710d1e7091506084015f604051808303815f87803b158015611f16575f5ffd5b505af1158015611f28573d5f5f3e3d5ffd5b505060025460408051630710d1e760e41b8152603f60048201526024810191909152600d60448201526c105e19551a1c9bddd95c97dd8d609a1b60648201526001600160a01b03909116925063710d1e7091506084015f604051808303815f87803b158015611f95575f5ffd5b505af1158015611fa7573d5f5f3e3d5ffd5b505060025460408051630710d1e760e41b81526004810182905260248101919091526008604482015267057697463685f76360c41b60648201526001600160a01b03909116925063710d1e7091506084015f604051808303815f87803b15801561200f575f5ffd5b505af1158015612021573d5f5f3e3d5ffd5b505060025460408051630710d1e760e41b8152604160048201526024810191909152600860448201526757697463685f763160c01b60648201526001600160a01b03909116925063710d1e7091506084015f604051808303815f87803b158015612089575f5ffd5b505af115801561209b573d5f5f3e3d5ffd5b505060025460408051630710d1e760e41b815260426004820152602481019190915260086044820152672bb4ba31b42fbb1960c11b60648201526001600160a01b03909116925063710d1e7091506084015f604051808303815f87803b158015612103575f5ffd5b505af1158015612115573d5f5f3e3d5ffd5b505060025460408051630710d1e760e41b8152604360048201526024810191909152600860448201526757697463685f763360c01b60648201526001600160a01b03909116925063710d1e7091506084015f604051808303815f87803b15801561217d575f5ffd5b505af115801561218f573d5f5f3e3d5ffd5b505060025460408051630710d1e760e41b81526044600482018190526024820192909252600991810191909152685368616d616e5f763160b81b60648201526001600160a01b03909116925063710d1e7091506084015f604051808303815f87803b1580156121fc575f5ffd5b505af115801561220e573d5f5f3e3d5ffd5b505060025460408051630710d1e760e41b8152604560048201526024810191909152600960448201526829b430b6b0b72fbb1960b91b60648201526001600160a01b03909116925063710d1e7091506084015f604051808303815f87803b158015612277575f5ffd5b505af1158015612289573d5f5f3e3d5ffd5b505060025460408051630710d1e760e41b815260466004820152602481019190915260096044820152685368616d616e5f763360b81b60648201526001600160a01b03909116925063710d1e7091506084015f604051808303815f87803b1580156122f2575f5ffd5b505af1158015612304573d5f5f3e3d5ffd5b505060025460408051630710d1e760e41b8152604760048201526024810191909152600960448201526814da185b585b97dd8d60ba1b60648201526001600160a01b03909116925063710d1e7091506084015f604051808303815f87803b15801561236d575f5ffd5b505af115801561237f573d5f5f3e3d5ffd5b505060025460408051630710d1e760e41b8152604860048201526024810191909152600c60448201526b43686965667461696e5f763160a01b60648201526001600160a01b03909116925063710d1e7091506084015f604051808303815f87803b1580156123eb575f5ffd5b505af11580156123fd573d5f5f3e3d5ffd5b505060025460408051630710d1e760e41b8152604960048201526024810191909152600c60448201526b43686965667461696e5f763560a01b60648201526001600160a01b03909116925063710d1e7091506084015f604051808303815f87803b158015612469575f5ffd5b505af115801561247b573d5f5f3e3d5ffd5b505060025460408051630710d1e760e41b8152604a60048201526024810191909152600a6044820152690536f6c646965725f76360b41b60648201526001600160a01b03909116925063710d1e7091506084015f604051808303815f87803b1580156124e5575f5ffd5b505af11580156124f7573d5f5f3e3d5ffd5b505060025460408051630710d1e760e41b8152604b60048201526024810191909152600a604482015269536f6c646965725f763160b01b60648201526001600160a01b03909116925063710d1e7091506084015f604051808303815f87803b158015612561575f5ffd5b505af1158015612573573d5f5f3e3d5ffd5b505060025460408051630710d1e760e41b8152604c60048201526024810191909152600660448201526505370795f76360d41b60648201526001600160a01b03909116925063710d1e7091506084015f604051808303815f87803b1580156125d9575f5ffd5b505af11580156125eb573d5f5f3e3d5ffd5b505060025460408051630710d1e760e41b8152604d6004820152602481019190915260066044820152655370795f763160d01b60648201526001600160a01b03909116925063710d1e7091506084015f604051808303815f87803b158015612651575f5ffd5b505af1158015612663573d5f5f3e3d5ffd5b505060025460408051630710d1e760e41b8152604e6004820152602481019190915260096044820152680536e697065725f76360bc1b60648201526001600160a01b03909116925063710d1e7091506084015f604051808303815f87803b1580156126cc575f5ffd5b505af11580156126de573d5f5f3e3d5ffd5b505060025460408051630710d1e760e41b8152604f600482015260248101919091526009604482015268536e697065725f763160b81b60648201526001600160a01b03909116925063710d1e7091506084015f604051808303815f87803b158015612747575f5ffd5b505af1158015612759573d5f5f3e3d5ffd5b505060025460408051630710d1e760e41b81526050600482015260248101919091526008604482015267053636f75745f76360c41b60648201526001600160a01b03909116925063710d1e7091506084015f604051808303815f87803b1580156127c1575f5ffd5b505af11580156127d3573d5f5f3e3d5ffd5b505060025460408051630710d1e760e41b8152605160048201526024810191909152600860448201526753636f75745f763160c01b60648201526001600160a01b03909116925063710d1e7091506084015f604051808303815f87803b15801561283b575f5ffd5b505af115801561284d573d5f5f3e3d5ffd5b505060025460408051630710d1e760e41b8152605260048201526024810191909152600760448201526605079726f5f76360cc1b60648201526001600160a01b03909116925063710d1e7091506084015f604051808303815f87803b1580156128b4575f5ffd5b505af11580156128c6573d5f5f3e3d5ffd5b505060025460408051630710d1e760e41b815260536004820152602481019190915260076044820152665079726f5f763160c81b60648201526001600160a01b03909116925063710d1e7091506084015f604051808303815f87803b15801561292d575f5ffd5b505af115801561293f573d5f5f3e3d5ffd5b505060025460408051630710d1e760e41b81526054600482015260248101919091526008604482015267048656176795f76360c41b60648201526001600160a01b03909116925063710d1e7091506084015f604051808303815f87803b1580156129a7575f5ffd5b505af11580156129b9573d5f5f3e3d5ffd5b505060025460408051630710d1e760e41b8152605560048201526024810191909152600860448201526748656176795f763160c01b60648201526001600160a01b03909116925063710d1e7091506084015f604051808303815f87803b158015612a21575f5ffd5b505af1158015612a33573d5f5f3e3d5ffd5b505060025460408051630710d1e760e41b8152605660048201526024810191909152600760448201526644656d6f5f763160c81b60648201526001600160a01b03909116925063710d1e7091506084015f604051808303815f87803b158015612a9a575f5ffd5b505af1158015612aac573d5f5f3e3d5ffd5b505060025460408051630710d1e760e41b81526057600482015260248101919091526008604482015267456e6769655f763160c01b60648201526001600160a01b03909116925063710d1e7091506084015f604051808303815f87803b158015612b14575f5ffd5b505af1158015612b26573d5f5f3e3d5ffd5b505060025460408051630710d1e760e41b8152605860048201526024810191909152600860448201526704d656469635f76360c41b60648201526001600160a01b03909116925063710d1e7091506084015f604051808303815f87803b158015612b8e575f5ffd5b505af1158015612ba0573d5f5f3e3d5ffd5b505060025460408051630710d1e760e41b815260596004820152602481019190915260086044820152674d656469635f763160c01b60648201526001600160a01b03909116925063710d1e7091506084015f604051808303815f87803b158015612c08575f5ffd5b505af1158015612c1a573d5f5f3e3d5ffd5b50506004805460ff1916601317905550612cc692505050565b5f80546001600160a01b038381166001600160a01b0319831681178455604051919092169283917f8be0079c531659141344cd1fd0a4f28419497f9722a3daafe3b4186f6b6457e09190a35050565b61200c8061364e83390190565b5f5f60408385031215612ca0575f5ffd5b82516001600160a01b0381168114612cb6575f5ffd5b6020939093015192949293505050565b61097b80612cd35f395ff3fe608060405234801561000f575f5ffd5b50600436106100e5575f3560e01c806397079dbd11610088578063b845459d11610063578063b845459d146101c7578063f2fde38b146101da578063f667526a146101ed578063fa77983e14610200575f5ffd5b806397079dbd14610178578063ab8495bb14610190578063b0d6af16146101b4575f5ffd5b806356190fc4116100c357806356190fc41461013a578063715018a61461014d578063870fe629146101555780638da5cb5b14610168575f5ffd5b80630d39fc81146100e9578063358fc027146101055780633b00e1db14610130575b5f5ffd5b6100f260035481565b6040519081526020015b60405180910390f35b600254610118906001600160a01b031681565b6040516001600160a01b0390911681526020016100fc565b610138610213565b005b610138610148366004610887565b610380565b6101386103e2565b6101386101633660046108c1565b6103f5565b5f546001600160a01b0316610118565b6004546101189061010090046001600160a01b031681565b6002546101a490600160a01b900460ff1681565b60405190151581526020016100fc565b6101386101c23660046108dc565b6104bd565b600154610118906001600160a01b031681565b6101386101e83660046108c1565b610500565b6101386101fb3660046108dc565b61053d565b61013861020e3660046108f3565b61055c565b60045461010090046001600160a01b0316331461026f5760405162461bcd60e51b81526020600482015260156024820152742737ba103a3432903832b73234b7339037bbb732b960591b60448201526064015b60405180910390fd5b60025460408051638da5cb5b60e01b815290515f926001600160a01b031691638da5cb5b9160048083019260209291908290030181865afa1580156102b6573d5f5f3e3d5ffd5b505050506040513d601f19601f820116820180604052508101906102da9190610913565b60048054610100600160a81b031916815560025460405163f2fde38b60e01b815233928101929092529192506001600160a01b039091169063f2fde38b906024015f604051808303815f87803b158015610332575f5ffd5b505af1158015610344573d5f5f3e3d5ffd5b50506040513392506001600160a01b03841691507ff7cee6b83a861725949b97a044b23dc76af48efdd8fde8914a856db54f71dec6905f90a350565b6103886106c7565b60028054821515600160a01b0260ff60a01b1990911617905560405133907fbea5631892ba1250d07eb74e988c18e544fb84a701c0be5bd20397cf52aa6506906103d790841515815260200190565b60405180910390a250565b6103ea6106c7565b6103f35f6106f3565b565b6103fd6106c7565b60048054610100600160a81b0319166101006001600160a01b0384811691820292909217835560025460408051638da5cb5b60e01b8152905192949190931692638da5cb5b92818301926020928290030181865afa158015610461573d5f5f3e3d5ffd5b505050506040513d601f19601f820116820180604052508101906104859190610913565b6001600160a01b03167fc5972b1607a540d7d685e3254ea6b9b0e1f90b2e2e4641a74f8ae74e2e6b8c5060405160405180910390a350565b6104c56106c7565b60038190556040518181527f59d6cec67b414426616e63c717ecf16528be74a9e8395215ca0b0f33c6ff6e2c9060200160405180910390a150565b6105086106c7565b6001600160a01b03811661053157604051631e4fbdf760e01b81525f6004820152602401610266565b61053a816106f3565b50565b6105456106c7565b60015461053a906001600160a01b03163383610742565b600254600160a01b900460ff166105a45760405162461bcd60e51b815260206004820152600c60248201526b43616e6e6f7420636c61696d60a01b6044820152606401610266565b60045460ff908116908216106105fc5760405162461bcd60e51b815260206004820152601a60248201527f496e70757420617661746172496420756e617661696c61626c650000000000006044820152606401610266565b60035460015461061b916001600160a01b03909116903390309061077c565b600254604051630348ab1560e51b815233600482015260ff831660248201525f916001600160a01b03169063691562a0906044016020604051808303815f875af115801561066b573d5f5f3e3d5ffd5b505050506040513d601f19601f8201168201806040525081019061068f919061092e565b60405190915060ff831690829033907fc2bfac2d9cca10c7c534b72c912cd9f18da3849b9e879d34755a0241c2d2d477905f90a45050565b5f546001600160a01b031633146103f35760405163118cdaa760e01b8152336004820152602401610266565b5f80546001600160a01b038381166001600160a01b0319831681178455604051919092169283917f8be0079c531659141344cd1fd0a4f28419497f9722a3daafe3b4186f6b6457e09190a35050565b61074f83838360016107b8565b61077757604051635274afe760e01b81526001600160a01b0384166004820152602401610266565b505050565b61078a84848484600161081a565b6107b257604051635274afe760e01b81526001600160a01b0385166004820152602401610266565b50505050565b60405163a9059cbb60e01b5f8181526001600160a01b038616600452602485905291602083604481808b5af1925060015f5114831661080e578383151615610802573d5f823e3d81fd5b5f873b113d1516831692505b60405250949350505050565b6040516323b872dd60e01b5f8181526001600160a01b038781166004528616602452604485905291602083606481808c5af1925060015f5114831661087657838315161561086a573d5f823e3d81fd5b5f883b113d1516831692505b604052505f60605295945050505050565b5f60208284031215610897575f5ffd5b813580151581146108a6575f5ffd5b9392505050565b6001600160a01b038116811461053a575f5ffd5b5f602082840312156108d1575f5ffd5b81356108a6816108ad565b5f602082840312156108ec575f5ffd5b5035919050565b5f60208284031215610903575f5ffd5b813560ff811681146108a6575f5ffd5b5f60208284031215610923575f5ffd5b81516108a6816108ad565b5f6020828403121561093e575f5ffd5b505191905056fea264697066735822122002208a4c04c43c54e9a7a1e1a12010ffe59eeb16ae5f2944e89d5b2dce8a0dfb64736f6c634300081c0033608060405234801561000f575f5ffd5b50336040518060400160405280600a8152602001694841204176617461727360b01b8152506040518060400160405280600381526020016248414160e81b815250815f908161005e9190610193565b50600161006b8282610193565b5050506001600160a01b03811661009b57604051631e4fbdf760e01b81525f600482015260240160405180910390fd5b6100a4816100aa565b5061024d565b600a80546001600160a01b038381166001600160a01b0319831681179093556040519116919082907f8be0079c531659141344cd1fd0a4f28419497f9722a3daafe3b4186f6b6457e0905f90a35050565b634e487b7160e01b5f52604160045260245ffd5b600181811c9082168061012357607f821691505b60208210810361014157634e487b7160e01b5f52602260045260245ffd5b50919050565b601f82111561018e57805f5260205f20601f840160051c8101602085101561016c5750805b601f840160051c820191505b8181101561018b575f8155600101610178565b50505b505050565b81516001600160401b038111156101ac576101ac6100fb565b6101c0816101ba845461010f565b84610147565b6020601f8211600181146101f2575f83156101db5750848201515b5f19600385901b1c1916600184901b17845561018b565b5f84815260208120601f198516915b828110156102215787850151825560209485019460019092019101610201565b508482101561023e57868401515f19600387901b60f8161c191681555b50505050600190811b01905550565b611db28061025a5f395ff3fe608060405234801561000f575f5ffd5b50600436106101a1575f3560e01c806352f77764116100f35780638da5cb5b11610093578063b88d4fde1161006e578063b88d4fde146103b6578063c87b56dd146103c9578063e985e9c5146103dc578063f2fde38b146103ef575f5ffd5b80638da5cb5b1461038a57806395d89b411461039b578063a22cb465146103a3575f5ffd5b806370a08231116100ce57806370a082311461033c578063710d1e701461034f578063715018a61461036257806386f260531461036a575f5ffd5b806352f77764146102f75780636352211e14610316578063691562a014610329575f5ffd5b806318160ddd1161015e57806340398d671161013957806340398d671461029e57806342842e0e146102be57806342966c68146102d15780634f6ccce7146102e4575f5ffd5b806318160ddd1461027057806323b872dd146102785780632f745c591461028b575f5ffd5b806301ffc9a7146101a5578063023d0955146101cd57806306fdde03146101ee578063081812fc14610203578063095ea7b31461022e5780630a204b1814610243575b5f5ffd5b6101b86101b33660046116b1565b610402565b60405190151581526020015b60405180910390f35b6101e06101db36600461170c565b610412565b6040516101c49291906117b2565b6101f661065b565b6040516101c49190611828565b61021661021136600461183a565b6106ea565b6040516001600160a01b0390911681526020016101c4565b61024161023c36600461186c565b610711565b005b6102626102513660046118a4565b600b6020525f908152604090205481565b6040519081526020016101c4565b600854610262565b6102416102863660046118bd565b610720565b61026261029936600461186c565b6107a9565b6102b16102ac3660046118f7565b61080c565b6040516101c49190611910565b6102416102cc3660046118bd565b6108a0565b6102416102df36600461183a565b6108bf565b6102626102f236600461183a565b610941565b6102626103053660046118a4565b600c6020525f908152604090205481565b61021661032436600461183a565b610996565b610262610337366004611922565b6109a0565b61026261034a3660046118f7565b610a14565b61024161035d366004611953565b610a59565b610241610a95565b61037d61037836600461170c565b610aa8565b6040516101c491906119cf565b600a546001600160a01b0316610216565b6101f6610b5b565b6102416103b1366004611a14565b610b6a565b6102416103c4366004611a61565b610b75565b6101f66103d736600461183a565b610b8d565b6101b86103ea366004611b3b565b610c0e565b6102416103fd3660046118f7565b610c3b565b5f61040c82610c78565b92915050565b6060806103e9831061046b5760405162461bcd60e51b815260206004820152601960248201527f47726f75702073697a65206d757374206265203c20313030310000000000000060448201526064015b60405180910390fd5b5f836001600160401b0381111561048457610484611a4d565b6040519080825280602002602001820160405280156104b757816020015b60608152602001906001900390816104a25790505b5090505f846001600160401b038111156104d3576104d3611a4d565b6040519080825280602002602001820160405280156104fc578160200160208202803683370190505b5090505f5b8581101561064d57600f5f88888481811061051e5761051e611b63565b905060200201602081019061053391906118a4565b60ff1660ff1681526020019081526020015f20805461055190611b77565b80601f016020809104026020016040519081016040528092919081815260200182805461057d90611b77565b80156105c85780601f1061059f576101008083540402835291602001916105c8565b820191905f5260205f20905b8154815290600101906020018083116105ab57829003601f168201915b50505050508382815181106105df576105df611b63565b602002602001018190525060105f8888848181106105ff576105ff611b63565b905060200201602081019061061491906118a4565b60ff1660ff1681526020019081526020015f205482828151811061063a5761063a611b63565b6020908102919091010152600101610501565b5090925090505b9250929050565b60605f805461066990611b77565b80601f016020809104026020016040519081016040528092919081815260200182805461069590611b77565b80156106e05780601f106106b7576101008083540402835291602001916106e0565b820191905f5260205f20905b8154815290600101906020018083116106c357829003601f168201915b5050505050905090565b5f6106f482610c9c565b505f828152600460205260409020546001600160a01b031661040c565b61071c828233610cd4565b5050565b6001600160a01b03821661074957604051633250574960e11b81525f6004820152602401610462565b5f610755838333610ce1565b9050836001600160a01b0316816001600160a01b0316146107a3576040516364283d7b60e01b81526001600160a01b0380861660048301526024820184905282166044820152606401610462565b50505050565b5f6107b383610a14565b82106107e45760405163295f44f760e21b81526001600160a01b038416600482015260248101839052604401610462565b506001600160a01b03919091165f908152600660209081526040808320938352929052205490565b60605f61081883610a14565b90505f816001600160401b0381111561083357610833611a4d565b60405190808252806020026020018201604052801561085c578160200160208202803683370190505b5090505f5b828110156108985761087385826107a9565b82828151811061088557610885611b63565b6020908102919091010152600101610861565b509392505050565b6108ba83838360405180602001604052805f815250610b75565b505050565b6108c7610db4565b5f818152600e602090815260408083205460ff16808452600b9092528220805491926001926108f7908490611bc3565b909155505060ff81165f908152600c6020526040812080546001929061091e908490611bd6565b90915550505f828152600e60205260409020805460ff1916905561071c82610de1565b5f61094b60085490565b82106109735760405163295f44f760e21b81525f600482015260248101839052604401610462565b6008828154811061098657610986611b63565b905f5260205f2001549050919050565b5f61040c82610c9c565b5f6109a9610db4565b6001600d5f8282546109bb9190611bd6565b9091555050600d545f818152600e60209081526040808320805460ff191660ff88169081179091558352600b90915281208054600192906109fd908490611bd6565b90915550610a0d90508482610e19565b9392505050565b5f6001600160a01b038216610a3e576040516322718ad960e21b81525f6004820152602401610462565b506001600160a01b03165f9081526003602052604090205490565b610a61610db4565b60ff83165f908152600f60205260409020610a7d828483611c2d565b50505060ff165f908152601060205260409020429055565b610a9d610db4565b610aa65f610e7a565b565b60605f826001600160401b03811115610ac357610ac3611a4d565b604051908082528060200260200182016040528015610aec578160200160208202803683370190505b5090505f5b8381101561089857600e5f868684818110610b0e57610b0e611b63565b9050602002013581526020019081526020015f205f9054906101000a900460ff16828281518110610b4157610b41611b63565b60ff90921660209283029190910190910152600101610af1565b60606001805461066990611b77565b61071c338383610ecb565b610b80848484610720565b6107a33385858585610f92565b6060610b9882610c9c565b505f610bbf604080518082019091526008815267617661746172732f60c01b602082015290565b90505f815111610bdd5760405180602001604052805f815250610a0d565b80610be7846110ba565b604051602001610bf8929190611cfd565b6040516020818303038152906040529392505050565b6001600160a01b039182165f90815260056020908152604080832093909416825291909152205460ff1690565b610c43610db4565b6001600160a01b038116610c6c57604051631e4fbdf760e01b81525f6004820152602401610462565b610c7581610e7a565b50565b5f6001600160e01b0319821663780e9d6360e01b148061040c575061040c82611149565b5f818152600260205260408120546001600160a01b03168061040c57604051637e27328960e01b815260048101849052602401610462565b6108ba8383836001611198565b5f5f610cee85858561129c565b90506001600160a01b038116610d4a57610d4584600880545f838152600960205260408120829055600182018355919091527ff3f7a9fe364faab93b216da50a3214154f22a0a2b415b23a84c8169e8b636ee30155565b610d6d565b846001600160a01b0316816001600160a01b031614610d6d57610d6d818561138e565b6001600160a01b038516610d8957610d848461140b565b610dac565b846001600160a01b0316816001600160a01b031614610dac57610dac85856114b2565b949350505050565b600a546001600160a01b03163314610aa65760405163118cdaa760e01b8152336004820152602401610462565b5f610ded5f835f610ce1565b90506001600160a01b03811661071c57604051637e27328960e01b815260048101839052602401610462565b6001600160a01b038216610e4257604051633250574960e11b81525f6004820152602401610462565b5f610e4e83835f610ce1565b90506001600160a01b038116156108ba576040516339e3563760e11b81525f6004820152602401610462565b600a80546001600160a01b038381166001600160a01b0319831681179093556040519116919082907f8be0079c531659141344cd1fd0a4f28419497f9722a3daafe3b4186f6b6457e0905f90a35050565b6001600160a01b038316610ef45760405163a9fbf51f60e01b81525f6004820152602401610462565b6001600160a01b038216610f2657604051630b61174360e31b81526001600160a01b0383166004820152602401610462565b6001600160a01b038381165f81815260056020908152604080832094871680845294825291829020805460ff191686151590811790915591519182527f17307eab39ab6107e8899845ad3d59bd9653f200f220920489ca2b5937696c31910160405180910390a3505050565b6001600160a01b0383163b156110b357604051630a85bd0160e11b81526001600160a01b0384169063150b7a0290610fd4908890889087908790600401611d11565b6020604051808303815f875af192505050801561100e575060408051601f3d908101601f1916820190925261100b91810190611d4d565b60015b611075573d80801561103b576040519150601f19603f3d011682016040523d82523d5f602084013e611040565b606091505b5080515f0361106d57604051633250574960e11b81526001600160a01b0385166004820152602401610462565b805160208201fd5b6001600160e01b03198116630a85bd0160e11b146110b157604051633250574960e11b81526001600160a01b0385166004820152602401610462565b505b5050505050565b60605f6110c683611500565b60010190505f816001600160401b038111156110e4576110e4611a4d565b6040519080825280601f01601f19166020018201604052801561110e576020820181803683370190505b5090508181016020015b5f19016f181899199a1a9b1b9c1cb0b131b232b360811b600a86061a8153600a850494508461111857509392505050565b5f6001600160e01b031982166380ac58cd60e01b148061117957506001600160e01b03198216635b5e139f60e01b145b8061040c57506301ffc9a760e01b6001600160e01b031983161461040c565b80806111ac57506001600160a01b03821615155b1561126d575f6111bb84610c9c565b90506001600160a01b038316158015906111e75750826001600160a01b0316816001600160a01b031614155b80156111fa57506111f88184610c0e565b155b156112235760405163a9fbf51f60e01b81526001600160a01b0384166004820152602401610462565b811561126b5783856001600160a01b0316826001600160a01b03167f8c5be1e5ebec7d5bd14f71427d1e84f3dd0314c0f7b2291e5b200ac8c7c3b92560405160405180910390a45b505b50505f90815260046020526040902080546001600160a01b0319166001600160a01b0392909216919091179055565b5f828152600260205260408120546001600160a01b03908116908316156112c8576112c88184866115d7565b6001600160a01b03811615611302576112e35f855f5f611198565b6001600160a01b0381165f90815260036020526040902080545f190190555b6001600160a01b03851615611330576001600160a01b0385165f908152600360205260409020805460010190555b5f8481526002602052604080822080546001600160a01b0319166001600160a01b0389811691821790925591518793918516917fddf252ad1be2c89b69c2b068fc378daa952ba7f163c4a11628f55a4df523b3ef91a4949350505050565b5f61139883610a14565b5f838152600760209081526040808320546001600160a01b03881684526006909252909120919250908183146113ed575f83815260208281526040808320548584528184208190558352600790915290208290555b5f938452600760209081526040808620869055938552525081205550565b6008545f9061141c90600190611bc3565b5f838152600960205260408120546008805493945090928490811061144357611443611b63565b905f5260205f2001549050806008838154811061146257611462611b63565b5f91825260208083209091019290925582815260099091526040808220849055858252812055600880548061149957611499611d68565b600190038181905f5260205f20015f9055905550505050565b5f60016114be84610a14565b6114c89190611bc3565b6001600160a01b039093165f908152600660209081526040808320868452825280832085905593825260079052919091209190915550565b5f8072184f03e93ff9f4daa797ed6e38ed64bf6a1f0160401b831061153e5772184f03e93ff9f4daa797ed6e38ed64bf6a1f0160401b830492506040015b6d04ee2d6d415b85acef8100000000831061156a576d04ee2d6d415b85acef8100000000830492506020015b662386f26fc10000831061158857662386f26fc10000830492506010015b6305f5e10083106115a0576305f5e100830492506008015b61271083106115b457612710830492506004015b606483106115c6576064830492506002015b600a831061040c5760010192915050565b6115e283838361163b565b6108ba576001600160a01b03831661161057604051637e27328960e01b815260048101829052602401610462565b60405163177e802f60e01b81526001600160a01b038316600482015260248101829052604401610462565b5f6001600160a01b03831615801590610dac5750826001600160a01b0316846001600160a01b0316148061167457506116748484610c0e565b80610dac5750505f908152600460205260409020546001600160a01b03908116911614919050565b6001600160e01b031981168114610c75575f5ffd5b5f602082840312156116c1575f5ffd5b8135610a0d8161169c565b5f5f83601f8401126116dc575f5ffd5b5081356001600160401b038111156116f2575f5ffd5b6020830191508360208260051b8501011115610654575f5ffd5b5f5f6020838503121561171d575f5ffd5b82356001600160401b03811115611732575f5ffd5b61173e858286016116cc565b90969095509350505050565b5f81518084528060208401602086015e5f602082860101526020601f19601f83011685010191505092915050565b5f8151808452602084019350602083015f5b828110156117a857815186526020958601959091019060010161178a565b5093949350505050565b5f604082016040835280855180835260608501915060608160051b8601019250602087015f5b8281101561180957605f198786030184526117f485835161174a565b945060209384019391909101906001016117d8565b50505050828103602084015261181f8185611778565b95945050505050565b602081525f610a0d602083018461174a565b5f6020828403121561184a575f5ffd5b5035919050565b80356001600160a01b0381168114611867575f5ffd5b919050565b5f5f6040838503121561187d575f5ffd5b61188683611851565b946020939093013593505050565b803560ff81168114611867575f5ffd5b5f602082840312156118b4575f5ffd5b610a0d82611894565b5f5f5f606084860312156118cf575f5ffd5b6118d884611851565b92506118e660208501611851565b929592945050506040919091013590565b5f60208284031215611907575f5ffd5b610a0d82611851565b602081525f610a0d6020830184611778565b5f5f60408385031215611933575f5ffd5b61193c83611851565b915061194a60208401611894565b90509250929050565b5f5f5f60408486031215611965575f5ffd5b61196e84611894565b925060208401356001600160401b03811115611988575f5ffd5b8401601f81018613611998575f5ffd5b80356001600160401b038111156119ad575f5ffd5b8660208284010111156119be575f5ffd5b939660209190910195509293505050565b602080825282518282018190525f918401906040840190835b81811015611a0957835160ff168352602093840193909201916001016119e8565b509095945050505050565b5f5f60408385031215611a25575f5ffd5b611a2e83611851565b915060208301358015158114611a42575f5ffd5b809150509250929050565b634e487b7160e01b5f52604160045260245ffd5b5f5f5f5f60808587031215611a74575f5ffd5b611a7d85611851565b9350611a8b60208601611851565b92506040850135915060608501356001600160401b03811115611aac575f5ffd5b8501601f81018713611abc575f5ffd5b80356001600160401b03811115611ad557611ad5611a4d565b604051601f8201601f19908116603f011681016001600160401b0381118282101715611b0357611b03611a4d565b604052818152828201602001891015611b1a575f5ffd5b816020840160208301375f6020838301015280935050505092959194509250565b5f5f60408385031215611b4c575f5ffd5b611b5583611851565b915061194a60208401611851565b634e487b7160e01b5f52603260045260245ffd5b600181811c90821680611b8b57607f821691505b602082108103611ba957634e487b7160e01b5f52602260045260245ffd5b50919050565b634e487b7160e01b5f52601160045260245ffd5b8181038181111561040c5761040c611baf565b8082018082111561040c5761040c611baf565b601f8211156108ba57805f5260205f20601f840160051c81016020851015611c0e5750805b601f840160051c820191505b818110156110b3575f8155600101611c1a565b6001600160401b03831115611c4457611c44611a4d565b611c5883611c528354611b77565b83611be9565b5f601f841160018114611c89575f8515611c725750838201355b5f19600387901b1c1916600186901b1783556110b3565b5f83815260208120601f198716915b82811015611cb85786850135825560209485019460019092019101611c98565b5086821015611cd4575f1960f88860031b161c19848701351681555b505060018560011b0183555050505050565b5f81518060208401855e5f93019283525090919050565b5f610dac611d0b8386611ce6565b84611ce6565b6001600160a01b03858116825284166020820152604081018390526080606082018190525f90611d439083018461174a565b9695505050505050565b5f60208284031215611d5d575f5ffd5b8151610a0d8161169c565b634e487b7160e01b5f52603160045260245ffdfea26469706673582212208d8fd245e2c6d72503d659efc14d11ed12df3b9ef34e8295fcda9880a609b24b64736f6c634300081c0033",
  "linkReferences": {},
  "deployedLinkReferences": {},
  "immutableReferences": {},
  "inputSourceName": "project/contracts/HeroArenaMiningFactoryV1.sol",
  "buildInfoId": "solc-0_8_28-2604c22d1150cbce7853caaee7958569340fed00"
}